:02000004900466
:10000000000002206D390490A10204904DBF0490BD
:10001000A1020490A1020490A1020490000000003B
:10002000000000000000000000000000A102049099
:10003000A102049000000000A1020490D1BE04902F
:10004000A1020490A1020490A1020490A1020490D4
:10005000A1020490A1020490A1020490A1020490C4
:10006000A1020490A1020490A10204903D8F04908B
:10007000498F0490A1020490558F0490618F0490E1
:1000800061B70490ED740490A1020490A102049061
:10009000A1020490A1020490A1020490A102049084
:1000A000A1020490A1020490A1020490A102049074
:1000B00011A904901DA9049029A904902D750490FC
:1000C000A102049039750490A1020490699F0490E4
:1000D000759F049071B50490A1B50490D9B50490B2
:1000E000A1020490A102049000000000A10204906B
:1000F000A1020490A1020490A1020490A102049024
:10010000A1020490A102049035A90490819F04905B
:1001100011B6049049B60490A1020490A102049083
:10012000A1020490A1020490A59F0490E59F049071
:10013000A1B70490A1020490A1020490A10204902E
:1001400000000000000000000000000000000000AF
:10015000A1020490A1020490A102049081B604902F
:1001600045750490A1020490E1BE049005BF04907F
:10017000A102049029BF0490A1020490A10204905E
:10018000A1020490A1020490B9B60490F1B60490C3
:100190008D9F0490999F0490A1020490A102049065
:1001A000A1020490A1020490A1020490A102049073
:1001B000418B0490A1020490A1020490A10204903A
:1001C000A1020490A1020490B9870590C58705900B
:1001D000A1020490D1870590A1020490A10204908D
:1001E000A1020490A1020490A1020490A102049033
:1001F000A1020490A1020490A1020490A102049023
:10020000A1020490A1020490A1020490A102049012
:10021000A1020490A1020490A1020490A102049002
:10022000A1020490A1020490A10204900000000029
:10023000A1020490A102049000000000A102049019
:10024000A1020490A1020490A1020490A1020490D2
:10025000A1020490A1020490A1020490A1020490C2
:10026000A1020490A1020490A1020490A1020490B2
:10027000A1020490A102049029B70490000000009C
:10028000A1020490A1020490A102049000000000C9
:0802900000000000A10204902F
:1002A000684620F007018D46FEE700234FF60B72EB
:1002B000C0E90233C0E900237047704770B5094EAA
:1002C0000446094D287056F820000368DB689847FB
:1002D00056F82420EFF3108372B6EA6003B962B6D1
:1002E00070BD00BF081800240000002410B5084CA1
:1002F000207404EB800460690368DB6898476169D7
:10030000EFF3108372B6034A916003B962B610BD71
:10031000081800240000002438B5094C094D04EBEE
:10032000800485F8FC00E06A0368DB689847E26AAD
:10033000EFF3108372B62A6103B962B638BD00BF0D
:10034000081800240000002470477047DFED137A7E
:10035000B7EE007AB4EEE70AF1EE10FA1BDD30EEEC
:10036000670AFFEE006A9FED0E6AB4EEC60AF1EE70
:1003700010FA01DD37EEC00A20EE006ADFED095AFF
:1003800020EE260ADFED086AE6EE656AA6EEC67A7A
:1003900027EE000A7047F0EE476AE4E7DB0F4940BA
:1003A000DB0FC93F8588083CABAA2A3EEFF31082D9
:1003B00072B6044B012183F8CA0083F8C91002B950
:1003C00062B6704700000024D0ED007AF4EE407A67
:1003D00008B5F1EE10FA20D0DFED127A80ED000AB8
:1003E00020EE275A37EEC50AFFF7B0FF81ED000A6D
:1003F000B0EE450AFFF7AAFF82ED000AD1ED007AC0
:1004000030EE270AF7EE007AB4EEE70AF1EE10FAC2
:1004100004DD87EE807A83ED007A08BDB0EE677A5E
:10042000F9E700BFDB0FC93F854B2DE9F04FDC6BCF
:10043000834689462DED028B87B00192002C6FD048
:1004400094F8C43043B1D4F8C03083F00103C4F849
:10045000C030002384F8C43094F8C5304BB1002379
:10046000E06884F8C53020B1036894F8C610DB69F1
:100470009847D4F8C060582504F1D40304F1D002A1
:10048000754304F1CC0104F1C800671905F11008A7
:1004900097ED060AA044FFF797FF04F1E40304F187
:1004A000E00204F1DC0104F1D80097ED0D0AFFF73A
:1004B0008BFF04F1E80004F1F40304F1F00204F10D
:1004C000EC0197ED140AFFF77FFF606830B197F8F1
:1004D00065301BB1036841461B69984705F12C073D
:1004E000A068274448B1582303FB064393F86630BD
:1004F0001BB1036839461B6998474835E0686319A2
:10050000009348B1582303FB064393F867301BB1AF
:10051000036800991B6998470025019BAB4204D1F1
:1005200007B0BDEC028BBDE8F08FDBF800204FEA8E
:10053000850A606802EB850292ED008A00287CD073
:10054000582202FB064292F86520002A75D0026804
:10055000B0EE480AF0EE480A8DED048A8DED058A6A
:10056000414652699047D4ED347A8DED020A27EE68
:10057000800AD4ED336A67EEA07A94ED357ACDED3A
:10058000030AA8EE260AE8EE267A60EE078A27EE2E
:10059000878AA06808B3582202FB064292F86620B8
:1005A000DAB10268B0EE680A39465269904794EDB4
:1005B000388A8DED020A28EE000A94ED377A28EE8B
:1005C000208AD4ED397ACDED030AA8EE870AA8EE89
:1005D000878A60EE278A28EE278AE06808B35822C7
:1005E00002FB064292F86720DAB10268B0EE680AB0
:1005F00000995269904794ED3C8A8DED020A28EEED
:10060000000A94ED3B7A28EE208AD4ED3D7ACDEDB8
:10061000030AA8EE870AA8EE878A60EE278A28EEEA
:10062000278AD9F8002001355244C2ED008AD9F852
:100630000420524482ED008A6FE7F0EE488AA8E772
:1006400008180024FCEEC07A426817EE903AB8EE23
:10065000677A012B30EE470A38BF01239A4280EDBA
:10066000040A98BF02F1FF33C360704783680268D1
:1006700002EB830282ED000A03B94368013B836009
:100680007047D0E9023290ED047A134442689A42EE
:1006900098BF9B1A591C8A4298BF891A026802EBBC
:1006A000830302EB810293ED000AD2ED007A77EE2C
:1006B000C07AA7EE870A7047FCEEC07A426881686C
:1006C00017EE903AF8EE677A9A4270EE677A98BF22
:1006D00002F1FF330B449A4298BF9B1A591C8A427D
:1006E00098BF891A026802EB830302EB810293ED43
:1006F000000A92ED007A37EE407AA7EE270A70479B
:1007000008B5062846D8DFE800F004071E2B32455E
:100710003900BDE8084019E69FED207ADFED207A28
:10072000B4EEC70A60EE277AF1EE10FA06D5B7EEFE
:10073000007A77EEC77AB0EE670A08BDB0EE087AA5
:1007400077EE677AF7E7DFED157ABFEE007AF4EE21
:10075000C07AF7EE007AF1EE10FA77FE877AEAE7D0
:10076000FFEE007A9FED0F7AE0EE077AE3E7F7EE0F
:10077000007A9FED0C7AE0EE477ADCE7FFF7E6FDC2
:10078000B5EEC00A60EE007AF1EE10FAD3DAF1EEBF
:10079000677AD0E7DFED047ACDE700BFDB0F494091
:1007A00083F9223F83F9A23E00000000024600695F
:1007B000052892ED005A08B514D192ED030AD2ED46
:1007C000017A75EE277AC2ED007ADFED1A6AF4EE4F
:1007D000E67AF1EE10FA0ADAF5EEC07AF1EE10FAE6
:1007E00016D408BDB0EE450AFFF78AFFE7E7516966
:1007F00077EEE67A1048114BC2ED007A00FB013328
:1008000007EE103A5361BAEEE07A82ED037ADCE744
:10081000516977EEA67A0848084BC2ED007A00FBD2
:10082000013307EE103A5361BAEEE07A82ED037AB3
:10083000D2E700BFDB0FC9400D6619005FF36E3CC5
:1008400002460069052892ED005A08B518D192EDCC
:10085000030AF0EE457AD2ED016A9FED1D7AE6EECD
:10086000877AC2ED007ADFED1B6AF4EEE67AF1EEEC
:1008700010FA0ADAF5EEC07AF1EE10FA16D408BDD5
:10088000B0EE450AFFF73CFFE3E7516977EEE67A01
:100890001148124BC2ED007A00FB013307EE103A0B
:1008A0005361BAEEE07A82ED037ADCE7516977EEC4
:1008B000A67A0948094BC2ED007A00FB013307EE26
:1008C000103A5361BAEEE07A82ED037AD2E700BFC4
:1008D00000004042DB0FC9400D6619005FF36E3C1B
:1008E000D0ED057A90ED017A30EE670AD0ED026A1C
:1008F000E7EE007A90ED060A37EEC07AC0ED057A91
:10090000A6EE870A90ED047A80ED060A37EEC00A5B
:1009100020EE070A90ED037AA7EE870A7047D0ED24
:10092000007AB6EE006AD0ED014A90ED025A37EE39
:10093000A47AD0ED035A77EEE47A75EE076A37EEC3
:10094000457A76EEA56A37EE657A66EE866A27EE18
:10095000067AC0ED006A75EE276A77EEC57A80EDFB
:10096000027A76EEE56A77EEA57A66EE866A67EE3B
:10097000867AC0ED016AC0ED037A7047D0ED007A47
:10098000B0EE407A90ED016A70EE677ADFED056AAD
:1009900080ED007AE6EE267AB0EE670AC0ED017AC5
:1009A000704700BF52B87E3F00487047EBC10590CA
:1009B000B3EE0E7AD1ED067AD1ED006AB0EE406A60
:1009C000B7EE000A67EE877A90ED107A30B567EEE1
:1009D000877A9FED197A85B004460D46E6EE877A50
:1009E000F4EEC07AF1EE10FA07D49FED140AF4EE9B
:1009F000C07AF1EE10FA30FE270A1148FFF722FE06
:100A0000FFF73FFE04F11C00FFF76AFF95ED017A46
:100A1000F0EE407A0A48A7EE006AB0EE460AFFF709
:100A200025FEB0EE670A04F13800FFF7A7FFF0EEED
:100A3000400A05B030BD00BF00803B47C09F0C4856
:100A4000000100247047D0ED007A20EE270AF7EE6F
:100A5000007AB4EEE70AF1EE10FA07DCFFEE007A56
:100A6000F4EEC07AF1EE10FA77FE807AB0EE080A62
:100A7000A7EEE70A60EE277A9FED020A27EE800ACA
:100A8000704700BFABAAAA3E00487047F3C105906B
:100A90009FED2E7AF7EE005AD1ED067AB0EE406A5D
:100AA000D1ED006A67EE877A90ED117A30B567EE86
:100AB000877A9FED277A85B004460D46E6EE877A61
:100AC000F4EEE57AF1EE10FA3AD49FED220AF4EE54
:100AD000C07AF1EE10FA30FE270A1F48FFF7B2FD88
:100AE000FFF7CFFD04F11C00FFF7FAFED5ED047A05
:100AF00004F1380077EEA57A27EE800AFFF7A3FF0E
:100B0000D5ED017AB0EE407AA7EE806AB4EEE56AE0
:100B1000F1EE10FA17DCFFEE007AF4EEC67AF1EE91
:100B200010FA37FE860A0C48FFF7A0FDB0EE470A20
:100B300004F13C00FFF722FFF0EE400A05B030BDA3
:100B4000B0EE650AC9E7B7EE000AECE700004842DC
:100B500000803B47C09F0C481401002470470148A7
:100B6000704700BFF8C10590B0EE405ADFED367A0D
:100B700091ED000A90ED197A20EE270A91ED066AB0
:100B8000F6EE007A30B5E7EE277A04462F4885B0B6
:100B90000D46F0EE676AF5EE007AE6EEA77AB0EE63
:100BA000677AF7EE007AE6EE077A9FED297A67EE2C
:100BB000807AF4EEC77AF1EE10FA77FE276AFFF733
:100BC00041FD1430B0EE660AFFF73CFD1438FFF724
:100BD00058FDF0EE406A1430FFF753FDF0EE405A36
:100BE00004F11C00B0EE660AFFF77AFE04F138004B
:100BF000B0EE406AB0EE650AFFF772FEF0EE405AC2
:100C0000B0EE450AD5ED017A1048A7EE860AFFF747
:100C10002DFDA7EEA55A1430B0EE450AFFF726FDCC
:100C2000B0EE460A04F15400FFF7A8FEB0EE405AB9
:100C300004F15C00B0EE650AFFF7A0FEF0EE400A9A
:100C4000B0EE450A05B030BD00803B4728010024C6
:100C5000C09F0C4870470148704700BFFDC1059018
:100C6000D1ED057A9FED2D7ADFED2D4A67EE877A7B
:100C700038B567EEA47A0D4604460430C0ED017A1B
:100C8000FFF7DEFD9FED277AD5ED007AF0EE406AA2
:100C900084ED0B0A67EE877A9FED230A2348F4EE72
:100CA000C07AF1EE10FA30FE270AFFF7CBFC95ED83
:100CB000065A9FED1F7A66EE856ADFED1E7A9FED7C
:100CC0001E0AE6EE877AF4EEC07AF1EE10FA07D447
:100CD0009FED1A0AF4EEC07AF1EE10FA30FE270A00
:100CE000DFED177A20EE270A20EE240AFFF72EFB0D
:100CF00030EE000ADFED137A9FED137AB4EEE70AC7
:100D0000F1EE10FA77FE807AC4ED0C7AF0EE007AFC
:100D1000E5EE477AC4ED0D7A38BD00BFDB0FC94060
:100D20003EC3AE3700803B47C09F0C4850010024B3
:100D30000000FA440000C8430000204200401C4666
:100D4000DB0F49409A99D93F9A99F93F30B504464B
:100D500085B01E48B0EE406A0D46FFF792FCD4ED18
:100D6000097AD4ED0D5A94ED0A7AA5EEE70AD4ED8E
:100D70000C6A30EE470AE6EE807AA6EEA77AC4ED5A
:100D8000097AF7EE007AB4EEE77A84ED0A7AF1EEAA
:100D900010FA07DCFFEE007AF4EEC77AF1EE10FAF3
:100DA00077FE877A95ED017A0848A7EE276AB0EEBC
:100DB000460AFFF75BFCB0EE670A04F11C00FFF780
:100DC000DDFDF0EE400A05B030BD00BF500100244B
:100DD0007047B4EE400AF1EE10FA0DD1DFED127A51
:100DE000B4EEE70AF1EE10FA06DCDFED107AB4EEAD
:100DF000E70AF1EE10FA04D59FED0D0A0DE030EE92
:100E0000670ADFED0C7AB4EEE70AF1EE10FAF6DAD3
:100E1000B5EEC00AF1EE10FA02D480ED020A704776
:100E200030EE270AF4E700BF00247449002474C997
:100E300000000000DB0FC9400048704704C2059065
:100E400030EE200AB6EE004AF0B5856F20EE040AB7
:100E500087B00446ADBBD0ED137AB2EE026ADFED87
:100E6000656A30EE670A826E6349644BE0EE267A6B
:100E700001FB02338366B0EE677AC0ED137AD0EDE2
:100E8000147A37EE677AE7EE267A07EE103ADFED4E
:100E90005C6ABAEEE07A27EE267ADFED5A6AC0ED98
:100EA000147AE7EE267AB3EE0B7AF0EE476A27EE75
:100EB000866AE7EEA76AA7EE867A66EEA76A86EEEE
:100EC000870A5148FFF7D2FB012D51D1261D04F1AD
:100ED0006C0504F17807D4ED1F4A3046D4ED203A72
:100EE000FFF764FCB0EE647AF7EE007AA3EE807A46
:100EF000B4EEE77AF1EE10FA07D4DFED447AB4EEFF
:100F0000E77AF1EE10FA67FE877AE5EC017ABD42E6
:100F100006F11806DFD13C4894ED1B0AFFF7CCFB25
:100F2000F0EE405A94ED1C0AFFF7C6FBF0EE406A63
:100F300094ED1D0AFFF7C0FB75EEA66A75EE805AA8
:100F400066EE846A65EE845AB0EE660A04F15800D3
:100F5000FFF714FDB0EE405A04F16000B0EE650AF0
:100F6000FFF70CFDF0EE400AB0EE450A07B0F0BD09
:100F7000032D0CD194ED1B0AFFF79EFBF0EE406AA7
:100F800094ED1C0AFFF798FBF0EE405ADCE7D4ED35
:100F90001F4A201D94ED204AFFF708FCF0EE647A0A
:100FA000E4EE007AB7EE000AF4EEC07AF1EE10FA41
:100FB00007D49FED160AF4EEC07AF1EE10FA20FE87
:100FC000270A1148FFF778FBF0EE406A7DB9D4EDAF
:100FD000157A9FED087A30EE676AE6EE077A9FEDA4
:100FE0000C7AC4ED157A70EE677AE7EE876AF0EE58
:100FF000665AA9E76666E63E0D6619005FF36E3C29
:101000009A99193E6F12033B6401002400E01545D4
:101010009A99993E70470148704700BF0BC20590EE
:10102000D1ED007A9FED177A67EE877A9FED167AF9
:1010300067EE877A9FED157AC0ED027AD1ED057AD9
:1010400067EE877AFDEEE77A17EE903A052B10D817
:10105000DFE803F003140B160B164FF07E520C4B17
:1010600043624B68C262836270474FF07E52094B05
:10107000F6E7012B4FF07E52F9DCF0E7064AEEE787
:10108000054AF4E7DB0FC9403EC3AE37CFF7BF4098
:10109000000070430000E643000080BF30B587B019
:1010A000044604300D468DED020ACDED030AFFF72C
:1010B0007DFBF6EE006A94ED0A7A94ED096AF0EE93
:1010C000667AE0EE267AB7EE000A27EE877AF0EE2F
:1010D000407AE7EE067AF4EEC07AF1EE10FA07D421
:1010E0009FED1A0AF4EEC07AF1EE10FA20FE270AFC
:1010F0001748FFF7A7FAFFF7C4FAD5ED047AB0EE68
:10110000406A9FED140A9DED027A67EE807ADDED6C
:10111000035A37EE257AF4EEC07AF1EE10FA30FE7B
:10112000270A20EE060AD4ED0B7A20EE270AA7EE56
:10113000260AFFF79BFAB0EE460A04F11C00FFF7FF
:101140001DFCF0EE400A07B030BD00BF0080FF4339
:10115000780100246666663F70470148704700BF0B
:1011600013C20590D1ED007A9FED1B6ADFED1B6A7B
:1011700027EE867A27EE267A80ED027A80ED087ACD
:101180009FED177A67EE877AB2EE0E7A67EE867A6F
:1011900067EEA67AD1ED046AC0ED0E7AC0ED147A3E
:1011A000F7EE007AE6EE877A9FED0E7AC0ED197AB7
:1011B000D1ED017A27EE877A80ED1E7A9FED0A7ACB
:1011C00027EE877A80ED1F7A9FED087A67EE877A9F
:1011D000C0ED207A704700BFDB0FC9403EC3AE3779
:1011E000295C0F3FCDCCCC3E0000C84200004843F4
:1011F00091ED047A30EE800ADFED647AF6EE004A73
:10120000B4EEE77A20EE240AF1EE10FA30B5044687
:1012100087B00D4602DD6430FFF715FC95ED036ADB
:10122000201DDFED5B6ADFED5B7A94ED214AE6EE8F
:10123000267A30EE447AA7EE274A84ED214A70EEF2
:10124000440AFFF7B3FA04F11C00B0EE402AFFF79E
:10125000ADFA04F13400B0EE403AFFF7A7FA04F11A
:101260004C00F0EE402AFFF7A1FAF0EE647A94ED1C
:101270001E7AF7EE006A94ED205AF0EE645AE2EE20
:10128000247AF0EE663AE2EEA45AB0EE666AE7EE31
:10129000673AF0EE647AE3EE247AB0EE663AE0EE76
:1012A000244AA7EE673ADFED3C7A67EEC77A9FEDF6
:1012B0003B7AA5EEA76AF0EE665AE4EEA75AD4EDA3
:1012C0001F7AA7EE827ADFED367AE5EE227AB4EE67
:1012D000E67AF1EE10FA52D49FED320AB4EEC07AFB
:1012E000F1EE10FA20FE070AF4EEE67AF1EE10FABB
:1012F00048D49FED2D5AF4EEC57AF1EE10FA25FE92
:10130000275A2A48FFF79EF9B0EE600AFFF7AEF9B8
:10131000FFF7B7F91430F0EE404AB0EE450AFFF798
:1013200091F9B0EE440AFFF7A1F963EEA43AFFF792
:10133000A8F9D5ED057A26EE006A04F1680076EE8C
:10134000E76A65EE805A23EE243A26EE266A65EEB9
:10135000A65AA3EEA76AE3EE275AB0EE460AFFF7B5
:101360000DFBB0EE405A04F17000B0EE650AFFF7D5
:1013700005FBF0EE400AB0EE450A07B030BDB0EE16
:10138000660AB1E7B7EE005ABBE700BF0AD7A33C35
:10139000CDCCCC3ECDCC4C3D3333333F0000F0427E
:1013A0000000704300007F430080FF438C01002455
:1013B00070470148704700BF1AC205900368DB6898
:1013C0001847002243F239010023C0E90521064AEB
:1013D0004360C3600361826003628362036383636B
:1013E000C3630364436470471F420939D1ED007A37
:1013F0009FED057A67EE877A9FED047A67EE877A2C
:10140000C0ED027A704700BFDB0FC9403EC3AE3764
:1014100030B58BB0044604300D468DED020ACDED9B
:10142000030AFFF7C3F9B5EEC00A60EE007AF1EEE9
:1014300010FA01DAF1EE677AB5EE007A95ED016AFD
:10144000DFED335ADFED336A26EE077A9FED320A7D
:1014500066EEC66ADFED314A314BE7EE275AB6EE4B
:10146000007A0FCBB0EE475AA7EE875AF7EE007A14
:10147000E5EE267A9DED025AB4EEE70AF1EE10FA97
:1014800070FE276ADDED037A35EE275AD5ED047A32
:1014900006AD67EEA47AD4ED114A85E80F0067EE39
:1014A000A47A2B46224604F12001E5EE077AB0EE3D
:1014B000655AB3EC017AA6EE075A9FED1A7AB4EE9C
:1014C000C75AF1EE10FA07DC9FED177AB4EEC57A31
:1014D000F1EE10FA37FE057A92ED080A083282ED35
:1014E000057AA7EE270AE7EE407AC2ED067A914226
:1014F0000BD126EE800A04F13C00FFF73FFAF0EE34
:10150000400A84ED110A0BB030BDF0EE407ACEE710
:10151000333333BF9A99993ECDCCCC3D3333333FEF
:1015200044A905900AD723BCA4707DBF7047014829
:10153000704700BF1FC205900368DB681847002290
:1015400003461C499FED1C0A10B5426043F2390462
:10155000C26002610020996019629A62C3E90504C1
:10156000C3E90B0403F11C00FFF733FC596A03F1D4
:10157000B400D96103F13401814218D1C3F8B42019
:101580004FF03F41C3F8B820C3F8BC20C3F8C020D7
:10159000C3F8C820C3F8CC20C3F8D0200422C3F875
:1015A000C410C3F8D420002283F8D82010BD4A60AC
:1015B0000831E1E71F428938DB0FC93FD1ED007ADE
:1015C0009FED1D7AD1ED036A67EE877A9FED1B7A56
:1015D00067EE877A9FED1A7AC0ED027AC0ED087A3D
:1015E000D1ED057A67EE877A9FED167AFDEEE77A00
:1015F00017EE903ADFED147AE6EEC77A052B9FEDF1
:10160000137AD4BF00220122062B80F8D820A8BF6D
:1016100006230F4AF1EE677A23EAE373C0ED317ACD
:1016200002EB8303D1ED017A1B6967EE877AC0F87C
:10163000D430C0ED327A7047DB0FC9403EC3AE37BD
:10164000CFF7DF409A99593F3333733FCDCCCC3E2F
:1016500044A90590DFED5F7AF0EE402AD1ED044A0F
:101660009FED5D2A64EEA74A10B5044686B00430AB
:10167000FFF79CF894ED313AD4ED321AF0EE403A8F
:10168000F0EE437AE1EE807AF4EEC27AF1EE10FAEF
:1016900076DC9FED524AB4EEE74AF1EE10FA34FEE2
:1016A000274A94F8D83072EEA00AF6EE002A002BF2
:1016B0006CD004F11C00FFF779F8B0EE437AA1EE8C
:1016C000807AB4EEC27AF1EE10FA5CDCDFED437A98
:1016D000F4EEC77AF1EE10FA77FE877A94ED330ACA
:1016E000234694ED347A04F1200124EE800A224648
:1016F00064EE875AA0EEA20AE0EEA25AD2ED0E6A7C
:10170000B0EE407A82ED0D4A0832E0EE046AA4EEB3
:10171000667AB0EE660A82ED0C7A9142EED1D3ED94
:10172000166AB0EE657AC3ED157A0833E5EEA76A5E
:10173000A7EEE67AF0EE665A83ED147A9942EED17E
:1017400004F1B400FFF71AF904F1BC00B0EE405AFE
:10175000B0EE650AFFF712F9F7EE007A84ED340A6D
:1017600084ED335A73EEA73A63EEA23A77EEE37A4A
:1017700027EE800AA5EE230AF0EE400A06B010BD5F
:10178000B0EE424A8DE7DFED147AA7E7D4ED337A65
:1017900004F13402D4F8D41024EEA70AA0EEA20A71
:1017A000994206DC04F1B400FFF7E8F884ED330A4F
:1017B000E2E710460832013380ED004A52ED017A2B
:1017C000E4EE007AA4EE670A02ED010AB0EE670AC1
:1017D000E6E700BF3333733F0AD723BCA4707DBF55
:1017E00070470148704700BF26C205900368DB6858
:1017F0001847002343F239024360C36003610023AA
:10180000C0E90532024B83604FF07C53C3617047DF
:101810001F42093AD1ED057A9FED0D7A67EE877A7E
:10182000FDEEE77A17EE903A13B1012B18BF0623AD
:10183000D1ED007A9FED077A436167EE877A9FEDDD
:10184000067A4B6867EE877AC361C0ED027A70470B
:101850009EEF3F40DB0FC9403EC3AE3710B586B0A8
:1018600004460430CDED030A8DED020AFEF79EFF1B
:10187000F6EE007AD4ED076AB7EE007ADDED030AE2
:10188000E0EE277A9DED020AA6EEE77ADFED067A12
:10189000F4EEC77AF1EE10FA77FE877A20EE270A87
:1018A00060EEA70A06B010BD0000000070470823D4
:1018B00070B5C0F8543205460E46002305F11404F5
:1018C000F2181C440C3307CA602B84E80700F5D1DA
:1018D00070BDDFED1A0AB0EE406AF0EE606A7FB5C7
:1018E000D0F8546200F114040025AE4207DCB0EEDB
:1018F000460AFEF7BBFEB0EE660A04B070BD34F8CF
:101900000C3B013500EE103AB8EE400AFEF7D4FE6B
:1019100014ED027A54ED017A20EE070AB6EE007A51
:1019200020EE070AB7EE007A77EE675A77EE877AED
:10193000E0EE256AE0EE270AD7E700BF00000000CE
:1019400008B5F0EE406AFEF79CFEF0EE407AE0EE5D
:10195000E67AE0EEA76AB0EE660AFEF787FEB0EE22
:10196000670A08BD004870472FC2059080F814141C
:1019700070470120704770470048704734C2059097
:1019800080F81414704770470048704739C20590BA
:101990008369F0EE403AF6EE080A013300EE103AA1
:1019A0002DE9F047B8EE400A04460430894604F1B8
:1019B00080072DED0A8B84B0B2EE0ACAFEF77CFEDA
:1019C000F0EE407AB0EE630AFEF750FE04F11C0020
:1019D000B0EE670AFFF7B4FF04F13000FFF7B0FF85
:1019E000F6EE040A04F14400FFF7AAFF04F15800E0
:1019F000FFF7A6FF04F1A800B0EE401A9FED8F0A92
:101A0000FEF75AFE04F1F800F0EE40BA9FED8C0AA2
:101A1000FEF752FE3846B0EE403A9FED8A0AFEF7D6
:101A20004BFEB0EE404A9FED880AFEF745FE04F1FA
:101A3000A800B0EE408A9FED850AFEF73DFE04F156
:101A4000D000F0EE401A9FED820AFEF735FEB0EEB0
:101A5000402A9FED800AFEF72FFEF0EE402A9FED10
:101A60007E0AFEF729FEF0EE404A9FED7C0AFEF763
:101A700023FE04F1F800B0EE40AA9FED790AFEF7CC
:101A80001BFE3846F0EE409A9FED760AFEF714FEF4
:101A9000B0EE409A9FED6E0AFEF70EFE04F59070D0
:101AA000F0EE408AFEF782FEDFED6F7A94F854A1E3
:101AB000E0EE0C7AB0EE670ABAF1000F40F0B780A2
:101AC000F0EE416AD4ED547AE7EE836A04F16C00DB
:101AD000DFED66AAFEF7F0FDF0EE407A9FED64BA06
:101AE000B7EE003AF6EE000AE6EEAA7AE7EE8B6A67
:101AF000B0EE660AFEF7BAFDB0EE670A3846FEF7AA
:101B0000B5FD9FED5C0AFEF7D7FDD4ED436AD4ED39
:101B1000457A04F1940033EE677A67EEA67AE7EE31
:101B2000007A94ED540AC4ED437A27EE800AFFF759
:101B300007FF04F1A80084ED460AFEF797FD04F5BF
:101B40009C70FEF733FEDFED4C7AE0EE0C7AB0EEDF
:101B5000670ABAF1000F6DD1D4ED547AA7EEAB1A33
:101B600004F1BC00F6EE000AFEF7A6FDF0EE407AA6
:101B7000E1EE2A7AA7EE8B1AB0EE410AFEF776FD67
:101B8000B0EE670A04F1D000FEF770FD9FED3B0A4E
:101B9000FEF792FDD4ED446AD4ED457A04F1E400F9
:101BA00033EE677A67EEA67AE7EE007A94ED540A90
:101BB000C4ED447A27EE800AFFF7C2FE04F1F80074
:101BC00084ED470AFEF752FD74EE8A0A34EE080AE5
:101BD00094ED466AD4ED476A9FED297A70EEE60AE5
:101BE000D9ED027A30EE460A33EE673A70EEE90A32
:101BF00030EE610A70EE890A30EE020A70EEE80AF1
:101C000030EE620A70EEC60A30EE660A60EE870AAF
:101C100020EE070A60EEA70A20EE270AE3EE230A69
:101C2000A3EE230A04B0BDEC0A8BBDE8F087DFED1C
:101C3000156A4BE79FED131A92E700BF0080BB4582
:101C400000589F450080D64300E8954500E0404598
:101C500000A048450000974300400E4400E0B64510
:101C600000A0F74400B8864500808744333333BF73
:101C70003333333F0068E0450020B7440080D4454B
:101C80003333B33E0000000080F8541121B9D0F87E
:101C90005031C0F8503170474FF07E53F9E770472C
:101CA000004870473FC205902DE9F04F054685B0CA
:101CB00000F5E6709FED457AFEF7C5FED1ED067A98
:101CC000F0EE404AF4EEC77AF1EE10FA50D49FEDF0
:101CD000407AB4EEE77AF1EE10FACCBF0226032682
:101CE0009FED3C6A05F5B67405F5F87A05F104092F
:101CF000F0EE465A0027F0EE646ADFF8E8B0484696
:101D00004FF0000808F10108B0EE660AFBEC010A8A
:101D1000FFF716FEB8F1060FF0EE406A00F114006E
:101D2000F0D12046FEF7ADFCD4ED077A94ED064ADB
:101D3000B0EE405A30EE677AE4EE077A94ED057A19
:101D4000E7EE876AC4ED077AB7EE007AB0EE660A6E
:101D5000FEF78CFCBAEC010A37EE400A20EE050AC9
:101D600047B975EE805ADFED1C7AA0EE276A09E0CC
:101D70000126B5E7012F24D1DFED187A36EE006A8F
:101D8000E0EE275A0137203409F17809BE42B2D17A
:101D900007EE906A05F5E870F8EEE77A87EE275AC5
:101DA00025EE850AFEF79CFD8DED020A26EE050A5A
:101DB000FEF796FDF0EE400A9DED020A05B0BDE883
:101DC000F08FDFED077AE0EE275ACEE7C3F5A83EA5
:101DD000C3F5283F000000003333333F9A99193F81
:101DE000CDCC4C3F70A9059080F8EC1161B9D0F8CA
:101DF000F031C0F88031D0F8F431C0F8A031D0F81B
:101E0000F831C0F8C03170474FF07E53C0F88031D0
:101E1000C0F8A031F5E770471BB913690BB1D26860
:101E200018477047042807EE902A42D0082842D06D
:101E300003284BD1A1F10E02F8EE677A9FED247AC8
:101E4000D0B267EE877A062807D803EB82011A44DE
:101E50000123C1ED007A13777047A1F11502D0B2CA
:101E6000062808D803EB81011A44012341ED0C7ABE
:101E700082F840307047A1F11C02D0B2062808D881
:101E800003EB81011A44012341ED0A7A82F86430A0
:101E9000704741291AD1B6EE007A0122F4EEC77AD2
:101EA000F1EE10FA02DD83F87220704783F8732098
:101EB0007047D9667047F82903D1012283F8702052
:101EC0007047FC2904BF012283F87120704700BFCE
:101ED0000402013CD0E902310246581A44BF53685B
:101EE000C018704770B5D1E90234A4B00646A342C9
:101EF0000D4606D19022002117F052FD304624B045
:101F000070BD90220968684602FB0411013417F085
:101F10008CFD6B68EC6090229C426946304624BF81
:101F2000E41AEC6017F081FDE8E7D0ED020AF0EE6C
:101F3000407AF5EE400A10B5F1EE10FA044626D0CC
:101F4000F5EEC00AF7EE006AF1EE10FA0DDD70EE64
:101F5000A60AB0EE007AF4EE470AF1EE10FA14D0B9
:101F6000B0EE670A17F068F90CE036EEE07AC6EEDC
:101F7000870AB6EE007AF4EE470AF1EE10FAEFD1D6
:101F800017F036FBF0EE407A01E060EE007A94ED57
:101F9000000A94ED017A37EE407AA7EE270A10BDC9
:101FA000D0ED007A90ED017A30EE670A37EE677A6D
:101FB000C0EE077AF5EEC07AF1EE10FA1BD4B7EE58
:101FC000000AF4EEC07AF1EE10FA30FE270AD0EDE6
:101FD000027AF5EE407AF1EE10FA14D0F5EEC07AFE
:101FE000B7EE007AF1EE10FA08DD77EE870AC7EE59
:101FF000200A17F021B99FED040AE8E777EE677A27
:10200000C7EE270AF3E770470000000037B5856D7B
:1020100004468DB14FF6FE72416DAA4228BF2A4692
:102020008B18AD1A43650B4B856500930023019017
:1020300008F024FA03B030BD0121043005F010F996
:10204000E36D84F86450002BF4D0206E03B0BDE83B
:10205000304018470D20049013B50E4C00218DF828
:10206000070004F1440005F0FBF804F158000021DA
:1020700005F0F6F8642301220DF1070104F1400098
:1020800008F0F2F9012104F1440005F0E9F802B08A
:1020900010BD00BF0818002470B50D4C05460E4653
:1020A000002104F1440005F0DBF804F1580001219F
:1020B00005F0D6F82946324604F14000642308F0C2
:1020C000D3F904F144000121BDE8704005F0C8B81F
:1020D000081800244FF06F4307B52A200093FFF73C
:1020E000BBFF04216846FFF7D7FF064B2B20019367
:1020F000FFF7B2FF04210DEB0100FFF7CDFF03B0A6
:1021000000BD00BF0000013F10B50446006820B1CB
:1021100062680021920017F043FC01230022C4E909
:1021200002230023236110BD0B68D1ED117A082B27
:10213000F5EEC07AA8BF0823012BB8BF0123F1EE4A
:1021400010FA2DE9F0410746C0F84C3101DCDFED13
:10215000217A0C463D4607F1A0064FF00008C7ED76
:10216000527A54F8042F2846236AC5E90023FFF762
:10217000CBFF216A284614354B1E06EE903AF8EE46
:10218000666AB0EE660AFEF75DFA07EE901AC6EDD3
:10219000086A0023F8EE677AD7ED526A0E4A87EE96
:1021A000A67A07EE908A08F10108F8EEE76AA6EC35
:1021B000017AF365D7F84C31F26307EE903A434564
:1021C000B8EEE77AC6EE877AC6ED1F7AC9DCBDE8BD
:1021D000F08100BF00803B473333333F10B50446E6
:1021E0000348FFF791FF0023A363E36310BD00BF23
:1021F0000001002410B504460348FFF785FF0023C3
:10220000E363236410BD00BF1401002438B5044605
:102210000548FFF779FF0548FFF776FF0023636560
:10222000A365E365236638BD280100243C01002432
:1022300010B50D4B04460D48C0F8503100F5A8709C
:102240000B4B4360FFF760FF002243F2390100238C
:10225000C4E90521074A6360E3602361A260E3618A
:1022600023626362A36210BD3C750AC000000024B3
:10227000803202001F42093910B504460448FFF7B6
:1022800043FF0023E36123626362A36210BD00BFCA
:102290005001002410B5164B04461648C0F86431AE
:1022A0004FF4166300F5B2704360FFF72DFF201D59
:1022B000002207EE902A002143F2390C0023B8EEE9
:1022C000E70ADFED0D7A01328360C36020EE270A52
:1022D000C0E9041C09494160FEF77BFD8168032ABF
:1022E00040F8181BE5D1A365E3652366636610BD5E
:1022F000BC4F0AC000000024910A06401F428938E2
:1023000010B504460E48FFF7FFFE43F23902E368BA
:10231000A26604226360636AA267E361E36B094A11
:1023200063630023E267A365E36523666366E36492
:1023300023656365C4F88030E3662367636710BD77
:10234000640100240000404210B50D4B04460D48C6
:10235000C0F878314FF4007300F5BC704360FFF7AC
:10236000D3FE002243F239010023C4E90521064AC5
:102370006360E3602361A260E361236210BD00BF7C
:10238000000000C000000024BFB5243810B504468A
:102390000448FFF7B9FEE36863600023E36123624A
:1023A00010BD00BF7801002438B5254D0446254BEB
:1023B00005F5C670C5F88C314FF48073C5F89031BF
:1023C000FFF7A2FE204B05F5D070C5F8A0314FF401
:1023D0000073C5F8A431FFF797FE0023002243F2F3
:1023E00039011A489FED1A0AA060206204F11C000E
:1023F0006360E3602361A362C4E90521C4E90B21A2
:10240000FEF7E7FC606A9FED120AE0611148636322
:10241000A063206504F14C00E3632364A365C4E971
:102420001121C4E91721FEF7D4FC626DA366E264B2
:102430004FF07E52E36662662367636738BD00BF74
:1024400000000024000800C0000C00C09D10773977
:10245000DB0FC93F1F42093938B504460A48FFF768
:1024600053FE0A48FFF750FEE3686360636AE36166
:10247000E36B6363636DE3640023A366E366236732
:102480006367C4F8843038BD8C010024A0010024A7
:102490002DE9F0410D4D0F1F161F044605F11008E0
:1024A00057F8042F204656F8043FC4E90023FFF7ED
:1024B0002BFEB5EC010A20461434B8EE400AFEF7B4
:1024C000C1F84545ECD1BDE8F08100BF88A9059071
:1024D0006B4B70B5436045F6C1536A4D044683604B
:1024E0000430FFF711FE05F5427304F11C00E361AF
:1024F000E6232362FFF708FE9FED630A04F11C0048
:10250000FEF7A0F805F5D46304F1300005F6581580
:102510002363AE236363FFF7F7FD9FED5C0A04F1CD
:102520003000FEF78FF84FF4197304F1440065642E
:10253000A364FFF7E9FD9FED560A04F14400FEF79E
:1025400081F8544B04F15800A3654FF4E073E36540
:10255000FFF7DAFD9FED500A04F15800FEF772F81C
:102560004E4B04F16C00E36640F24A432367FFF7E9
:10257000CBFD4B4B04F18000C4F8803041F60E4394
:10258000C4F88430FFF7C0FD464B04F19400C4F852
:10259000943040F65833C4F89830FFF7B5FD9FEDFE
:1025A000420A04F19400FEF74DF8404B04F1A800F4
:1025B000C4F8A83041F27173C4F8AC30FFF7A4FD41
:1025C0003B4B04F1BC00C4F8BC304FF4B963C4F811
:1025D000C030FFF799FD374B04F1D000C4F8D0307C
:1025E00041F69123C4F8D430FFF78EFD324B04F14D
:1025F000E400C4F8E43041F2BD03C4F8E830FFF76A
:1026000083FD9FED2E0A04F1E400FEF71BF82C4B2E
:1026100004F1F800C4F8F83041F2EC33C4F8FC30AF
:10262000FFF772FD0023002243F239002549C4F868
:102630002031C4F82831C4F82C31C4F83831C4F83A
:1026400044319FED210AC4F82411C4F83C11C4E9B7
:102650004C20C4E9522004F59C70FEF7BAFBC4F884
:102660001031C4F80C31C4F81C31C4F818314FF0E3
:102670007C53A261C4F8503184F8542170BD00BF6E
:10268000C03C03C0F81000C00000654300002D43AB
:1026900000C01844E02300C00080DF43982B03C033
:1026A00060BB02C0008E02C0007035453C3002C0E5
:1026B0001C1902C0D8AE01C0E46B01C000E0854522
:1026C000341C01C01F428938DA0FC93F70B5044677
:1026D0000430FFF719FD04F11C0504F16C06B54246
:1026E000284632D1FFF710FD04F18000FFF70CFD02
:1026F00004F19400FFF708FD04F1A800FFF704FDC2
:1027000004F1BC00FFF700FD04F1D000FFF7FCFC72
:1027100004F1E400FFF7F8FC04F1F800FFF7F4FC23
:10272000D4F82831C4F82031D4F84031C4F8383115
:102730000023C4F81031C4F80C31C4F81C31C4F8BB
:102740001831002384F8543170BD1435FFF7DCFCD8
:10275000C5E738B5054604F077FD044605F11400D9
:1027600004F072FD44EA4000C0B238BD30B585B017
:10277000002504460123ADF80C100399ADF808209C
:102780002A46009504F04EFC01232A46029904F1E2
:102790001400009504F046FC2046FFF7DAFF84F8A9
:1027A0002A5084F8280084F8290005B030BD70B59F
:1027B000064600F15C0400252046FFF7CAFF94F8A6
:1027C0002830834206D084F8280001352C34042DAB
:1027D000F2D170BD94F829209342F6D084F82930C4
:1027E00043EA8203104A52FA83F394F82A2093F8BA
:1027F000543013445BB2012B09DD0023721984F8B5
:102800002A3092F8C031013382F8C031DDE75A1C1A
:1028100002DB84F82A30D8E70023721984F82A30C2
:1028200092F8C031013BEFE744A90590D0ED007A62
:10283000F4EE407A10B5F1EE10FA04462DED048B5B
:1028400034D0F6EE007AF7EE008AB3EE048AB4EEE6
:10285000E70AF1EE10FA2CD870EE006ADFED1E7A6E
:102860009FED1E7AA6EEA77ADFED1D7AF0EE686A7C
:10287000DFED1C9A84ED000A27EE290A9FED1A9AD3
:10288000C4ED036AC4ED047A20EE090A16F062FC76
:1028900038EEC00A84ED010A28EE290A20EE090A62
:1028A00016F058FC78EEC08AC4ED028ABDEC048BA9
:1028B00010BD70EE677ADFED0D6A9FED0D7A77EE51
:1028C000A77A27EEA76AA7EEA67ADFED0A6AA6EE38
:1028D000268A78EEE76ACBE700C0F345000048435C
:1028E00000000000DB0FC9C03EC3AE3700803B468E
:1028F0000000FA4500403A450023B6EE000A436165
:10290000836193E7F8B504460430FFF7FDFB04F557
:102910001C7504F5307604F11800FFF7F5FBAE42A4
:102920000DD104F5317604F571770025D4F8103413
:102930009D4209DB04F58360BDE8F840DCE72846EA
:102940001435FFF7E1FBEAE730460135FFF7DCFB22
:102950000023143647F8043BE8E7F8B50446043092
:10296000FFF7D2FB04F51C7504F5307604F118006E
:10297000FFF7CAFBAE420DD104F5317604F571774D
:102980000025D4F810349D4209DB04F58360BDE8CE
:10299000F840B1E728461435FFF7B6FBEAE73046C2
:1029A0000135FFF7B1FB0023143647F8043BE8E795
:1029B0002DE9F0476A4DA4B004461EAE0DF178082B
:1029C0000DF160090FCD0FC605F1080795E803006A
:1029D000203586E803000FCF18AE0FC697E8030036
:1029E000002786E80300261D59F82730304658F89E
:1029F000042B0137C6E90023FFF786FBB5EC010A7B
:102A000030461436B8EE400AFDF71CFE062FEBD117
:102A1000544B4FF0000804F5B670534DC4F86C31B8
:102A200040F6A17312AE0DF14809C4F870310DF1F2
:102A3000300AFFF769FB04F5B6709FED4C0AC4F845
:102A40008881FDF7FFFD0FCD0FC605F1080795E85A
:102A50000300203586E803000FCF0CAE0FC697E8C1
:102A60000300002786E8030004F17C065AF82730AB
:102A7000304659F8042B0137C6E90023FFF744FB21
:102A8000B5EC010A30461436B8EE400AFDF7DAFD1F
:102A9000062FEBD1364B04F5C670364D06AEC4F8A2
:102AA0008C3141F2B9030DF11809C4F89031FFF7E8
:102AB0002BFB04F5C6709FED300AC4F8A881FDF722
:102AC000C1FD0FCD0FC605F1080795E803002035BD
:102AD00086E803000FCF6E460FC697E80300002775
:102AE00086E8030004F1F4065DF82730304659F813
:102AF000042B0137C6E90023FFF706FBB5EC010AFA
:102B000030461436B8EE400AFDF79CFD062FEBD197
:102B10001A4B04F5D670C4F8AC3141F2A913C4F8CD
:102B2000B031FFF7F1FA9FED160A04F5D670C4F83C
:102B3000C881FDF787FD4FF07E5304F5E870C4F8B7
:102B4000CC31FFF7D9FE002384F8EC310D4BC4F8EB
:102B5000F031C4F8F431C4F8F83124B0BDE8F0879E
:102B6000A8A90590B0DD00C0F0A9059000007A4545
:102B7000CC9A00C038AA059000C08545285400C0F2
:102B800000408D45CDCC4C3F2DE9F041054600F588
:102B9000B67700262C1D4FF00008344408F10108D8
:102BA0002046FFF7B1FA1434B8F1060FF6D17836A3
:102BB0003846FFF7A9FA0023B6F5B47F07F12007DE
:102BC00047F8043CE6D105F5E870FFF795FE0023D1
:102BD00085F8EC31BDE8F08170B5114B0446114821
:102BE0000025C0F8003100F580700F4B4360FFF7FF
:102BF0008BFA43F23902002304F11C006560E560A2
:102C00002561C4E90532094BA360FFF775FEB6EEF6
:102C1000000A04F11C00FFF709FEA563E56370BD1F
:102C20003C9D2DC000000024803202001F42093963
:102C3000D1ED057A9FED0C7A67EE877A9FED0B7ADE
:102C400038B567EE877A04460D460430C0ED017A48
:102C5000FDF7F6FD04F11C0084ED100A95ED030A62
:102C6000BDE83840E2E500BFDB0FC9403EC3AE37E8
:102C700070B5134B044613480025C0F8143100F515
:102C80008A70114B4360FFF73FFA43F23902002389
:102C900004F11C006560E5602561C4E905320B4B59
:102CA000A360FFF729FE9FED0A0A04F11C00FFF75D
:102CB000BDFD4FF07E53E563A363256470BD00BF87
:102CC0003CD324C000000024803202001F42093996
:102CD000CDCCCC3ED1ED057A9FED117A67EE877AA7
:102CE0009FED107A38B567EE877A04460D460430BA
:102CF000C0ED017AFDF7A4FD04F11C0084ED110A7A
:102D000095ED030AFFF792FDB2EE0E7AF7EE007A28
:102D1000D5ED046AE6EE877AC4ED0E7A38BD00BFC1
:102D2000DB0FC9403EC3AE37F8B51B4D04461B4B05
:102D30001B4E05F59470C5F8283104F11C07C5F841
:102D40002C61FFF7E1F9174B05F59E70C5E94F3689
:102D5000FFF7DAF943F239020023002538466560AF
:102D6000E5602561C4E905320F4BA360FFF7C4FDA0
:102D700004F13800FFF7C0FDB6EE000A3846FFF751
:102D800055FDB6EE000A04F13800FFF74FFD65650A
:102D9000A565E5652566F8BD000000243C091CC05A
:102DA000803202003C3F13C01F420939D1ED057A41
:102DB0009FED127A67EE877A9FED117A38B567EE4C
:102DC000877A0D46044604302DED028BC0ED017A62
:102DD000FDF736FD95ED038A04F11C0084ED190A18
:102DE000B0EE480AFFF722FDB0EE480A04F13800C1
:102DF000BDEC028BBDE8384018E500BFDB0FC940D1
:102E00003EC3AE37B5EEC00A70B5F1EE10FA064615
:102E10002DED028BB0EE408A01D89FED118A06F1AC
:102E2000A0050024D6F84C31A34202DCBDEC028B95
:102E300070BDB5EC010A0134DFED0A7A20EE270AF5
:102E400080EE080A16F086F9DFED077AB4EEE70A9D
:102E5000F1EE10FA77FE807AC5ED0F7AE2E700BF57
:102E60006F12833AB30CDDC072F97F3F374BF0B578
:102E7000ABB0436045F6C05304460430344D436064
:102E800004AEFFF741F9B7EE000A201DFDF7DAFBAB
:102E9000304B04F11800A3614FF48053E361FFF756
:102EA00033F905F59E7104F11800FEF700FD05F5F4
:102EB000CE730FCB86E80F0005F5D67319AD0FCB97
:102EC0008DE80F006A46314604F51C70FFF7E0FA02
:102ED000214B40F658324FF48251C4F8C0321DA83D
:102EE0001E4B10931E4B11931E4B12931E4B1393AC
:102EF00040F6A453CDE9082341F2CE233022CDE998
:102F00000A13002116F04CFD04231893174B299344
:102F100010AB0FCB85E80F0008AB21AD0FCB85E8D8
:102F20000F0018A904F53170FFF7FEF804F53170B1
:102F3000B0EE000AFFF766FF04F204430C4A04F502
:102F400083601A602BB0BDE8F040D5E4BCD808C05F
:102F500044A90590BC9808C0C2F5E83E5C6B08C067
:102F6000CC3408C0CCF307C094A807C000803B470E
:102F70009A99993E9FED147AB7EE000AD1ED017A45
:102F800067EE877A38B5B4EEE70A04460D4604309A
:102F9000F1EE10FA30FE270AFDF754FB04F531700C
:102FA00091ED000AFFF72EFFD5ED067A9FED077A27
:102FB00004F5836095ED030A67EE877AC4EDB07A75
:102FC000BDE8384032E400BF00803B473333333F35
:102FD000354BF0B59BB0436045F6C0530446043012
:102FE000324D436004AEFFF78FF8B7EE000A201DA4
:102FF000FDF728FB2E4B04F11800A3614FF4C053DA
:10300000E361FFF781F805F5DE7104F11800FEF7C2
:103010004EFC05F507730FCB86E80F0005F5D67358
:103020000FCB8DE80F006A46314604F51C70FFF7A0
:103030002FFA204B40F6DB5241F23731C4F8C03250
:10304000042304F5317008931B4B19931B4B099310
:103050001B4B0A931B4B0B931B4B0C9341F2250309
:10306000CDE9112341F23963CDE91313002308A9F7
:103070000D9315930E9316930F9317931093189324
:10308000FFF752F804F53170B0EE080AFFF7BAFE08
:1030900004F204434FF07A5204F583601A601BB0C7
:1030A000BDE8F04028E400BF943106C044A9059073
:1030B00094D105C0C2F5E83E00803B47249A05C084
:1030C0008C5905C0AC0C05C0C4B304C0DFED1F7A39
:1030D00091ED010A38B520EE270A04460D4604306A
:1030E0002DED028BB7EE008AB4EEC08AF1EE10FA35
:1030F00038FE000AFDF7A6FA91ED000A04F53170DA
:10310000FFF780FE95ED030A9FED117A78EE406A95
:10311000DFED107AE6EE877AF5EEC07AF1EE10FA7E
:1031200011D4F4EEC87AF1EE10FA38FE278A04F2D0
:10313000044304F5836083ED008ABDEC028BBDE897
:103140003840FFF773BB9FED048AF0E700803B47F0
:103150003333B33E9A99193E00000000D1ED017A55
:103160009FED237A67EE877A38B5FCEEE77A45F66D
:10317000BF5304460D4617EE902A9A4294BF8261CF
:10318000836190F8543183BBD1ED007A9FED190A29
:1031900080EE270A15F0DEFFDFED177AF4EEC07A35
:1031A000F1EE10FA30FE270AD5ED036A9FED137A8F
:1031B000DFED137A84ED540AE6EEC77AD5ED046AA2
:1031C0009FED107AC4ED457ADFED0F7AE6EE877A4F
:1031D0009FED0E7A67EE877A9FED0D7A67EE877A1C
:1031E000C4ED497AC4ED4F7A38BDB7EE000ADBE78B
:1031F00000803B4730FF66BFEC51783F9A99593FBA
:103200006666663F9A99D93F9A99993EDB0FC94005
:103210003EC3AE3791ED007ADFED337AF4EEC77A34
:103220002DE9F041F1EE10FA04460D4600F5F8766E
:103230002E4F00F5FE782DED028B37FE878A94F82D
:10324000EC31002B4DD197ED000ADFED297A20EE0D
:10325000270A80EE080A15F07DFFA6EC010AB045AA
:1032600007F10407EBD195ED038A9FED227ADFED9C
:10327000227AD4F8F031E8EE077A9FED200AB0EE1A
:10328000087AC4F88031D4F8F431C4F8A031D4F805
:10329000F831C4ED617AC4ED697AC4ED717AD5ED87
:1032A000057AC4F8C03167EE877A27EE800A15F0F8
:1032B00051FFF7EE007A9FED127A04F5E87030EED8
:1032C000670A20EE070AB2EE0E7AE0EE077AB0EE59
:1032D000480ABDEC028BC4ED737ABDE8F041FFF7FC
:1032E000A5BAB7EE000AB8E70AD7233C70AB059041
:1032F000B30CDDC09A99993E9A99193E1572313FE7
:103300008988883D2DE9F0472DED028B9AB004465F
:10331000B7EE008A2022002112A8F0EE408A16F0B3
:103320003FFBD4ED527A12AED4F84C5104F59078AC
:10333000C8EE273ADFF8C4A1B1460027BD426CDCD5
:1033400004F5807312A900221F46954200F398806D
:10335000202200210AA816F023FB3946AA000AA859
:1033600016F063FB082D40F099800A9B02A80AA979
:10337000002202930B9B03930C9B04930D9B0593DC
:103380000E9B06930F9B0793109B0893119B099329
:1033900002ABFDF7C4FA06A8FDF7C1FAF3EC017A17
:1033A0000132B0EC016ADFED526A042A37EE867A08
:1033B00077EEC67A27EE267A67EEA67AA1EC017A36
:1033C000C1ED037AEAD107EE905A0AA904F1E007A9
:1033D0000025F8EEE77A88EE277AD4F84C21AA4245
:1033E00060DC07EE902AB0EE007A12AB0021F8EE16
:1033F000E77A9FED400AC7EE270A8A4268DC01237C
:10340000DFED3C7A9A426BDC20EE200A67EEA00AE0
:103410001AB0BDEC028BBDE8F08794ED514A58ED2F
:10342000184AB5EEC04A98ED005AF1EE10FA0DDDDB
:103430009FED310A25EE000AFCF788FFE4EE004A12
:10344000B4EEE48AF1EE10FA78FE244A1420B0EECD
:10345000640A00FB0740FDF72FF9F0EE457ABAEC5D
:10346000017AA9EC010AE7EE237AF4EEC87AF1EECC
:1034700010FA01DB77EEC87A0137E8EC017A5DE7F4
:10348000D3ED007A0132B1EC017AD4ED506A37EE17
:10349000677AE6EE877AE3EC017A56E70AA8FDF749
:1034A0003EFA90E794F850317BB9D7ED007AB1EC51
:1034B000010A1420043720EE270A00FB05400135DD
:1034C000A7EE280AFDF7D2F887E7F7EE007AEEE7D5
:1034D000184602310833D0ED007A30EE270A8CE727
:1034E00096ED017A0836023377EE877A8AE700BFD5
:1034F000F304353F00000000DB0FC9407CAB0590B2
:1035000030B5044604302DED028B89B004F53075DA
:10351000FDF7ACF8FDF7B5F804F11800FEF7D9F99E
:10352000F6EE007AF0EE408A04F51C7030EE200AC8
:10353000B0EE608A20EE270A854223D104F531706F
:10354000FFF7E0FEDFED125A9FED126A04F583608B
:1035500020EE250ACDED030AA8EE860AFDF7C0F994
:10356000B0EE405A9DED030A20EE250AA8EE060AA9
:10357000FDF7B6F9F0EE400AB0EE450A09B0BDEC31
:10358000028B30BDD4EDB00AFEF7DAF91430D3E780
:103590009A99193FCDCCCC3E30B5044604302DED80
:1035A000028B89B004F53075FDF760F8FDF769F816
:1035B00004F11800FEF78DF9F6EE007AF0EE408A7D
:1035C00004F51C7030EE200AB0EE608A20EE270A67
:1035D000854223D104F53170FFF794FEDFED125AD6
:1035E0009FED126A04F5836020EE250ACDED030AF3
:1035F000A8EE860AFDF774F9B0EE405A9DED030A75
:1036000020EE250AA8EE060AFDF76AF9F0EE400A58
:10361000B0EE450A09B0BDEC028B30BDD4EDB00A66
:10362000FEF78EF91430D3E76666263F3333B33E98
:1036300010B50446442115F089FD204610BD10B593
:103640000446482115F082FD204610BD10B5044601
:10365000682115F07BFD204610BD10B504463821C9
:1036600015F074FD204610BD10B50446842115F0F8
:103670006DFD204610BD10B50446302115F066FDE5
:10368000204610BD10B50446882115F05FFD204688
:1036900010BD10B50446482115F058FD204610BD58
:1036A00010B50446DC2115F051FD204610BD10B5C3
:1036B0000446202115F04AFD204610BD10B50446F1
:1036C00040F2344115F042FD204610BD10B50446CD
:1036D00040F2344115F03AFD204610BD10B50446C5
:1036E0004FF4AC7115F032FD204610BD10B5044604
:1036F0004FF4FE7115F02AFD204610BDD1ED057A7C
:10370000021D9FED2B7A67EE877A10B5FDEEE77A02
:1037100000F14C0417EE903AC0ED1E7AA24239D166
:10372000D1ED046A032B9FED237ADFED237AE6EED9
:10373000877A91ED017ADFED216A27EE267AF7EE9E
:10374000006AC0ED1F7A37EEE66A87FE467A80EDA2
:10375000207A1ED1F0EE675A9FED195AB0EE676AD3
:10376000C0ED1D7ADFED177AE7EE455AA7EE056A40
:10377000F4EEE56A80ED1C6AF1EE10FAB4EEE76A49
:1037800076FEA56AC0ED1B6AF1EE10FA01DBC0ED12
:103790001C7A10BDD1ED007A18329FED0B7A67EEDE
:1037A000877A9FED0A7A67EE877A42ED057AB5E768
:1037B000CFF79F4000006444000040420000F04307
:1037C0009A99993E00E01545DB0FC9403EC3AE37DC
:1037D00070B51446A4B005464618AE4201D124B0D7
:1037E00070BD6A4615F8011B04F1240003F0B2F81D
:1037F0000028F2D004F1C000FEF76CFBD4F8C4300E
:10380000013B9842E9D0D4F8C8306946D4F8C000EA
:103810005A1CC4F8C820902202FB030016F005F9D8
:10382000D4E93123934224BF9B1AC4F8C830D4E7AB
:1038300070B51446A4B005464618AE4201D124B076
:1038400070BD6A4615F8011B04F1080003F082F808
:103850000028F2D004F1A400FEF73CFBD4F8A83015
:10386000013B9842E9D0D4F8AC306946D4F8A400C2
:103870005A1CC4F8AC20902202FB030016F0D5F8C5
:10388000D4E92A23934224BF9B1AC4F8AC30D4E76E
:1038900070B5F025BDF810400B4405FB01050A4842
:1038A00064BA9BB200EB4500994200D370BD00EBB7
:1038B0004206054625F8024BB542FBD1013100F521
:1038C000F07089B2F0E700BF3C6736C02DE9F74FD2
:1038D000DDF834C0013ABDF830B0019312F8014F61
:1038E00014B903B0BDE8F08FA4F12005DCF8047032
:1038F0009CF80090EDB25F2D9CF8015028BF3F244A
:10390000203C14FB05F40D4407EB4407ACB20094D3
:103910000C46009B9C4201D14844DFE74FF0F00E7B
:1039200037F802AB00260EFB04FEF5B24D4502D37C
:103930000134A4B2EDE70AFA06F5019B15F4004F35
:1039400000EB0605ADB20CBFD8469846EF2D08D85F
:10395000B4F5A07F3FBF98FA98F87544024B23F85E
:1039600015800136E1E700BF3C6736C008B50B4A59
:103970000B4B0C498B4208D10B4B00210B4A934255
:1039800008D116F02BF800F0CBF852F8040B43F8EE
:10399000040BEFE743F8041BF1E700BF1CC30590DD
:1039A0000000002404180024081800241CA7012487
:1039B000034613F8012B002AFBD1181A013870476F
:1039C00001F0FF01102A2BDB10F0070F08D010F8D0
:1039D000013B013A8B422DD010F0070F42B3F6D1D4
:1039E000F0B441EA012141EA014122F007047FF0ED
:1039F00000070023F0E80256083C85EA010586EA44
:103A0000010685FA47F5A3FA87F586FA47F6A5FA7F
:103A100087F68EB9EED1F0BC01F0FF0102F007028B
:103A200032B110F8013B013A83EA010313B1F8D136
:103A30000020704701387047002D06BF3546033817
:103A4000073815F0010F07D1013015F4807F02BF50
:103A5000013015F4C03F0130F0BC0138704700BFA1
:103A600053B94AB9002908BF00281CBF4FF0FF31E5
:103A70004FF0FF3000F00CB8ADF1080C6DE904CE4A
:103A800016F092FDDDF804E0DDE9022304B0704792
:103A9000704700BF0348044B834202D0034B03B17D
:103AA0001847704704180024041800240000000080
:103AB0000548064B1B1AD90F01EBA301491002D090
:103AC000034B03B11847704704180024041800245E
:103AD0000000000010B5064C237843B9FFF7DAFF69
:103AE000044B13B10448AFF300800123237010BDD1
:103AF0009C43012400000000E0C2059008B5054B7E
:103B00001BB105490548AFF30080BDE80840FFF749
:103B1000CFBF00BF00000000A0430124E0C2059019
:103B2000D84D0021002605F1A8002C462DE980483B
:103B3000ADF2CC6D01F0FAFB302105F1A80001F0E7
:103B400023FB032105F1A80001F002FB40F601432D
:103B500040F602209FEDCC0AADF8403040F602332B
:103B6000ADF8480005F58E701099ADF84430DDE9E8
:103B7000112302F06BFE40F6062240F6063105F5F1
:103B8000BC70ADF84C20ADF85010DDE91312FEF713
:103B9000EDFD40F2014240F2015105F5D270ADF861
:103BA0005420ADF85810DDE91512FEF7DFFD40F6A0
:103BB00006124FF4007105F5E870ADF85C20ADF821
:103BC0006010DDE91712FEF7D1FD40F6016240F604
:103BD000017105F5FE70ADF86420ADF86810DDE9FF
:103BE0001912FEF7C3FD40F602129FEDA70A05F574
:103BF0000A70ADF86C201B9902F080FF40F60202BB
:103C00009FEDA10A05F51370ADF870201C9902F024
:103C100075FF40F601029FED9C0A05F51C70ADF89A
:103C200074201D9902F06AFF40F601129FED960A7A
:103C300005F52570ADF878201E9902F05FFF01238D
:103C400040F2CF72FEA905F536708DF80434CDF838
:103C50000024CDE9FE3606F073FE772105F53670B7
:103C600006F0E2FE05F58E72884905F5367006F01D
:103C7000E1FE05F5367006F0C5FE854B03F1440202
:103C80002B606A6003F18C02F433AA60EB6055F894
:103C9000040B013603689B689847042EF7D17D4BCF
:103CA00000257D4E03F184026361A26103F1B40239
:103CB000E26103F59E72226203F5C27203F5187386
:103CC0006262A36256F8040B013503689B6898474B
:103CD000062DF7D1714B0025714E03F23442E36299
:103CE000226303F6680203F51C636263A36356F85C
:103CF000040B013503689B689847042DF7D140F603
:103D00000243002501226748ADF834302B460D9957
:103D1000009503F087F90223624E0122ADF8383096
:103D20002B460E9906F11400009506F13C0703F0AE
:103D300079F94FF44073012206F12800ADF83C30C8
:103D40002B460F99009503F06DF90135304617F8B1
:103D5000011B143603F084FA032DF6D1524EFEAD4A
:103D6000524F0DF57E7E4FF00009DFF8488107F1D4
:103D7000140CC7F8C490C7F8048087F8C890C7F837
:103D8000109087F8C99087F8CA900FCE0FC596E8B3
:103D9000070085E80700BEE80F00C7E90299ACE814
:103DA0000F0095E807008CE8070006F10C0C0DF5F4
:103DB0007E7E2836BCE80F00AEE80F009CE80700C6
:103DC0000DF57E7E07F1300C85E80700BEE80F0098
:103DD000ACE80F0095E807008CE807000FCE0DF562
:103DE0007E7C87F86890ACE80F0096E807000DF538
:103DF0007E7C07F14C0685E80700BCE80F000FC683
:103E000095E8070086E8070007F11401582207F13A
:103E10006C0027AD15F009FE3B1D207C2EAEE36340
:103E2000FCF764FA3878FCF749FA97F8FC00FCF7DD
:103E300073FA284602F07AFD0227CDF80494CDF8F3
:103E4000087495E80F001A4D86E80F004BAE85E820
:103E50000F0086E80F000146104647F61222FF9138
:103E6000CDF810240122CDF80024CDF80C24B2881E
:103E7000ADF8FA23F288C5E90503ADF8F823FBB1E4
:103E80001AE000BF0818002400000000AF270490CB
:103E90005C020024880300241C1800240806002467
:103EA00034180024E81A0024D8AB05900000002440
:103EB000F8200024B01800241A46494615F070FD79
:103EC000FEA9CA4807F06CFDC94802F011FE05F5CD
:103ED00010434FF44072C74800250126A3F8602123
:103EE000D3F8601102F014FFC34802F001FE40F263
:103EF00001630122C148ADF87C302B461F99009523
:103F000003F090F840F201730122BD48ADF8803013
:103F10002B462099009503F085F840F603330122E3
:103F2000B848ADF884302B462199009503F07AF813
:103F30004FF480730122B448ADF888302B462299A3
:103F4000009503F06FF80121AC4803F089F90121D5
:103F5000AD4803F085F9AD4BFEA9AD48FE9303F5DE
:103F60000073CDF80054FF930823CDF80454CDF826
:103F70000C34CDF80864CDF81064CDF81464CDF895
:103F80001854CDF81C6406F0D1F931469D4803F071
:103F900067F90A2008F04CF829469A4803F060F9BE
:103FA0000A2008F045F83146964803F059F9782080
:103FB00008F03EF83046FEF74FF8962008F038F843
:103FC0001120FEF749F84FF4FA7008F031F8552344
:103FD0003A208DF82C31FEF73FF831464BA8FEF71A
:103FE0005BF80A2008F024F836208DF82C51FEF7F3
:103FF00033F831464BA8FEF74FF82120FEF72CF896
:104000004FF06F432A204B93FEF726F804214BA86C
:10401000FEF742F87F4B2B204B93FEF71DF804214F
:104020004BA8FEF739F81320FEF716F80A2007F020
:10403000FFFF2920FEF710F8642007F0F9FF4FF486
:1040400016322946744815F0ABFCFEAA023500264C
:104050000232B5F5F07F02F8026C02F8016CF5D17E
:10406000FEF738F82C20FDF7F7FF4FF4A077314624
:10407000624803F0F5F80121614803F0F1F8642388
:104080004FF4F072FEA9624806F0EEF9013FF6D156
:1040900001215A4803F0E4F84FF4337239464BA833
:1040A00015F07EFC01255D4B4FF433724BA95C4843
:1040B0004B93C4F82083C4F8C078ADF8305115F0A4
:1040C000B4FC4FF433724BA9564815F0AEFC4FF4D4
:1040D000FE015548C4F8241304F0C4FB03685A1EBB
:1040E000AA4240F250844FF433724E49FFA8C4F8FC
:1040F000C058FE9515F099FCD4E9C80104F0B2FB54
:10410000054608F03FF920B14FF43471284607F016
:10411000C9FE4FF43372291D424816F035FA70B1CA
:10412000D4F82413D4F8200301F5347204F0ACFA67
:10413000FEAB4FF43472D4E9C80104F09FFAB4F82E
:10414000FA3500223949C4F8C8380123364884F8C2
:10415000C438374BC3F8E0103649C3F8DC20C3F845
:10416000F0103549C3F8EC20A3F8F420C3E9392254
:1041700000F0EAFF07F05AFF044672B62EAA0023A9
:1041800016462E4DE818013390F8DC12042B49B284
:1041900042F8041B4FF0000180F8DC12F1D162B646
:1041A00005F58E7002F080FB05F50A7002F0BCFC8C
:1041B00005F5137002F0B8FC05F51C7002F0B4FCB4
:1041C00005F5257002F0B0FC3368C5F8BC327368A1
:1041D000C5F8C032B368C5F8C432F368C5F8C83250
:1041E00095F8203163B3D5F8743129E00821002413
:1041F0001C2100245CB2002460B200244C1800246E
:1042000060180024741800248818002400050B008E
:10421000481800240000013F3C6736C0544C554DFF
:10422000301B0024FC1D0024B01800240000F042C4
:10423000F8100024000080BF29040490081800240E
:10424000C5F8B83295F8403195F82821A3F1FF0E52
:10425000802B14BF002202F00102DEF1000385F87A
:10426000CC2243EB0E0395F8442285F8CD3295F825
:104270002C327F2A14BF002303F0010395F8682233
:1042800085F8CE3295F850327F2A14BF002303F010
:10429000010395F88C2285F8CF3295F874327F2A85
:1042A00014BF002303F0010395F8B02285F8D03243
:1042B00095F89832002B00F07083A2F17F00A2F1F4
:1042C000800C41424141DCF1000343EB0C03FF2A27
:1042D00085F8D23285F8D1120CBF0123002385F86E
:1042E000D33240F05C8307F0A1FE07EE900A95ED13
:1042F000AD7AF8EE677A77EEC77ADFF80CA4FCEEB9
:10430000E77A4FF000080AF1130B0AF14F09C5EDE7
:10431000B57A1AF8013F43B199F80010584681F078
:10432000010189F8001002F09BFF08F1010809F172
:1043300001090BF1140BB8F1030FEAD195F8CC3257
:104340004BB1D5F8CC38013393FBF8F202EB4202C3
:104350009B1AC5F8CC38D5F8B832002B19D0D5F84F
:10436000CC38CCBF01224FF0FF32012B00F01A8372
:10437000022B00F02A8363B9287C0623104490FBAB
:10438000F3F203FB1200431C08BF0520C0B2FBF789
:10439000ADFFD5F8CC18002900F02B83BE4AA2F15E
:1043A0001C03012918BF134695F8CDE205F52E78B8
:1043B000BA49002003EB0E1301EB0E1158F8042F3D
:1043C000002A40F018830130043304310428F5D169
:1043D00095F8D1327BB1B24BD3F8DC10002900F351
:1043E0007D834A1C03EB8101012AC3F8DC20C1F85C
:1043F000CC4000F38B8395F8D33263B1D5F8D43237
:10440000B3F5FA7F07D995F8EC3823B9012085F880
:10441000EC08FBF7CBFF95F8D23263B1D5F8D43274
:10442000B3F5FA7F07D895F8EC3823B1002085F86A
:10443000EC08FBF7BBFF742200213046DFF8CC927A
:1044400015F0AEFA4FF0FF334846F36607F0A4FBD1
:10445000B0B909F11400A9F1100802F049FB914B21
:1044600014214846C8F82030C8F81C8007F004FD25
:10447000CDF8009048468C4BD8E9051207F004FBB4
:104480008A48FDF727FD002840F07683884802F02F
:1044900089FC50B9874802F02BFB854802F086FC66
:1044A000854A8649101D02F06FFC8548FDF712FD14
:1044B000002840F06F83784B32460DF1D30107207E
:1044C000A3F11C0EA3F1380C11F8018FB8F1000F05
:1044D00003D0D2F80080CCF8008091F82480B8F1A5
:1044E000000F03D0D2F82480CEF8008091F84880E5
:1044F000B8F1000F03D0D2F84880C3F8008001382B
:1045000002F1040203F104030EF1040E0CF1040C99
:10451000DAD196F8723023B1012085F8EC08FBF768
:1045200045FF96F8733023B1002085F8EC08FBF7BF
:104530003DFF96F870205A4B3AB1D3F8EC20013287
:10454000172A00F23583C3F8EC2096F87110002981
:1045500000F04B8300225B4983F8F420C3F8F0108D
:10456000C3F8EC20C3F8E42093F8F5204AB1D3F85F
:10457000E82032B1A21AB2F5FA6F84BF002283F8A4
:10458000F52093F8F420002A00F04383D3ED3C9A01
:10459000F5EEC09AF1EE10FA40F34783F7EE007A99
:1045A00087EEA98A484A494EA2F10C00484D337C57
:1045B00095ED6D0A052B18BF1046FDF7B6FC454872
:1045C000B0EE409A95ED6E0AFDF7AFFC4248F0EE72
:1045D00040FA95ED6F0AFDF7A8FC4048B0EE40FAAE
:1045E00095ED700AFDF7A1FC3D48F0EE40EA95ED2F
:1045F000710AFDF79AFC3B48B0EE40EA95ED720A6D
:10460000FDF793FC3848F0EE40DA95ED730AFDF7BC
:104610008CFCB5EEC08AB0EE40DAF1EE10FA01DDA6
:10462000B0EE489A314895ED740AFDF77EFC3048AB
:10463000F0EE408A95ED750AFDF777FC2D48F0EE17
:1046400040CA95ED760AFDF770FC2B48B0EE40CAE3
:1046500095ED770AFDF769FC2848F0EE40BA95ED34
:10466000780AFDF762FC2648B0EE40BA95ED790A6B
:10467000FDF75BFC23488DED060A95ED7A0AFDF700
:1046800054FCF5EEC09AB0EE408AF1EE10FA3FDD30
:10469000F0EE698A3CE000BFEC010024D820002441
:1046A000F8100024D1370490191E0490B82100247A
:1046B0005CB2002460B2002458B200243138049067
:1046C000FCB20024000080BFA8AB059008180024AD
:1046D000000000242CAC059038AC059044AC05904B
:1046E00050AC05905CAC059068AC059074AC05903E
:1046F00080AC05908CAC059098AC0590A4AC05906E
:10470000B0AC0590BCAC0590D51A0024082100245B
:1047100095F8FC2095ED7B0A002A00F08982D34BA6
:1047200003F10C00032A08BF1846FDF7FEFBD04832
:104730008DED070A95ED7C0AFDF7F7FBCD488DED71
:10474000080A95ED7D0AFDF7F0FBCB48F0EE40AA94
:1047500095ED7E0AFDF7E9FBC848B0EE40AA95ED5D
:104760007F0AFDF7E2FBC648F0EE409A95ED800A1D
:10477000FDF7DBFBC3488DED090A95ED810AFDF7D6
:10478000D4FB96F8EC8896F81CE396F81DC396F8CF
:104790001E038DED0A0AEFF3108172B6D5F8C4201E
:1047A0004FF05809B84BC2F10102DDED067A09FB62
:1047B0000233C3ED107ADDED077A83ED049AC3ED81
:1047C000127ADDED087AC3ED05FAC3ED137ADDED5B
:1047D000097A83ED06FAC3ED177ADDED0A7AC3EDA7
:1047E00007EA83ED08EAC3ED09DA83ED0ADAC3EDDF
:1047F0000B8AC3ED0CCA83ED0DCAC3ED0EBA83ED6F
:104800000FBA83ED118AC3ED14AA83ED15AAC3ED87
:10481000169AC3ED187A83F8648083F865E083F80C
:1048200066C083F86700012385F8C83001B962B615
:10483000E31B202B7FF69EAC96F8A43003F0FF0517
:10484000002B40F06E83914B2946D6F8CC781A782D
:1048500096F810B093F8FC8096F8EC388C4E0B93D9
:1048600006EB470304928B484FF41632B3F8CC336F
:10487000039315F095F806F5737306F575760593B1
:1048800005EB8500059BBD424FEA001033F802ABF3
:1048900080B2059300F11A091FFA89F940F0CA8124
:1048A000502214230021CDF800A0FEF7F1FF32685A
:1048B0003AB1794BCDE900A3002305214846FFF723
:1048C00005F801350436032DDAD1002F40F0BC8104
:1048D000BBF1050F00F2CD816D4B03EB8B03D3F8D9
:1048E000E023002A40F0C681002543F250136B4EAE
:1048F0004FF6FF7923AA1821C020ADF88C304FF66F
:10490000FF738DF88E50CDE90056FEF7DFFFF022E1
:10491000012327212846CDF80090FEF7B9FF012397
:10492000FA212846CDF80090FEF7B2FFCDF80090AE
:1049300001234FF48C7128460DF19C09FEF7A8FF66
:10494000002F00F0B581012F40F0EE825448B0EE08
:10495000680AFDF725FB534889ED000AB0EE6C0AA2
:10496000FDF71EFB504889ED010A89ED02CA9DED55
:10497000060AC9ED03BA89ED04BAFDF711FB4B4BEA
:1049800089ED050AB4E1011D4FF433724848C4F8BB
:10499000C03815F04AF8FFF7D2BB194697E4DFEDAF
:1049A000487AAAE4394B1B7813445A4203F00303B4
:1049B00002F0030258BF5342B3F1FF3F18BF9846BD
:1049C0005FFA88F0FBF77AFCE3E4304B93F8FC30B5
:1049D00013445A4203F0030302F0030258BF534248
:1049E000B3F1FF3F18BF98465FFA88F0FBF794FCDD
:1049F000CFE4304BD8E400EB8E0CBCF1070F3FF452
:104A0000E7AC002AD4BF4FF0FF394FF00109002A6C
:104A1000B8BF5242D1F800C0013ABCF1000F57D0E4
:104A2000A4EB0C0CDFED247A9FED247ABCF1290F66
:104A300028BFF0EE477A07EE109AF8EEC76A93EDBA
:104A4000007AA6EEA77AB5EEC07AF1EE10FA42D45B
:104A5000F7EE007AB4EEE77AF1EE10FA77FE877A95
:104A6000C3ED007A0C60002AD4D1ACE4C0AB059051
:104A7000C8AC0590D4AC0590E0AC0590ECAC0590CA
:104A8000F8AC059004AD059004000024000000245B
:104A900044A905903C6736C05815002460150024D1
:104AA00074AC059068AD059074AD0590400200248B
:104AB000FC1D0024B4010024CDCC4C3D0AD7233C7E
:104AC0000000000000606A470000204200007043C0
:104AD0005FED067AAFE75FED067AC1E703EB81028F
:104AE000D2F8C820A21AB2F5FA6F3BD803297FF793
:104AF00078ACD3F8D020C3F8CC20D3F8D420C3F8B6
:104B0000D020D3F8D820C3E935240A46013AD3F897
:104B1000CC0003EB8201D1F8CC10091A07EE901AF1
:104B2000B8EE677A07EE902AF8EEE77AC7EE276AC2
:104B30001FED1C7AC7EE267A1FED1D7AF4EEC77AB8
:104B4000F1EE10FA10DB1FED1F7AF4EEC77AF1EEEA
:104B500010FA09D8C3ED387A0122C3F8E84083F887
:104B6000F52048E400213CE4D3ED387AF5EEC07A34
:104B7000F1EE10FAF0DC3EE44BA84349FDF7B2F940
:104B800033469DF835219DF834119DF82C01FDF731
:104B900049F975E4FEA83D49FDF7A4F933469DF8AF
:104BA00001249DF800149DF8F803FDF73BF97CE41F
:104BB0000022C3F8EC20D3F8E4209AB1A21A40F600
:104BC000D861A2F1C80088420CD807EE902A9FED68
:104BD000307A0122F8EEE77A83F8F42067EE877ADC
:104BE000C3ED3C7AC3F8E440AFE493F8F420002A24
:104BF0003FF4BAACD3F8E420002A3FF4B5ACA21AD3
:104C0000B2F5FA6F82BF234A83F8F410C3F8F0209C
:104C1000AAE493F8F52032B1D3ED387A9FED1E7AED
:104C2000C7EE279AB4E4FFEE009A9FED1C8AB9E420
:104C30001B487AE53268002A3FF443AE194B0193D2
:104C400000230093534638E6012F09D1049B032B20
:104C50000FD8049A144B03EB8203D3F8F82340E6F1
:104C6000B8F1030F05D8104B03EB8803D3F80824E1
:104C700037E60E4A0B4B15210420019300230093C5
:104C8000039BFEF723FE2FE6B8210024FCB200248C
:104C90006F12833A000080BF0000704200000000E5
:104CA000B4AB05905815002444A9059046C2059060
:104CB000BE4DB0EE490AA5F10C00BBF1050F18BFBF
:104CC0002846FDF76DF905F5DA7089ED000AB0EEBA
:104CD0004D0AC9ED01FA89ED02FAC9ED03EA89ED41
:104CE00004EAC9ED05DAFDF75BF9B0EE408AB04B96
:104CF000A3F1040A322589ED068A5AF8042F52B12D
:104D0000AC4B691C04200193002389B200934FF639
:104D1000FF73FEF7DBFDB9EC017A691EB5EEC07AD0
:104D200089B2F1EE10FA00F12E81F7EE007AB4EEBE
:104D3000E77AF1EE10FA77FE877A039B9C225020E7
:104D40009FED9D7A00930123FEF7A2FD039B05F1E1
:104D50000C0150200093012389B2FEF799FD039BBB
:104D600001222946502000930C23FEF791FD039B5E
:104D70002946EB2000930C23FEF78AFD67EE877A25
:104D8000FCEEE77A17EE903A9AB2002A40F0FE80E5
:104D9000C2F19A0102F1510000238AB22946009320
:104DA00080B20C23FEF774FD1E35ADB2B5F5827FDF
:104DB000A3D10B9B5BB17F4B40F205117F4A0420CE
:104DC0000193002300934FF47843FEF77FFDBBF17E
:104DD000050FDFF82CA2DFF82C924FF0000597BFEB
:104DE000774B784A03EB8B03D3F8E02324AB1A60AC
:104DF000049A032A9BBF724A0499724A02EB810209
:104E000098BFD2F8F823B8F1030F5A6097BF6C4AE5
:104E10006C4A02EB8802D2F808249A6005EB850000
:104E200019F8013B0001039304301FFA80FB002BAB
:104E300000F0B780644B4FF6FF7833F81530AF427F
:104E400008BF98465AF8042B42B15A495846019176
:104E50000021009140F21D11FEF738FD24AB53F8FC
:104E600025204AB1534B4FF49571584601930023C6
:104E700000934346FEF72AFD039B4BB944F20823F7
:104E800048224FF49771584600930123FEF700FD26
:104E90000135032DC2D100274C4D4FF495714FF0D1
:104EA00001084FF6FF734A4A4C2001960097FEF71F
:104EB0000DFD4FF6FF73464A9C20CDE90076FEF7C4
:104EC00005FD85F8A48005F14006C5E92777FDF7C3
:104ED00001F9394605F1440002F0C2F9394605F1FD
:104EE000580002F0BDF92C23424627A98DF89C30CA
:104EF0003046642305F0B8FA414605F1580002F047
:104F0000AFF9344B4FF6FE723349C5F89430304652
:104F1000324BC5F89830324B019600933B4605F072
:104F2000ADFA2746FFF726B9B8F1000F29D02D4B6F
:104F300003F10C00B8F1030F08BF18469DED070AF6
:104F4000FDF72EF8284889ED000A9DED080AFDF7C7
:104F500027F8264889ED010AC9ED02AA9DED090A44
:104F600089ED03AAC9ED049AFDF71AF8204889EDE6
:104F7000050A9DED0A0AFDF713F81E4BB0EE408AB4
:104F8000B6E61D48DAE7DFED1D7AD6E6039B294633
:104F9000512000930C23FEF77BFC992A3FF604AFC7
:104FA000F6E644F2082398464CE700BFA8AB05900C
:104FB000080200246015002400001A4348C205902E
:104FC00044A9059046C2059010AD0590081800242C
:104FD0004DC205903A6737C03C6736C002580100A1
:104FE0000D200490C0AB059080AD0590F8AC059005
:104FF00004AD059024020024B4AB0590000000002D
:1050000018AD0590241B0024F8B54B4C6FF0F41339
:105010000021042504F1D000C4F8BC10C4F8C81065
:10502000C4E92A13C4E92C33FBF73FF904F1E40087
:10503000FBF73BF904F58070FBF737F904F5967040
:10504000C4F81811FBF731F904F5BC7104F5A4702C
:10505000FBF72BF904F5AE70FBF727F90846FBF7D1
:1050600024F901F11400FBF720F90023013D01F1BF
:105070002C0101F8043C01F8033C01F8023CEDD19D
:1050800004F50A71032601F108002431FBF70DF93C
:10509000013EF8D129483146294DFBF706F907466C
:1050A00020221C3014F07CFC2846C4F8D862C4F8D6
:1050B000DC6201F03BFC05F1D003224940F20F72A3
:1050C0002E61C5F8C03040F20113C5F8B8104FF496
:1050D0004070A5F8BC20C5F8CC602664C5E931361F
:1050E00005F51045C5E97F1205F505720321C5E9EF
:1050F0005806A7F51670C5E98123C5E98366FBF755
:10510000D4F8A7F51170FBF7D0F8A7F50C70FBF7F2
:10511000CCF8A7F50770FBF7C8F807F1440084F84E
:10512000A460C4E92566C4E92766FBF7BEF8013927
:1051300000F11400F9D1F8BD08180024A41A0024C5
:10514000F82000240080707F143001F04DBB00BFB8
:1051500030B5054683B0143001F0F2FA05F11400C1
:1051600001F0EAFA05F114008DED010A01F0D2FA1E
:10517000D0ED007A9DED010AF8EE677A80EE277A8D
:1051800085ED1B7A03B030BD30B5054683B01430D1
:1051900001F0C4FA05F1140001F0CEFA05F1140093
:1051A0008DED010A01F0B6FAD0ED007A9DED010A0D
:1051B000F8EE677A80EE277A85ED1B7A03B030BD72
:1051C00000B540F203308FB000224FF60B7340F26F
:1051D0000341ADF80800009209A8ADF81030ADF811
:1051E00024300123ADF80C10029907920C92CDE9FE
:1051F0000522CDE90A2201F015FF002204A80123AF
:105200000399009201F00EFF09A802F01DF810B9F1
:1052100001200FB000BD04A802F016F880F00100D4
:10522000C0B240000FB000BDF0B503239DB0012512
:10523000002416934FF60B77384B0646ADF85470A2
:105240001393A3F19F631294A3F57D431995CDE9C0
:1052500017541493FFF7B4FFA8423CD002282AD178
:105260002F4B2A460094CDF8523040F60133ADF86A
:105270003470ADF82030234608991094CDE91A45D2
:105280000DAD2846CDE90E4401F0CCFE214628465E
:1052900001F0E6FF12A906F1700003F0DDFE214BDC
:1052A0000FCB85E80F00326F294606F1140001F09C
:1052B000F7F91DB0F0BD40F60132194B06F1580068
:1052C0001B95ADF820200DAD08991A94CDF85230F9
:1052D00000F0A2F8DEE71022114908900DAD8DF81C
:1052E0003020114ACDF8521008A90A900390099273
:1052F0000B940494CDE91A0404A802F029F90821BA
:10530000039B2846079105A9049AADF814308DF83F
:10531000164006930D9400F0BDF8BBE704020404A8
:1053200004060403BCAF05900704010B70B540F2FE
:10533000011284B0374B0446ADF80C2000220291D4
:10534000012599888DF80E201A89E180228199899A
:105350001A8A18886181A281998A1A8D9B8DE181B0
:10536000A3872285A0802582E562256407F00AF8DC
:10537000064606F05FFE034610BB0EB302A904F119
:1053800050008DF80E5006F07FFF072E3AD12046D0
:10539000FFF74AFF04F1140001F0CEF904F1140004
:1053A0008DED010A01F0B6F9D0ED007A9DED010A0C
:1053B000F8EE677A80EE277A84ED1B7A04B070BD30
:1053C00002A904F15000019306F05EFF072E019B35
:1053D00002D1002BDBD006E0211D2046019303F013
:1053E00073F8019B9BB104F12801084601F00AFD06
:1053F00004F13C01084601F005FD04F1120000F043
:1054000067F9C4E7211D204603F05EF8BFE7002ED0
:10541000E9D0BCE7A4AF059010B584B000230446E2
:105420000122ADF80C100093039901F0FBFD01215E
:10543000204601F015FF012006F0FAFD002120466C
:1054400001F00EFF012006F0F3FD0121204604B01B
:10545000BDE8104001F004BFC2F3002CFA2300B5F0
:1054600087B04CEA410C017C8DF8152005AA009309
:1054700002238DF814C002F003F918B10123184675
:1054800007B000BD03900A2006F0D2FD039B18462A
:1054900007B000BD034630B5044685B043F8042B81
:1054A000FA2507C983E80700A1791E23009503AAFE
:1054B0001A31ADF80C3020460223C9B2217402F033
:1054C000DFF810B1012005B030BD0A2006F0B0FDB4
:1054D0004FF4B85200950223ADF80C20204603AAE1
:1054E000217C02F0CDF80028ECD10A2006F0A0FDC6
:1054F00041F2027200950223ADF80C20204603AA67
:10550000217C02F0BDF80028DCD10A2006F090FDD5
:10551000042200950223ADF80C20204603AA217C2A
:1055200002F0AEF80028CDD10A2006F081FD062257
:1055300000950223ADF80C20204603AA217C02F03E
:105540009FF80028BED10A2006F072FD41F2082221
:1055500000950223ADF80C20204603AA217C02F01E
:105560008FF80028AED10A2006F062FD4FF00A0243
:1055700000950223ADF80C20204603AA217C02F0FE
:105580007FF800289ED10A2006F052FD23790C22D4
:105590000095002B217C8DF80C20204614BF62233F
:1055A00042236A448DF80D30022302F069F8002886
:1055B00088D10A2006F03CFDA36800952046E268E9
:1055C000217C1343627943EA4213227982F001027B
:1055D00043EA82130E228DF80D3002238DF80C2041
:1055E00003AA02F04DF800287FF46CAF0A2006F001
:1055F0001FFD102200950223ADF80C20204603AABF
:10560000217C02F03DF800287FF45CAF0A2006F010
:105610000FFD122100950223ADF80C1003AA217C86
:10562000204602F02DF800287FF44CAF0A2006F047
:10563000FFFC01220921204605B0BDE83040FFF7FC
:105640000BBF00BF70B586B000240125102602A94B
:105650004FF480521C480194CDE90256CDE9045420
:105660000EF018FF642007F051F9022302A94FF44D
:105670008052154802930594CDE903650EF00AFFA8
:10568000042302A94FF480520F480396CDE9043455
:10569000032302930EF0FEFE40F23223042202A9FD
:1056A0000948019310230495CDE90223019B4FF48F
:1056B000805205930EF0EEFE40F6060102480EF011
:1056C0000BFF204606B070BDC4430124000000005B
:1056D00030B51F4B89B00822DFF878C000214FF4A5
:1056E00000641A614FF0020E03920A22C3F804C04C
:1056F0004FF0200C06924022054699600320196263
:1057000010215C620124C3E905C24FF4C072DC6061
:10571000DA6107229FED0C7BCDE900E20422CDE99E
:1057200004016946181D029283ED0A7B0EF088FE83
:1057300028B9284609B0BDE83040FFF783BF2046AE
:1057400009B030BDAFF30080001000000000000081
:10575000C0430124404100525E4A0023F0B5146862
:105760008FB00A93002C40F0B2805B4B01210326DE
:105770000C2511600227D3F8D420584842F48052F7
:10578000C3F8D420D3F8D42002F480520092009AB7
:10579000D3F8E02042F01002C3F8E020D3F8E02074
:1057A00002F010020192019AD3F8E02042F0400288
:1057B000C3F8E020D3F8E02002F040020292029AFF
:1057C000D3F8E02042F00802C3F8E020D3F8E0204C
:1057D00002F008020392039AD3F8E02042F48072A8
:1057E000C3F8E020D3F8E02002F480720492049A17
:1057F000D3F8E02042F08002C3F8E020D3F8E020A4
:1058000002F080020592059AD3F8E02042F02002CF
:10581000C3F8E020D3F8E02002F020020692069AB6
:10582000D3F8E02042F00402C3F8E0204FF6837280
:10583000D3F8E0300B9603F004030C950793022392
:10584000079908A9CDE9082308F0F2FD48F23713BB
:1058500008A9234808930C950997CDE90A4608F052
:10586000E7FD4CF2037308A91E480893CDE90974BB
:10587000CDE90B6508F0DCFD40F2FF6308A91A488A
:105880000893CDE90974CDE90B6508F0D1FD4FF619
:105890000C7308A915480893CDE90974CDE90B6587
:1058A00008F0C6FD4FF63F0308A911480893CDE95B
:1058B0000974CDE90B6508F0BBFD202308A90B484E
:1058C00009970C950893CDE90A4608F0B1FD0FB091
:1058D000F0BD00BFB8430124004402580010025834
:1058E00000180258000C025800200258001C0258F0
:1058F000001402582DE9F04F8BB08346C8480D467E
:1059000000AF144603F0A6FCC64BD3E90621002ADB
:1059100000F00A82002940F09280D3F80480082128
:105920004FF002094269B8F1000F00F09280A10027
:10593000EA46012A01F1070121F00701ADEB010D53
:105940006846ADEB010D694600F0F581022A00F0D2
:105950007382002A40F0E581002C00F0E281D3ED53
:105960000C6A86469FEDB07A0BF1040C5E4636F960
:1059700022900EF1080E07EE909A3CF92290023226
:10598000F8EEE77A944267EE877A67EEA67A4EEDF4
:10599000027A07EE909AF8EEE77A67EE877A67EE7A
:1059A000A67A4EED017AE2D822467962C0479D4B35
:1059B0000022796A93ED0D6A281DDFED9C6A9C4EEA
:1059C0009FED9C7ADFED9C5AD1ED007A334666EE6E
:1059D000277AF4EEE67AF1EE10FA0CD9F4EEC77AF3
:1059E000F1EE10FA67FE277A67EEA57AFDEEE77A08
:1059F00017EE903A1BB2D1ED017A45F8223066EEEF
:105A0000277AF4EEE67AF1EE10FA40F20682F4EE2E
:105A1000C77A0831F1EE10FA67FE277A67EEA57AA9
:105A2000FDEEE77A17EE903A1BB240F822300232D0
:105A30009442C9D8D5462C37BD46BDE8F08FD3F87F
:105A4000048010214FF004094269B8F1000F7FF47F
:105A50006EAF1868F8610028EDD07848C7F818D004
:105A6000C7E9081203F064FCB9F1020F6D4BF8604E
:105A7000D7E9081200F069826846C4F35D0C012A78
:105A8000A0EBC40085464FEA5400EE46B860AEEB8A
:105A9000C40085460EEB8C006E46ADEB010DC7E9E8
:105AA00000E006EB8C003E616E46ADEB010D7861C7
:105AB0000EEB8C003146C6F800E0706000EB8C06FF
:105AC000796278698E60396900EB8C0A06EB8C008C
:105AD000C7F820D0009179693861CDE9011A0AEB45
