:02000004900466
:10000000000002201D3E0490A1020490FDC3049054
:10001000A1020490A1020490A1020490000000003B
:10002000000000000000000000000000A102049099
:10003000A102049000000000A102049081C304907A
:10004000A1020490A1020490A1020490A1020490D4
:10005000A1020490A1020490A1020490A1020490C4
:10006000A1020490A1020490A1020490ED930490D7
:10007000F9930490A10204900594049011940490C3
:1000800011BC04909D790490A1020490A1020490F7
:10009000A1020490A1020490A1020490A102049084
:1000A000A1020490A1020490A1020490A102049074
:1000B000C1AD0490CDAD0490D9AD0490DD7904902C
:1000C000A1020490E9790490A102049019A404907B
:1000D00025A4049021BA049051BA049089BA0490DE
:1000E000A1020490A102049000000000A10204906B
:1000F000A1020490A1020490A1020490A102049024
:10010000A1020490A1020490E5AD049031A40490F2
:10011000C1BA0490F9BA0490A1020490A10204901B
:10012000A1020490A102049055A4049095A4049007
:1001300051BC0490A1020490A1020490A102049079
:1001400000000000000000000000000000000000AF
:10015000A1020490A1020490A102049031BB04907A
:10016000F5790490A102049091C30490B5C3049062
:10017000A1020490D9C30490A1020490A1020490AA
:10018000A1020490A102049069BB0490A1BB049059
:100190003DA4049049A40490A1020490A1020490FB
:1001A000A1020490A1020490A1020490A102049073
:1001B000F18F0490A1020490A1020490A102049086
:1001C000A1020490A1020490698C0590758C0590A1
:1001D000A1020490818C0590A1020490A1020490D8
:1001E000A1020490A1020490A1020490A102049033
:1001F000A1020490A1020490A1020490A102049023
:10020000A1020490A1020490A1020490A102049012
:10021000A1020490A1020490A1020490A102049002
:10022000A1020490A1020490A10204900000000029
:10023000A1020490A102049000000000A102049019
:10024000A1020490A1020490A1020490A1020490D2
:10025000A1020490A1020490A1020490A1020490C2
:10026000A1020490A1020490A1020490A1020490B2
:10027000A1020490A1020490D9BB049000000000E8
:10028000A1020490A1020490A102049000000000C9
:0802900000000000A10204902F
:1002A000684620F007018D46FEE700234FF60B72EB
:1002B000C0E90233C0E900237047704770B5094EAA
:1002C0000446094D287056F820000368DB689847FB
:1002D00056F82420EFF3108372B6EA6003B962B6D1
:1002E00070BD00BF081900240000002410B5084CA0
:1002F000207404EB800460690368DB6898476169D7
:10030000EFF3108372B6034A916003B962B610BD71
:10031000081900240000002438B5094C094D04EBED
:10032000800485F8FC00E06A0368DB689847E26AAD
:10033000EFF3108372B62A6103B962B638BD00BF0D
:10034000081900240000002470477047DFED137A7D
:10035000B7EE007AB4EEE70AF1EE10FA1BDD30EEEC
:10036000670AFFEE006A9FED0E6AB4EEC60AF1EE70
:1003700010FA01DD37EEC00A20EE006ADFED095AFF
:1003800020EE260ADFED086AE6EE656AA6EEC67A7A
:1003900027EE000A7047F0EE476AE4E7DB0F4940BA
:1003A000DB0FC93F8588083CABAA2A3EEFF31082D9
:1003B00072B6044B012183F8CA0083F8C91002B950
:1003C00062B6704700000024D0ED007AF4EE407A67
:1003D00008B5F1EE10FA20D0DFED127A80ED000AB8
:1003E00020EE275A37EEC50AFFF7B0FF81ED000A6D
:1003F000B0EE450AFFF7AAFF82ED000AD1ED007AC0
:1004000030EE270AF7EE007AB4EEE70AF1EE10FAC2
:1004100004DD87EE807A83ED007A08BDB0EE677A5E
:10042000F9E700BFDB0FC93F854B2DE9F04FDC6BCF
:10043000834689462DED028B87B00192002C6FD048
:1004400094F8C43043B1D4F8C03083F00103C4F849
:10045000C030002384F8C43094F8C5304BB1002379
:10046000E06884F8C53020B1036894F8C610DB69F1
:100470009847D4F8C060582504F1D40304F1D002A1
:10048000754304F1CC0104F1C800671905F11008A7
:1004900097ED060AA044FFF797FF04F1E40304F187
:1004A000E00204F1DC0104F1D80097ED0D0AFFF73A
:1004B0008BFF04F1E80004F1F40304F1F00204F10D
:1004C000EC0197ED140AFFF77FFF606830B197F8F1
:1004D00065301BB1036841461B69984705F12C073D
:1004E000A068274448B1582303FB064393F86630BD
:1004F0001BB1036839461B6998474835E0686319A2
:10050000009348B1582303FB064393F867301BB1AF
:10051000036800991B6998470025019BAB4204D1F1
:1005200007B0BDEC028BBDE8F08FDBF800204FEA8E
:10053000850A606802EB850292ED008A00287CD073
:10054000582202FB064292F86520002A75D0026804
:10055000B0EE480AF0EE480A8DED048A8DED058A6A
:10056000414652699047D4ED347A8DED020A27EE68
:10057000800AD4ED336A67EEA07A94ED357ACDED3A
:10058000030AA8EE260AE8EE267A60EE078A27EE2E
:10059000878AA06808B3582202FB064292F86620B8
:1005A000DAB10268B0EE680A39465269904794EDB4
:1005B000388A8DED020A28EE000A94ED377A28EE8B
:1005C000208AD4ED397ACDED030AA8EE870AA8EE89
:1005D000878A60EE278A28EE278AE06808B35822C7
:1005E00002FB064292F86720DAB10268B0EE680AB0
:1005F00000995269904794ED3C8A8DED020A28EEED
:10060000000A94ED3B7A28EE208AD4ED3D7ACDEDB8
:10061000030AA8EE870AA8EE878A60EE278A28EEEA
:10062000278AD9F8002001355244C2ED008AD9F852
:100630000420524482ED008A6FE7F0EE488AA8E772
:1006400008190024FCEEC07A426817EE903AB8EE22
:10065000677A012B30EE470A38BF01239A4280EDBA
:10066000040A98BF02F1FF33C360704783680268D1
:1006700002EB830282ED000A03B94368013B836009
:100680007047D0E9023290ED047A134442689A42EE
:1006900098BF9B1A591C8A4298BF891A026802EBBC
:1006A000830302EB810293ED000AD2ED007A77EE2C
:1006B000C07AA7EE870A7047FCEEC07A426881686C
:1006C00017EE903AF8EE677A9A4270EE677A98BF22
:1006D00002F1FF330B449A4298BF9B1A591C8A427D
:1006E00098BF891A026802EB830302EB810293ED43
:1006F000000A92ED007A37EE407AA7EE270A70479B
:1007000008B5062846D8DFE800F004071E2B32455E
:100710003900BDE8084019E69FED207ADFED207A28
:10072000B4EEC70A60EE277AF1EE10FA06D5B7EEFE
:10073000007A77EEC77AB0EE670A08BDB0EE087AA5
:1007400077EE677AF7E7DFED157ABFEE007AF4EE21
:10075000C07AF7EE007AF1EE10FA77FE877AEAE7D0
:10076000FFEE007A9FED0F7AE0EE077AE3E7F7EE0F
:10077000007A9FED0C7AE0EE477ADCE7FFF7E6FDC2
:10078000B5EEC00A60EE007AF1EE10FAD3DAF1EEBF
:10079000677AD0E7DFED047ACDE700BFDB0F494091
:1007A00083F9223F83F9A23E00000000024600695F
:1007B000052892ED005A08B514D192ED030AD2ED46
:1007C000017A75EE277AC2ED007ADFED1A6AF4EE4F
:1007D000E67AF1EE10FA0ADAF5EEC07AF1EE10FAE6
:1007E00016D408BDB0EE450AFFF78AFFE7E7516966
:1007F00077EEE67A1048114BC2ED007A00FB013328
:1008000007EE103A5361BAEEE07A82ED037ADCE744
:10081000516977EEA67A0848084BC2ED007A00FBD2
:10082000013307EE103A5361BAEEE07A82ED037AB3
:10083000D2E700BFDB0FC9400D6619005FF36E3CC5
:1008400002460069052892ED005A08B518D192EDCC
:10085000030AF0EE457AD2ED016A9FED1D7AE6EECD
:10086000877AC2ED007ADFED1B6AF4EEE67AF1EEEC
:1008700010FA0ADAF5EEC07AF1EE10FA16D408BDD5
:10088000B0EE450AFFF73CFFE3E7516977EEE67A01
:100890001148124BC2ED007A00FB013307EE103A0B
:1008A0005361BAEEE07A82ED037ADCE7516977EEC4
:1008B000A67A0948094BC2ED007A00FB013307EE26
:1008C000103A5361BAEEE07A82ED037AD2E700BFC4
:1008D00000004042DB0FC9400D6619005FF36E3C1B
:1008E000D0ED057A90ED017A30EE670AD0ED026A1C
:1008F000E7EE007A90ED060A37EEC07AC0ED057A91
:10090000A6EE870A90ED047A80ED060A37EEC00A5B
:1009100020EE070A90ED037AA7EE870A7047D0ED24
:10092000007AB6EE006AD0ED014A90ED025A37EE39
:10093000A47AD0ED035A77EEE47A75EE076A37EEC3
:10094000457A76EEA56A37EE657A66EE866A27EE18
:10095000067AC0ED006A75EE276A77EEC57A80EDFB
:10096000027A76EEE56A77EEA57A66EE866A67EE3B
:10097000867AC0ED016AC0ED037A7047D0ED007A47
:10098000B0EE407A90ED016A70EE677ADFED056AAD
:1009900080ED007AE6EE267AB0EE670AC0ED017AC5
:1009A000704700BF52B87E3F0048704713D705908C
:1009B000B3EE0E7AD1ED067AD1ED006AB0EE406A60
:1009C000B7EE000A67EE877A90ED107A30B567EEE1
:1009D000877A9FED197A85B004460D46E6EE877A50
:1009E000F4EEC07AF1EE10FA07D49FED140AF4EE9B
:1009F000C07AF1EE10FA30FE270A1148FFF722FE06
:100A0000FFF73FFE04F11C00FFF76AFF95ED017A46
:100A1000F0EE407A0A48A7EE006AB0EE460AFFF709
:100A200025FEB0EE670A04F13800FFF7A7FFF0EEED
:100A3000400A05B030BD00BF00803B47C09F0C4856
:100A4000000100247047D0ED007A20EE270AF7EE6F
:100A5000007AB4EEE70AF1EE10FA07DCFFEE007A56
:100A6000F4EEC07AF1EE10FA77FE807AB0EE080A62
:100A7000A7EEE70A60EE277A9FED020A27EE800ACA
:100A8000704700BFABAAAA3E004870471BD705902D
:100A90009FED2E7AF7EE005AD1ED067AB0EE406A5D
:100AA000D1ED006A67EE877A90ED117A30B567EE86
:100AB000877A9FED277A85B004460D46E6EE877A61
:100AC000F4EEE57AF1EE10FA3AD49FED220AF4EE54
:100AD000C07AF1EE10FA30FE270A1F48FFF7B2FD88
:100AE000FFF7CFFD04F11C00FFF7FAFED5ED047A05
:100AF00004F1380077EEA57A27EE800AFFF7A3FF0E
:100B0000D5ED017AB0EE407AA7EE806AB4EEE56AE0
:100B1000F1EE10FA17DCFFEE007AF4EEC67AF1EE91
:100B200010FA37FE860A0C48FFF7A0FDB0EE470A20
:100B300004F13C00FFF722FFF0EE400A05B030BDA3
:100B4000B0EE650AC9E7B7EE000AECE700004842DC
:100B500000803B47C09F0C481401002470470148A7
:100B6000704700BF20D70590B0EE405ADFED367ACF
:100B700091ED000A90ED197A20EE270A91ED066AB0
:100B8000F6EE007A30B5E7EE277A04462F4885B0B6
:100B90000D46F0EE676AF5EE007AE6EEA77AB0EE63
:100BA000677AF7EE007AE6EE077A9FED297A67EE2C
:100BB000807AF4EEC77AF1EE10FA77FE276AFFF733
:100BC00041FD1430B0EE660AFFF73CFD1438FFF724
:100BD00058FDF0EE406A1430FFF753FDF0EE405A36
:100BE00004F11C00B0EE660AFFF77AFE04F138004B
:100BF000B0EE406AB0EE650AFFF772FEF0EE405AC2
:100C0000B0EE450AD5ED017A1048A7EE860AFFF747
:100C10002DFDA7EEA55A1430B0EE450AFFF726FDCC
:100C2000B0EE460A04F15400FFF7A8FEB0EE405AB9
:100C300004F15C00B0EE650AFFF7A0FEF0EE400A9A
:100C4000B0EE450A05B030BD00803B4728010024C6
:100C5000C09F0C4870470148704700BF25D70590DA
:100C6000D1ED057A9FED2D7ADFED2D4A67EE877A7B
:100C700038B567EEA47A0D4604460430C0ED017A1B
:100C8000FFF7DEFD9FED277AD5ED007AF0EE406AA2
:100C900084ED0B0A67EE877A9FED230A2348F4EE72
:100CA000C07AF1EE10FA30FE270AFFF7CBFC95ED83
:100CB000065A9FED1F7A66EE856ADFED1E7A9FED7C
:100CC0001E0AE6EE877AF4EEC07AF1EE10FA07D447
:100CD0009FED1A0AF4EEC07AF1EE10FA30FE270A00
:100CE000DFED177A20EE270A20EE240AFFF72EFB0D
:100CF00030EE000ADFED137A9FED137AB4EEE70AC7
:100D0000F1EE10FA77FE807AC4ED0C7AF0EE007AFC
:100D1000E5EE477AC4ED0D7A38BD00BFDB0FC94060
:100D20003EC3AE3700803B47C09F0C4850010024B3
:100D30000000FA440000C8430000204200401C4666
:100D4000DB0F49409A99D93F9A99F93F30B504464B
:100D500085B01E48B0EE406A0D46FFF792FCD4ED18
:100D6000097AD4ED0D5A94ED0A7AA5EEE70AD4ED8E
:100D70000C6A30EE470AE6EE807AA6EEA77AC4ED5A
:100D8000097AF7EE007AB4EEE77A84ED0A7AF1EEAA
:100D900010FA07DCFFEE007AF4EEC77AF1EE10FAF3
:100DA00077FE877A95ED017A0848A7EE276AB0EEBC
:100DB000460AFFF75BFCB0EE670A04F11C00FFF780
:100DC000DDFDF0EE400A05B030BD00BF500100244B
:100DD0007047B4EE400AF1EE10FA0DD1DFED127A51
:100DE000B4EEE70AF1EE10FA06DCDFED107AB4EEAD
:100DF000E70AF1EE10FA04D59FED0D0A0DE030EE92
:100E0000670ADFED0C7AB4EEE70AF1EE10FAF6DAD3
:100E1000B5EEC00AF1EE10FA02D480ED020A704776
:100E200030EE270AF4E700BF00247449002474C997
:100E300000000000DB0FC940004870472CD7059028
:100E400030EE200AD0F88410F6EE003AF0B520EE2D
:100E5000230A87B00446D9BBD0ED256AB2EE026AF8
:100E600090ED247AD0ED137AA6EE870ADFED8B6A37
:100E7000426F8B4B30EE670AE0EE267AB0EE677A6F
:100E8000C0ED137AD0ED147A37EE677AE7EE267A62
:100E9000DFED846AC0ED147A834800FB023307EE6D
:100EA000103A6367BAEEE07A27EE267ADFED7F6AC2
:100EB000E7EE267AB3EE0B7AF0EE476A27EE866A03
:100EC000E7EEA76AA7EE867A66EEA76A86EE870A3D
:100ED0007748FFF7CBFB012951D1261D04F1780596
:100EE00004F18407D4ED224A304694ED234AFFF7FB
:100EF0005DFCB0EE647AF7EE007AA4EE007AB4EE10
:100F0000E77AF1EE10FA07D4DFED6A7AB4EEE77A09
:100F1000F1EE10FA77FE877AE5EC017AAF4206F13E
:100F20001806DFD1624894ED1E0AFFF7C5FBF0EE0C
:100F3000405A94ED1F0AFFF7BFFBF0EE406A94EDB4
:100F4000200AFFF7B9FB75EEA66A75EE805A66EEC9
:100F5000A36A65EEA35AB0EE660A04F16400FFF7D7
:100F60000DFDB0EE405A04F16C00B0EE650AFFF7DB
:100F700005FDF0EE400AB0EE450A07B0F0BD0329CA
:100F80000CD194ED1E0AFFF797FBF0EE406A94ED4A
:100F90001F0AFFF791FBF0EE405ADCE7F7EE004A3C
:100FA00094ED224A94ED233A201D002959D1F0EE08
:100FB000442AFFF7FBFB04F11C00E0EE032AFFF7D5
:100FC000F5FBA0EE034AF4EEE42AF1EE10FA42D467
:100FD0009FED380AF4EEC02AF1EE10FA30FE220A34
:100FE000B4EEE44AF1EE10FA38D49FED326AB4EE72
:100FF000C64AF1EE10FA36FE046A2D48FFF75CFB94
:10100000D4ED157ADFED255AF0EE406A30EE677ABE
:101010009FED295AE7EE257AC4ED157A70EE677ACE
:10102000B0EE460AE7EE856AFFF746FBD4ED187A84
:1010300030EE677AE7EE257AF0EE405AC4ED187A82
:1010400070EE677AE7EE855A75EEA67A67EEA37AB8
:10105000C4ED247A7FE7B0EE640AC1E7B7EE006A18
:10106000CBE7FFF7A3FBA0EE034AB4EEE44AF1EEB0
:1010700010FA0FD49FED0F0AB4EEC04AF1EE10FA49
:1010800030FE040A0A48FFF717FBF0EE406AF0EE64
:10109000405A60E7B0EE640AF4E700BF6666E63ED9
:1010A0005FF36E3C9A99193E0D6619006F12033B6F
:1010B0006401002400E015459A99993E7047014863
:1010C000704700BF33D70590F8EE087AB4EEE70A10
:1010D000F1EE10FA15D9F0EE087AB4EEE70AF1EE67
:1010E00010FA11DA60EE006AF3EE0B7AB2EE026AE1
:1010F00036EEA77AE6EE867A27EE007A87EE270AA2
:101100007047BFEE000A7047B7EE000A7047D1ED96
:10111000007A9FED197A67EE877A9FED187A67EE6D
:10112000877A9FED177AC0ED027AC0ED087AD1ED8B
:10113000057A67EE877AFDEEE77A17EE903A052B8F
:1011400010D8DFE803F003140B160B164FF07E5295
:101150000C4B43654B68C265836570474FF07E5208
:10116000094BF6E7012B4FF07E52F9DCF0E7074A16
:10117000EEE7064AF4E700BFDB0FC9403EC3AE37D7
:10118000CFF7BF40000070430000E643000080BF7F
:1011900030B5044687B004300D46CDED030A8DED21
:1011A000020AFFF703FB04F11C00F0EE404AFFF7D0
:1011B000FDFAB6EE007AF7EE007A94ED165AD4ED09
:1011C000155AB0EE476A4148F0EE676AA4EE876AA6
:1011D000A0EE077A26EE056A27EE057AE6EE256A86
:1011E000B0EE676AA5EE876A9FED397AF4EEE67A8B
:1011F000F1EE10FAF4EEC67A37FEA60AF1EE10FA16
:1012000077FE867AF4EEC77AF1EE10FAB4EEC70AEA
:1012100067FE276AF1EE10FA27FE000AFFF74CFA84
:101220001430B0EE404AB0EE660AFFF745FAD5ED4D
:10123000045ADFED287AF0EE404AD4ED173A14381C
:1012400065EEA75A24EE250A20EE230AFFF73CFF9D
:10125000B0EE405A24EEA50A20EE230AFFF734FF31
:1012600094ED117AD4ED127A35EE475AD4ED146A22
:10127000A7EE857AD4ED137A30EE670AE6EE807A2F
:101280009DED020A84ED117A37EE000AC4ED137A5F
:10129000FFF7ECF99DED030A143037EE800AFFF7F3
:1012A000E5F904F13400B0EE440AFFF767FBF0EE15
:1012B000405A04F13C00B0EE640AFFF75FFBF0EE29
:1012C000400AB0EE650A07B030BD00BF78010024C7
:1012D0000080FF433333733F7047D0ED066AF0EE72
:1012E000407A90ED056A70EE665A90ED035AB0EEC2
:1012F000660AD0ED024A25EE257AA6EE050A90EDA3
:10130000045AA4EE867AA5EE250AF0EE005A80ED86
:10131000087A97EE256AD0EE256A80ED070A80EDFF
:10132000056AC0ED066AD0ED016AE6EEC77A77EE8F
:10133000C07AC0ED097A77EE807AC0ED0A7A7047FC
:10134000F7EE006AD0ED007A90ED017AB0EE666AB1
:1013500037EE877AA7EE876A86EE867A80ED027A84
:1013600027EE877A67EE877A80ED037AC0ED047AFC
:1013700070470148704700BF3BD7059091ED047A54
:1013800030EE800ADFED5F7AB6EE004AB4EEE77A1F
:1013900020EE040AF1EE10FA10B504462DED028B92
:1013A00086B002DD6430FFF74EFB04F17800FFF7F2
:1013B00094FF201DD4ED254AD4ED273AFFF7F6F926
:1013C00004F11C00B0EE408AFFF7F0F904F134009C
:1013D000F0EE400AFFF7EAF904F14C00B0EE401AD3
:1013E000FFF7E4F94848F0EE401ADFED486AB0EE46
:1013F000630AFFF73BF994ED426AB0EE660AE6EE47
:10140000206AA6EE080AFFF757F9B0EE402AB0EEC0
:10141000660ADFED3F6AFFF74FF91430F0EE402A1D
:10142000B0EE640AFFF722F994ED436AB0EE660A63
:10143000E6EE216AA6EE010AFFF73EF9B0EE403A69
:10144000B0EE660AFFF738F904F1A400F0EE403A76
:10145000B0EE420AFFF741FF04F1D000B0EE620A9D
:10146000FFF73BFF94ED317ADFED2A7AB0EE446A64
:10147000B0EE445AD4ED416AA7EE272A94ED3C7AA7
:10148000A8EE046A04F16800E7EE272A9FED227AAD
:10149000F7EE007AA0EE845A26EE877AF0EE675ACD
:1014A000E6EE665AB0EE676AA5EE666AB0EE445A9A
:1014B000F0EE676AA1EE045AE5EE476AB0EE445AD0
:1014C000A1EE845A23EE263AA2EE253AE5EE477ABB
:1014D00023EE040A63EEA73AE2EE863AFFF74EFAED
:1014E000F0EE405A04F1700063EE843AB0EE630A05
:1014F000FFF744FAF0EE400AB0EE650A06B0BDEC24
:10150000028B10BD0AD7A33CA00100240000F042CA
:10151000000070439A99993E9A99193F7047014883
:10152000704700BF42D705900368DB68184730B5A5
:10153000044687B004300D4690ED004AF6EE004AAE
:101540008DED020ACDED030AFFF730F9DDED037AE8
:1015500022469DED027ADFED4D6A37EE277AD5ED12
:10156000047A4B4B67EEA67AD4ED186A03F11001AA
:10157000D5ED012A03F1200067EEA67A0D46E7EECD
:10158000247A9FED447A27EE877A27EEC77AE7EE32
:10159000877AB0EE675AB3EC010A9FED3F3A30EE1E
:1015A000040AB4EEC30AF1EE10FA01DB30EE430A8E
:1015B000FEF7CCFEF0EE646AF0EE005AB0EC016A81
:1015C000B0EE087AF1EC017AE0EE246A22EE866A47
:1015D000A6EEE57A66EEA63AFFEE006A27EE237ADB
:1015E000E7EE256A9FED2D7AE6EE267AF4EEC77ACD
:1015F000F1EE10FA07DC9FED2A7AB4EEE77AF1EE0D
:1016000010FA37FE277AD2ED083AF0EE457A9D427D
:1016100082ED077AE7EE053A02F10802E7EE637A17
:10162000C2ED067A2ED1DFED1F7A34EE270AB4EE32
:10163000C30AF1EE10FA01DB30EE430AFEF786FE34
:10164000E0EE244A9FED187AF7EE007A9FED170A34
:1016500004F1440027EE627AE4EE877AB4EEE70AFA
:10166000F1EE10FA30FE270A20EE230AFFF738F9D0
:1016700004F13C00FFF782F9F0EE400A84ED180A0D
:1016800007B030BDB0EE635A85E700BF3333333F58
:101690007CBA05900AD7233DDB0FC9400AD723BC8B
:1016A000A4707DBFDA0FC93F8FC2F53DCDCCCC3DD4
:1016B00070470148704700BF47D705900368DB6853
:1016C0001847002203461C499FED1C0A10B54260D2
:1016D00043F23904C26002610020996019629A6283
:1016E000C3E90504C3E90B0403F11C00FFF771FB18
:1016F000596A03F1B400D96103F13401814218D170
:10170000C3F8B4204FF03F41C3F8B820C3F8BC2061
:10171000C3F8C020C3F8C820C3F8CC20C3F8D02039
:101720000422C3F8C410C3F8D420002283F8D820C0
:1017300010BD4A600831E1E71F428938DB0FC93F1D
:10174000D1ED007A9FED1D7AD1ED036A67EE877ABD
:101750009FED1B7A67EE877A9FED1A7AC0ED027AC9
:10176000C0ED087AD1ED057A67EE877A9FED167A9B
:10177000FDEEE77A17EE903ADFED147AE6EEC77ADF
:10178000052B9FED137AD4BF00220122062B80F88F
:10179000D820A8BF06230F4AF1EE677A23EAE37345
:1017A000C0ED317A02EB8303D1ED017A1B6B67EE5A
:1017B000877AC0F8D430C0ED327A7047DB0FC94069
:1017C0003EC3AE37CFF7DF409A99593F3333733F6B
:1017D000CDCCCC3E7CBA0590DFED5F7AF0EE402AAE
:1017E000D1ED044A9FED5D2A64EEA74A10B5044688
:1017F00086B00430FEF7DAFF94ED313AD4ED321AB8
:10180000F0EE403AF0EE437AE1EE807AF4EEC27AFE
:10181000F1EE10FA76DC9FED524AB4EEE74AF1EEB3
:1018200010FA34FE274A94F8D83072EEA00AF6EE89
:10183000002A002B6CD004F11C00FEF7B7FFB0EEBD
:10184000437AA1EE807AB4EEC27AF1EE10FA5CDC53
:10185000DFED437AF4EEC77AF1EE10FA77FE877A7D
:1018600094ED330A234694ED347A04F1200124EEFA
:10187000800A224664EE875AA0EEA20AE0EEA25A3F
:10188000D2ED0E6AB0EE407A82ED0D4A0832E0EEFB
:10189000046AA4EE667AB0EE660A82ED0C7A914292
:1018A000EED1D3ED166AB0EE657AC3ED157A083342
:1018B000E5EEA76AA7EEE67AF0EE665A83ED147AB3
:1018C0009942EED104F1B400FFF758F804F1BC00DE
:1018D000B0EE405AB0EE650AFFF750F8F7EE007A26
:1018E00084ED340A84ED335A73EEA73A63EEA23ADC
:1018F00077EEE37A27EE800AA5EE230AF0EE400A9F
:1019000006B010BDB0EE424A8DE7DFED147AA7E7CE
:10191000D4ED337A04F13402D4F8D41024EEA70ABB
:10192000A0EEA20A994206DC04F1B400FFF726F803
:1019300084ED330AE2E710460832013380ED004AB5
:1019400052ED017AE4EE007AA4EE670A02ED010A94
:10195000B0EE670AE6E700BF3333733F0AD723BC14
:10196000A4707DBF70470148704700BF4ED70590F7
:101970000368DB681847002343F239024360C36001
:1019800003610023C0E90532024B83604FF07C53B2
:10199000C36170471F42093AD1ED057A9FED0D7A78
:1019A00067EE877AFDEEE77A17EE903A13B1012BD6
:1019B00018BF0623D1ED007A9FED077A436167EEE9
:1019C000877A9FED067A4B6867EE877AC361C0ED30
:1019D000027A70479EEF3F40DB0FC9403EC3AE37EF
:1019E00010B586B004460430CDED030A8DED020A31
:1019F000FEF7DCFEF6EE007AD4ED076AB7EE007A69
:101A0000DDED030AE0EE277A9DED020AA6EEE77A05
:101A1000DFED067AF4EEC77AF1EE10FA77FE877AF8
:101A200020EE270A60EEA70A06B010BD00000000F5
:101A30007047082370B5C0F8543205460E4600239F
:101A400005F11404F2181C440C3307CA602B84E817
:101A50000700F5D170BDDFED1A0AB0EE406AF0EE76
:101A6000606A7FB5D0F8546200F114040025AE42DC
:101A700007DCB0EE460AFEF7F9FDB0EE660A04B0E8
:101A800070BD34F80C3B013500EE103AB8EE400A58
:101A9000FEF712FE14ED027A54ED017A20EE070AE9
:101AA000B6EE007A20EE070AB7EE007A77EE675AB4
:101AB00077EE877AE0EE256AE0EE270AD7E700BFE7
:101AC0000000000008B5F0EE406AFEF7DAFDF0EE27
:101AD000407AE0EEE67AE0EEA76AB0EE660AFEF73C
:101AE000C5FDB0EE670A08BD0048704757D705909E
:101AF00080F8141470470120704770470048704701
:101B00005CD7059080F81414704770470048704700
:101B100061D705908369F0EE403AF6EE080A01338A
:101B200000EE103A2DE9F047B8EE400A04460430C2
:101B3000894604F180072DED0A8B84B0B2EE0ACA03
:101B4000FEF7BAFDF0EE407AB0EE630AFEF78EFDC6
:101B500004F11C00B0EE670AFFF7B4FF04F1300097
:101B6000FFF7B0FFF6EE040A04F14400FFF7AAFF06
:101B700004F15800FFF7A6FF04F1A800B0EE401AE8
:101B80009FED8F0AFEF798FD04F1F800F0EE40BAE1
:101B90009FED8C0AFEF790FD3846B0EE403A9FED7F
:101BA0008A0AFEF789FDB0EE404A9FED880AFEF7EB
:101BB00083FD04F1A800B0EE408A9FED850AFEF790
:101BC0007BFD04F1D000F0EE401A9FED820AFEF793
:101BD00073FDB0EE402A9FED800AFEF76DFDF0EE3A
:101BE000402A9FED7E0AFEF767FDF0EE404A9FED2A
:101BF0007C0AFEF761FD04F1F800B0EE40AA9FED0B
:101C0000790AFEF759FD3846F0EE409A9FED760AC4
:101C1000FEF752FDB0EE409A9FED6E0AFEF74CFDC6
:101C200004F59070F0EE408AFEF7C0FDDFED6F7AAC
:101C300094F854A1E0EE0C7AB0EE670ABAF1000F06
:101C400040F0B780F0EE416AD4ED547AE7EE836A53
:101C500004F16C00DFED66AAFEF72EFDF0EE407A8F
:101C60009FED64BAB7EE003AF6EE000AE6EEAA7A05
:101C7000E7EE8B6AB0EE660AFEF7F8FCB0EE670A94
:101C80003846FEF7F3FC9FED5C0AFEF715FDD4ED38
:101C9000436AD4ED457A04F1940033EE677A67EE37
:101CA000A67AE7EE007A94ED540AC4ED437A27EE63
:101CB000800AFFF707FF04F1A80084ED460AFEF74B
:101CC000D5FC04F59C70FEF771FDDFED4C7AE0EE7B
:101CD0000C7AB0EE670ABAF1000F6DD1D4ED547AE8
:101CE000A7EEAB1A04F1BC00F6EE000AFEF7E4FC26
:101CF000F0EE407AE1EE2A7AA7EE8B1AB0EE410AB6
:101D0000FEF7B4FCB0EE670A04F1D000FEF7AEFCBB
:101D10009FED3B0AFEF7D0FCD4ED446AD4ED457A42
:101D200004F1E40033EE677A67EEA67AE7EE007A14
:101D300094ED540AC4ED447A27EE800AFFF7C2FE00
:101D400004F1F80084ED470AFEF790FC74EE8A0A6D
:101D500034EE080A94ED466AD4ED476A9FED297A7D
:101D600070EEE60AD9ED027A30EE460A33EE673AB3
:101D700070EEE90A30EE610A70EE890A30EE020A6E
:101D800070EEE80A30EE620A70EEC60A30EE660ABD
:101D900060EE870A20EE070A60EEA70A20EE270A07
:101DA000E3EE230AA3EE230A04B0BDEC0A8BBDE8E0
:101DB000F087DFED156A4BE79FED131A92E700BF3E
:101DC0000080BB4500589F450080D64300E89545FC
:101DD00000E0404500A048450000974300400E4405
:101DE00000E0B64500A0F74400B88645008087446F
:101DF000333333BF3333333F0068E0450020B7440B
:101E00000080D4453333B33E0000000080F8541105
:101E100021B9D0F85031C0F8503170474FF07E539F
:101E2000F9E770470048704767D705902DE9F04FF4
:101E3000054685B000F5E6709FED457AFEF703FE96
:101E4000D1ED067AF0EE404AF4EEC77AF1EE10FAE0
:101E500050D49FED407AB4EEE77AF1EE10FACCBFA1
:101E6000022603269FED3C6A05F5B67405F5F87A5F
:101E700005F10409F0EE465A0027F0EE646ADFF837
:101E8000E8B048464FF0000808F10108B0EE660AD5
:101E9000FBEC010AFFF716FEB8F1060FF0EE406A00
:101EA00000F11400F0D12046FEF7EBFBD4ED077AE9
:101EB00094ED064AB0EE405A30EE677AE4EE077AC7
:101EC00094ED057AE7EE876AC4ED077AB7EE007AFB
:101ED000B0EE660AFEF7CAFBBAEC010A37EE400A1A
:101EE00020EE050A47B975EE805ADFED1C7AA0EEA8
:101EF000276A09E00126B5E7012F24D1DFED187A22
:101F000036EE006AE0EE275A0137203409F17809ED
:101F1000BE42B2D107EE906A05F5E870F8EEE77AB6
:101F200087EE275A25EE850AFEF7DAFC8DED020AC8
:101F300026EE050AFEF7D4FCF0EE400A9DED020AFB
:101F400005B0BDE8F08FDFED077AE0EE275ACEE767
:101F5000C3F5A83EC3F5283F000000003333333FEC
:101F60009A99193FCDCC4C3FC8BA059080F8EC1136
:101F700061B9D0F8F031C0F88031D0F8F431C0F850
:101F8000A031D0F8F831C0F8C03170474FF07E531F
:101F9000C0F88031C0F8A031F5E770471BB913696C
:101FA0000BB1D26818477047042807EE902A42D038
:101FB000082842D003284BD1A1F10E02F8EE677A2F
:101FC0009FED247AD0B267EE877A062807D803EB14
:101FD00082011A440123C1ED007A13777047A1F101
:101FE0001502D0B2062808D803EB81011A44012358
:101FF00041ED0C7A82F840307047A1F11C02D0B25A
:10200000062808D803EB81011A44012341ED0A7A1E
:1020100082F86430704741291AD1B6EE007A012265
:10202000F4EEC77AF1EE10FA02DD83F87220704701
:1020300083F873207047D9667047F82903D10122CD
:1020400083F870207047FC2904BF012283F87120B7
:10205000704700BF0402013CD0E902310246581A21
:1020600044BF5368C018704770B5D1E90234A4B0BA
:102070000646A3420D4606D19022002118F02CFD01
:10208000304624B070BD90220968684602FB0411F6
:10209000013418F066FD6B68EC6090229C42694642
:1020A000304624BFE41AEC6018F05BFDE8E7D0EDA1
:1020B000020AF0EE407AF5EE400A10B5F1EE10FAA1
:1020C000044626D0F5EEC00AF7EE006AF1EE10FAEB
:1020D0000DDD70EEA60AB0EE007AF4EE470AF1EEDE
:1020E00010FA14D0B0EE670A17F0FEFA0CE036EEE4
:1020F000E07AC6EE870AB6EE007AF4EE470AF1EE11
:1021000010FAEFD117F0CCFCF0EE407A01E060EE6F
:10211000007A94ED000A94ED017A37EE407AA7EE4A
:10212000270A10BDD0ED007A90ED017A30EE670AF3
:1021300037EE677AC0EE077AF5EEC07AF1EE10FA64
:102140001BD4B7EE000AF4EEC07AF1EE10FA30FEBE
:10215000270AD0ED027AF5EE407AF1EE10FA14D0AB
:10216000F5EEC07AB7EE007AF1EE10FA08DD77EE00
:10217000870AC7EE200A17F0B7BA9FED040AE8E70E
:1021800077EE677AC7EE270AF3E770470000000092
:1021900037B5856D04468DB14FF6FE72416DAA428A
:1021A00028BF2A468B18AD1A43650B4B85650093F3
:1021B0000023019008F0BAFB03B030BD01210430C8
:1021C00005F0A6FAE36D84F86450002BF4D0206E7D
:1021D00003B0BDE8304018479121049013B50E4C70
:1021E00000218DF8070004F1440005F091FA04F194
:1021F0005800002105F08CFA642301220DF107013B
:1022000004F1400008F088FB012104F1440005F0CE
:102210007FFA02B010BD00BF0819002470B50D4C44
:1022200005460E46002104F1440005F071FA04F160
:102230005800012105F06CFA2946324604F14000AD
:10224000642308F069FB04F144000121BDE87040FB
:1022500005F05EBA081900244FF06F4307B52A2035
:102260000093FFF7BBFF04216846FFF7D7FF064B3B
:102270002B200193FFF7B2FF04210DEB0100FFF7C4
:10228000CDFF03B000BD00BF0000013F10B5044604
:10229000006820B162680021920018F01DFC012343
:1022A0000022C4E902230023236110BD0B68D1ED95
:1022B000117A082BF5EEC07AA8BF0823012BB8BF0E
:1022C0000123F1EE10FA2DE9F0410746C0F84C3138
:1022D00001DCDFED217A0C463D4607F1A0064FF008
:1022E0000008C7ED527A54F8042F2846236AC5E93E
:1022F0000023FFF7CBFF216A284614354B1E06EE5C
:10230000903AF8EE666AB0EE660AFEF79BF907EEC1
:10231000901AC6ED086A0023F8EE677AD7ED526A84
:102320000E4A87EEA67A07EE908A08F10108F8EEC9
:10233000E76AA6EC017AF365D7F84C31F26307EE51
:10234000903A4345B8EEE77AC6EE877AC6ED1F7A33
:10235000C9DCBDE8F08100BF00803B473333333F29
:1023600010B504460348FFF791FF0023A363E3631E
:1023700010BD00BF0001002410B504460348FFF75C
:1023800085FF0023E363236410BD00BF1401002414
:1023900038B504460548FFF779FF0548FFF776FF93
:1023A00000236365A365E365236638BD2801002427
:1023B0003C01002410B50D4B04460D48C0F85031C7
:1023C00000F5A8700B4B4360FFF760FF002243F25B
:1023D00039010023C4E90521074A6360E3602361F2
:1023E000A260E36123626362A36210BD3C7D0AC008
:1023F00000000024803202001F42093910B5044653
:102400000448FFF743FF0023E36123626362A36292
:1024100010BD00BF5001002410B5164B04461648ED
:10242000C0F864314FF4166300F5B2704360FFF7F3
:102430002DFF201D002207EE902A002143F2390CC7
:102440000023B8EEE70ADFED0D7A01328360C36046
:1024500020EE270AC0E9041C09494160FEF7B9FCD7
:102460008168032A40F8181BE5D16366A366E3661A
:10247000236710BDBC570AC000000024910A064023
:102480001F42893810B504461348FFF7FFFE43F298
:102490003902E368626704226360636AC4F88420D7
:1024A000E361E36B0D4A63630023C4F8882063662D
:1024B000A366E3662367E36423656365A365E36559
:1024C0002366C4F88C30C4F89030C4F89430A36705
:1024D000E367C4F8803010BD64010024000040426E
:1024E000F8B51B4D4FF400771A4E044605F5BC7045
:1024F000C5F87C71C5F8786106F50066FFF7C6FE81
:1025000005F5C670C5E96367FFF7C0FE002343F217
:102510003900114A00219FED110AA2602262636016
:10252000E3602361A362C4E90510C4E90B1004F160
:102530001C00FEF74EFC626A6363E2614FF07C525E
:10254000A363E36323646364A264E3642265F8BD68
:1025500000000024000000C0BFB52438DA0FC93FD6
:1025600038B504460D48FFF791FE0D48FFF78EFE83
:10257000E3689FED0C0A04F11C0063604FF07C528D
:10258000FEF727FC636AA264E361002322656363AC
:10259000A363E36323646364E36438BD78010024C8
:1025A0008C010024DA0FC93F38B504461248FFF702
:1025B0006DFE1248FFF76AFEE3686360636AE361D9
:1025C000E36B6363636DE3640D4BC4F8FC300D4B48
:1025D000C4F800310023C4F88C30C4F89030C4F83B
:1025E000B830C4F8BC30C4F8E430C4F8E830A366AE
:1025F000E3662367636738BDA0010024B4010024AB
:102600001F852B3FCDCCCC3E2DE9F0410D4D0F1F4A
:10261000161F044605F1100857F8042F204656F8F7
:10262000043FC4E90023FFF731FEB5EC010A204660
:102630001434B8EE400AFEF705F84545ECD1BDE884
:10264000F08100BFE0BA05906B4B70B5436045F672
:10265000C1536A4D044683600430FFF717FEA5F1AD
:10266000F80304F11C00E361E6232362FFF70EFE8A
:102670009FED630A04F11C00FDF7E4FF05F52873E4
:1026800004F130002363AE236363FFF7FFFD9FED8A
:102690005D0A04F13000FDF7D5FF05F5AB6304F1E9
:1026A000440005F6E86563644FF41973A364FFF70B
:1026B000EDFD9FED550A04F14400FDF7C3FF4FF413
:1026C000E07304F15800A565E365FFF7DFFD9FEDBA
:1026D0004F0A04F15800FDF7B5FF4D4B04F16C00B3
:1026E000E36640F24A432367FFF7D0FD494B04F10C
:1026F0008000C4F8803041F60E43C4F88430FFF700
:10270000C5FD454B04F19400C4F8943040F65833AD
:10271000C4F89830FFF7BAFD9FED400A04F1940029
:10272000FDF790FF3E4B04F1A800C4F8A83041F239
:102730007173C4F8AC30FFF7A9FD3A4B04F1BC004B
:10274000C4F8BC304FF4B963C4F8C030FFF79EFD45
:10275000354B04F1D000C4F8D03041F69123C4F8D1
:10276000D430FFF793FD314B04F1E400C4F8E430BA
:1027700041F2BD03C4F8E830FFF788FD9FED2C0A55
:1027800004F1E400FDF75EFF2A4B04F1F800C4F801
:10279000F83041F2EC33C4F8FC30FFF777FD00234A
:1027A000002243F239002449C4F82031C4F828310A
:1027B000C4F82C31C4F83831C4F844319FED1F0AF5
:1027C000C4F82411C4F83C11C4E94C20C4E95220D7
:1027D00004F59C70FEF7FDFAC4F81031C4F80C3112
:1027E000C4F81C31C4F818314FF07C53A261C4F80E
:1027F000503184F8542170BDC04403C0F81000C0AB
:102800000000654300002D4300C018440080DF43F2
:10281000983303C060C302C0009602C00070354503
:102820003C3802C01C2102C0D8B601C0E47301C00C
:1028300000E08545342401C01F428938DA0FC93FC2
:1028400070B504460430FFF721FD04F11C0504F1C6
:102850006C06B542284632D1FFF718FD04F180001E
:10286000FFF714FD04F19400FFF710FD04F1A80038
:10287000FFF70CFD04F1BC00FFF708FD04F1D000E8
:10288000FFF704FD04F1E400FFF700FD04F1F80098
:10289000FFF7FCFCD4F82831C4F82031D4F84031DB
:1028A000C4F838310023C4F81031C4F80C31C4F82E
:1028B0001C31C4F81831002384F8543170BD14352C
:1028C000FFF7E4FCC5E738B5054604F015FF0446FC
:1028D00005F1140004F010FF44EA4000C0B238BD16
:1028E00030B585B0002504460123ADF80C100399DE
:1028F000ADF808202A46009504F0ECFD01232A4695
:10290000029904F11400009504F0E4FD2046FFF75D
:10291000DAFF84F82A5084F8280084F8290005B0EA
:1029200030BD70B5064600F15C0400252046FFF777
:10293000CAFF94F82830834206D084F82800013575
:102940002C34042DF2D170BD94F829209342F6D096
:1029500084F8293043EA8203104A52FA83F394F848
:102960002A2093F8743013445BB2012B09DD002355
:10297000721984F82A3092F8C031013382F8C031DC
:10298000DDE75A1C02DB84F82A30D8E700237219ED
:1029900084F82A3092F8C031013BEFE77CBA059009
:1029A000D0ED007AF4EE407A10B5F1EE10FA04465C
:1029B0002DED048B34D0F6EE007AF7EE008AB3EEFC
:1029C000048AB4EEE70AF1EE10FA2CD870EE006A31
:1029D000DFED1E7A9FED1E7AA6EEA77ADFED1D7A57
:1029E000F0EE686ADFED1C9A84ED000A27EE290AF2
:1029F0009FED1A9AC4ED036AC4ED047A20EE090A29
:102A000016F000FE38EEC00A84ED010A28EE290A0D
:102A100020EE090A16F0F6FD78EEC08AC4ED028AAF
:102A2000BDEC048B10BD70EE677ADFED0D6A9FED93
:102A30000D7A77EEA77A27EEA76AA7EEA67ADFEDE2
:102A40000A6AA6EE268A78EEE76ACBE700C0F3456D
:102A50000000484300000000DB0FC9C03EC3AE3792
:102A600000803B460000FA4500403A450023B6EEA0
:102A7000000A4361836193E738B543F239020023CA
:102A800000250446C0E905320C4B443040F8405C58
:102A900040F8385C40F8345C40F83C3C40F8245C3A
:102AA00040F81C5C40F8145C40F80C5C40F8085C92
:102AB00040F8045CFFF7DAFF256638BD1F4209398C
:102AC000F8B504460430FFF7E1FB04F51C7504F586
:102AD000307604F11800FFF7D9FBAE420DD104F5B2
:102AE000317604F571770025D4F810349D4209DB66
:102AF00004F58360BDE8F840B8E728461435FFF7D1
:102B0000C5FBEAE730460135FFF7C0FB002314366A
:102B100047F8043BE8E7F8B504460430FFF7B6FB96
:102B200004F51C7504F5307604F11800FFF7AEFBD0
:102B3000AE420DD104F5317604F571770025D4F855
:102B400010349D4209DB04F58360BDE8F8408DE751
:102B500028461435FFF79AFBEAE730460135FFF7C0
:102B600095FB0023143647F8043BE8E72DE9F047CE
:102B70006A4DA4B004461EAE0DF178080DF160094F
:102B80000FCD0FC605F1080795E80300203586E84C
:102B900003000FCF18AE0FC697E80300002786E8A2
:102BA0000300261D59F82730304658F8042B01370A
:102BB000C6E90023FFF76AFBB5EC010A304614367C
:102BC000B8EE400AFDF73EFD062FEBD1544B4FF017
:102BD000000804F5B670534DC4F86C3140F6A1738B
:102BE00012AE0DF14809C4F870310DF1300AFFF74B
:102BF0004DFB04F5B6709FED4C0AC4F88881FDF7D3
:102C000021FD0FCD0FC605F1080795E8030020351B
:102C100086E803000FCF0CAE0FC697E8030000272D
:102C200086E8030004F17C065AF82730304659F84C
:102C3000042B0137C6E90023FFF728FBB5EC010A96
:102C400030461436B8EE400AFDF7FCFC062FEBD1F7
:102C5000364B04F5C670364D06AEC4F88C3141F2E1
:102C6000B9030DF11809C4F89031FFF70FFB04F513
:102C7000C6709FED300AC4F8A881FDF7E3FC0FCDC4
:102C80000FC605F1080795E80300203586E8030024
:102C90000FCF6E460FC697E80300002786E80300B3
:102CA00004F1F4065DF82730304659F8042B01375B
:102CB000C6E90023FFF7EAFAB5EC010A30461436FC
:102CC000B8EE400AFDF7BEFC062FEBD11A4B04F517
:102CD000D670C4F8AC3141F2A913C4F8B031FFF793
:102CE000D5FA9FED160A04F5D670C4F8C881FDF731
:102CF000A9FC4FF07E5304F5E870C4F8CC31FFF71F
:102D0000B5FE002384F8EC310D4BC4F8F031C4F863
:102D1000F431C4F8F83124B0BDE8F08700BB059069
:102D2000B0E500C048BB059000007A45CCA200C0C9
:102D300090BB059000C08545285C00C000408D45D3
:102D4000CDCC4C3F2DE9F041054600F5B677002685
:102D50002C1D4FF00008344408F101082046FFF70D
:102D600095FA1434B8F1060FF6D178363846FFF7E5
:102D70008DFA0023B6F5B47F07F1200747F8043C2D
:102D8000E6D105F5E870FFF771FE002385F8EC3118
:102D9000BDE8F08170B5114B044611480025C0F81C
:102DA000003100F580700F4B4360FFF76FFA43F27C
:102DB0003902002304F11C006560E5602561C4E967
:102DC0000532094BA360FFF751FEB6EE000A04F18D
:102DD0001C00FFF7E5FDA563E56370BD3CA52DC0B4
:102DE00000000024803202001F420939D1ED057A2B
:102DF0009FED0C7A67EE877A9FED0B7A38B567EE18
:102E0000877A04460D460430C0ED017AFDF718FDBF
:102E100004F11C0084ED100A95ED030ABDE838406A
:102E2000BEE500BFDB0FC9403EC3AE3770B5134BE4
:102E3000044613480025C0F8143100F58A70114B80
:102E40004360FFF723FA43F23902002304F11C0028
:102E50006560E5602561C4E905320B4BA360FFF7AF
:102E600005FE9FED0A0A04F11C00FFF799FD4FF0E3
:102E70007E53E563A363256470BD00BF3CDB24C0C3
:102E800000000024803202001F420939CDCCCC3E24
:102E9000D1ED057A9FED117A67EE877A9FED107A72
:102EA00038B567EE877A04460D460430C0ED017AE6
:102EB000FDF7C6FC04F11C0084ED110A95ED030A30
:102EC000FFF76EFDB2EE0E7AF7EE007AD5ED046AEA
:102ED000E6EE877AC4ED0E7A38BD00BFDB0FC9403D
:102EE0003EC3AE37F8B51B4D04461B4B1B4E05F5D4
:102EF0009470C5F8283104F11C07C5F82C61FFF760
:102F0000C5F9174B05F59E70C5E94F36FFF7BEF9B9
:102F100043F239020023002538466560E5602561EB
:102F2000C4E905320F4BA360FFF7A0FD04F13800A0
:102F3000FFF79CFDB6EE000A3846FFF731FDB6EE0E
:102F4000000A04F13800FFF72BFD6565A565E5650E
:102F50002566F8BD000000243C111CC08032020030
:102F60003C4713C01F420939D1ED057A9FED127A13
:102F700067EE877A9FED117A38B567EE877A0D464E
:102F8000044604302DED028BC0ED017AFDF758FCAC
:102F900095ED038A04F11C0084ED190AB0EE480A8D
:102FA000FFF7FEFCB0EE480A04F13800BDEC028BDE
:102FB000BDE83840F4E400BFDB0FC9403EC3AE3784
:102FC000D1ED007A44309FED067A91ED030A67EE69
:102FD000877A9FED047A67EE877A40ED0F7ADFE417
:102FE000DB0FC9403EC3AE37B5EEC00A70B5F1EE97
:102FF00010FA06462DED028BB0EE408A01D89FED07
:10300000118A06F1A0050024D6F84C31A34202DC57
:10301000BDEC028B70BDB5EC010A0134DFED0A7A1C
:1030200020EE270A80EE080A16F0ECFADFED077AA8
:10303000B4EEE70AF1EE10FA77FE807AC5ED0F7A6A
:10304000E2E700BF6F12833AB30CDDC072F97F3F35
:10305000374BF0B5ABB0436045F6C053044604307F
:10306000344D436004AEFFF711F9B7EE000A201D9E
:10307000FDF7E8FA304B04F11800A3614FF48053D8
:10308000E361FFF703F905F5AE7104F11800FEF7EF
:10309000D0FC05F5DE730FCB86E80F0005F5E6736F
:1030A00019AD0FCB8DE80F006A46314604F51C7050
:1030B000FFF7AAFA214B40F658324FF48251C4F878
:1030C000C0321DA81E4B10931E4B11931E4B129322
:1030D0001E4B139340F6A453CDE9082341F2CE23AF
:1030E0003022CDE90A13002117F0F6FC04231893CF
:1030F000174B299310AB0FCB85E80F0008AB21AD20
:103100000FCB85E80F0018A904F53170FFF7CEF852
:1031100004F53170B0EE000AFFF766FF04F20443D5
:103120000C4A04F583601A602BB0BDE8F0409DE4C2
:10313000BCE008C07CBA0590BCA008C0C2F5E83E5F
:103140005C7308C0CC3C08C0CCFB07C094B007C07F
:1031500000803B479A99993E9FED147AB7EE000A9A
:10316000D1ED017A67EE877A38B5B4EEE70A044606
:103170000D460430F1EE10FA30FE270AFDF762FA30
:1031800004F5317091ED000AFFF72EFFD5ED067AB8
:103190009FED077A04F5836095ED030A67EE877A61
:1031A000C4EDB07ABDE83840FFF7FABB00803B477A
:1031B0003333333F354BF0B59BB0436045F6C053D6
:1031C00004460430324D436004AEFFF75FF8B7EEBB
:1031D000000A201DFDF736FA2E4B04F11800A361FA
:1031E0004FF4C053E361FFF751F805F5EE7104F1B8
:1031F0001800FEF71EFC05F50F730FCB86E80F00D5
:1032000005F5E6730FCB8DE80F006A46314604F5ED
:103210001C70FFF7F9F9204B40F6DB5241F23731D1
:10322000C4F8C032042304F5317008931B4B199382
:103230001B4B09931B4B0A931B4B0B931B4B0C9380
:1032400041F22503CDE9112341F23963CDE913138E
:10325000002308A90D9315930E9316930F931793BC
:1032600010931893FFF722F804F53170B0EE080AB6
:10327000FFF7BAFE04F204434FF07A5204F583607C
:103280001A601BB0BDE8F040FFF7F0BB943906C0F0
:103290007CBA059094D905C0C2F5E83E00803B4752
:1032A00024A205C08C6105C0AC1405C0C4BB04C019
:1032B000DFED1F7A91ED010A38B520EE270A0446AA
:1032C0000D4604302DED028BB7EE008AB4EEC08AB5
:1032D000F1EE10FA38FE000AFDF7B4F991ED000A9C
:1032E00004F53170FFF780FE95ED030A9FED117A2A
:1032F00078EE406ADFED107AE6EE877AF5EEC07A76
:10330000F1EE10FA11D4F4EEC87AF1EE10FA38FEAC
:10331000278A04F2044304F5836083ED008ABDEC40
:10332000028BBDE83840FFF73BBB9FED048AF0E716
:1033300000803B473333B33E9A99193E00000000AA
:10334000D1ED017A9FED237A67EE877A38B5FCEEEE
:10335000E77A45F6BF5304460D4617EE902A9A4287
:1033600094BF8261836190F8543183BBD1ED007AC0
:103370009FED190A80EE270A16F044F9DFED177A5F
:10338000F4EEC07AF1EE10FA30FE270AD5ED036AAA
:103390009FED137ADFED137A84ED540AE6EEC77AD7
:1033A000D5ED046A9FED107AC4ED457ADFED0F7A12
:1033B000E6EE877A9FED0E7A67EE877A9FED0D7ABB
:1033C00067EE877AC4ED497AC4ED4F7A38BDB7EE1F
:1033D000000ADBE700803B4730FF66BFEC51783FD7
:1033E0009A99593F6666663F9A99D93F9A99993E4C
:1033F000DB0FC9403EC3AE3791ED007ADFED337A83
:10340000F4EEC77A2DE9F041F1EE10FA04460D46CC
:1034100000F5F8762E4F00F5FE782DED028B37FE85
:10342000878A94F8EC31002B4DD197ED000ADFED3F
:10343000297A20EE270A80EE080A16F0E3F8A6ECB7
:10344000010AB04507F10407EBD195ED038A9FED22
:10345000227ADFED227AD4F8F031E8EE077A9FED98
:10346000200AB0EE087AC4F88031D4F8F431C4F8F8
:10347000A031D4F8F831C4ED617AC4ED697AC4EDB5
:10348000717AD5ED057AC4F8C03167EE877A27EEF8
:10349000800A16F0B7F8F7EE007A9FED127A04F57D
:1034A000E87030EE670A20EE070AB2EE0E7AE0EE20
:1034B000077AB0EE480ABDEC028BC4ED737ABDE822
:1034C000F041FFF76DBAB7EE000AB8E70AD7233C20
:1034D000C8BC0590B30CDDC09A99993E9A99193EE3
:1034E0001572313F8988883D2DE9F0472DED028B1B
:1034F0009AB00446B7EE008A2022002112A8F0EE0E
:10350000408A17F0E9FAD4ED527A12AED4F84C5151
:1035100004F59078C8EE273ADFF8C4A1B146002739
:10352000BD426CDC04F5807312A900221F4695424F
:1035300000F39880202200210AA817F0CDFA39461E
:10354000AA000AA817F00DFB082D40F099800A9BED
:1035500002A80AA9002202930B9B03930C9B0493DD
:103560000D9B05930E9B06930F9B0793109B08934F
:10357000119B099302ABFDF7D2F906A8FDF7CFF92D
:10358000F3EC017A0132B0EC016ADFED526A042AF1
:1035900037EE867A77EEC67A27EE267A67EEA67A37
:1035A000A1EC017AC1ED037AEAD107EE905A0AA99B
:1035B00004F1E0070025F8EEE77A88EE277AD4F8E0
:1035C0004C21AA4260DC07EE902AB0EE007A12ABE2
:1035D0000021F8EEE77A9FED400AC7EE270A8A42FB
:1035E00068DC0123DFED3C7A9A426BDC20EE200A96
:1035F00067EEA00A1AB0BDEC028BBDE8F08794ED2F
:10360000514A58ED184AB5EEC04A98ED005AF1EE0D
:1036100010FA0DDD9FED310A25EE000AFCF796FE4B
:10362000E4EE004AB4EEE48AF1EE10FA78FE244AA1
:103630001420B0EE640A00FB0740FDF73DF8F0EE01
:10364000457ABAEC017AA9EC010AE7EE237AF4EEA6
:10365000C87AF1EE10FA01DB77EEC87A0137E8ECB0
:10366000017A5DE7D3ED007A0132B1EC017AD4ED55
:10367000506A37EE677AE6EE877AE3EC017A56E72E
:103680000AA8FDF74CF990E794F850317BB9D7EDD3
:10369000007AB1EC010A1420043720EE270A00FB5F
:1036A00005400135A7EE280AFCF7E0FF87E7F7EEB3
:1036B000007AEEE7184602310833D0ED007A30EE9A
:1036C000270A8CE796ED017A0836023377EE877A7F
:1036D0008AE700BFF304353F00000000DB0FC9405C
:1036E000D4BC059030B5044604302DED028B89B072
:1036F00004F53075FCF7BAFFFCF7C3FF04F11800BE
:10370000FEF7A9F9F6EE007AF0EE408A04F51C7097
:1037100030EE200AB0EE608A20EE270A854223D1DF
:1037200004F53170FFF7E0FEDFED125A9FED126AEB
:1037300004F5836020EE250ACDED030AA8EE860A83
:10374000FDF7CEF8B0EE405A9DED030A20EE250AB3
:10375000A8EE060AFDF7C4F8F0EE400AB0EE450AFE
:1037600009B0BDEC028B30BDD4EDB00AFEF7AAF96A
:103770001430D3E79A99193FCDCCCC3E30B50446EE
:1037800004302DED028B89B004F53075FCF76EFF27
:10379000FCF777FF04F11800FEF75DF9F6EE007A0A
:1037A000F0EE408A04F51C7030EE200AB0EE608A1C
:1037B00020EE270A854223D104F53170FFF794FEED
:1037C000DFED125A9FED126A04F5836020EE250AA0
:1037D000CDED030AA8EE860AFDF782F8B0EE405A56
:1037E0009DED030A20EE250AA8EE060AFDF778F8FB
:1037F000F0EE400AB0EE450A09B0BDEC028B30BDD8
:10380000D4EDB00AFEF75EF91430D3E76666263FC2
:103810003333B33E10B50446442115F0EFFE204685
:1038200010BD10B50446482115F0E8FE204610BD35
:1038300010B50446682115F0E1FE204610BD10B514
:103840000446382115F0DAFE204610BD10B50446B6
:10385000982115F0D3FE204610BD10B50446602116
:1038600015F0CCFE204610BD10B504464FF488710B
:1038700015F0C4FE204610BD10B50446642115F0B5
:10388000BDFE204610BD10B50446DC2115F0B6FE85
:10389000204610BD10B50446202115F0AFFE20468D
:1038A00010BD10B5044640F2344115F0A7FE204685
:1038B00010BD10B5044640F2344115F09FFE20467D
:1038C00010BD10B504464FF4AC7115F097FE2046BC
:1038D00010BD10B504464FF4FE7115F08FFE204662
:1038E00010BDD1ED057A021D9FED3E7A67EE877A15
:1038F00010B5FDEEE77A00F14C0417EE903AC0EDFA
:10390000217AA24224D1F7EE006A91ED046AD1ED4A
:10391000017A5BBBDFED345A01239FED347A4361BA
:10392000A6EE257A9FED326AC36267EE867A80ED55
:10393000227A37EE667AC7FEC77A9FED2E7AC0EDFF
:10394000237AD1ED037A67EE877AC0ED257A10BD30
:10395000D1ED007A18329FED287A67EE877A9FEDD5
:10396000277A67EE877A42ED057ACAE7DFED245AB7
:1039700000229FED247A032B4261A6EE257A9FED6B
:10398000226AC2624FF0000267EE867AC0F8942085
:1039900037EE666A80ED227AC7FEC67AC0ED237ADA
:1039A000D5D1F0EE475A9FED195AB0EE476A80ED37
:1039B000207AE7EEC55AA7EE856ADFED157AF4EEB8
:1039C000E56A80ED1F6AF1EE10FAB4EEE76A76FE62
:1039D000A56AC0ED1E6AF1EE10FAB8DBC0ED1F7AE1
:1039E000B5E700BFCFF79F400000704300001043D1
:1039F0000000C042CDCC4C3EDB0FC9403EC3AE37C9
:103A000000006444000040420000F0439A99993E4F
:103A100000E01545F2EE047A10B5B4EEE70A04466C
:103A2000F1EE10FA07D4DFED0C7AB4EEE70AF1EE0E
:103A300010FA77FE807A9FED097A9FED090A67EE0A
:103A4000877A27EE800A16F053F8204684ED000AA4
:103A5000BDE81040FDF774BC00409C46DB0F4940B8
:103A60003EC3AE3770B5364B0446364D364E05F57F
:103A7000D0702DED028BC5F8A0314FF48073C5F8DE
:103A8000A431FEF703FC314B05F5DA70C5F8B4310B
:103A90004FF40073C5F8B831FEF7F8FB2C4B002546
:103AA00043F239022B49C4F8FC3004F11C002A4BC4
:103AB0009FED2A0AC4F800310023A16021626560ED
:103AC000E5602561A562C4E90532C4E90B32FDF762
:103AD00080F9616A9FED210A04F14C00E1612049FF
:103AE0006563A1632165E5632564A565C4E91132B9
:103AF000C4E91732FDF76DF9636D9FED1A0A04F101
:103B00007800E364184BE367FFF784FF9FED170A23
:103B100004F1A400C4F8A860FFF77CFF9FED130A2E
:103B200004F1D000C4F8D460FFF774FF4FF07E5367
:103B3000A5666366E56625676567BDEC028B70BDAB
:103B4000E02600C000000024ABAA2A3FE02A00C003
:103B50001F852B3F15EDB738CDCCCC3EDB0FC93FD1
:103B6000FE9C5B3800004844F30BB53F00401C4509
:103B700038B52DED028BB6EE008AD1ED057A0446FC
:103B80000D46F4EEC87AF1EE10FA5CDBD1ED007A66
:103B9000DFED2F6A67EEA66A94ED3F7A04F17800B4
:103BA0009FED2C6A77EEC77A9FED2B0AA7EE867AF7
:103BB000D4ED407A9FED296A76EEE76AE6EE867AE2
:103BC0009FED276A84ED3F7A27EE067ADFED256ABE
:103BD00027EE267AC4ED407A67EE867A84ED027A83
:103BE00067EEA67A84ED087A95ED037AC4ED0E7A35
:103BF000C4ED147ADFED1C7AA7EE270AFFF70AFF5F
:103C000095ED047ADFED197AF2EE0E6A27EE277A47
:103C1000F7EE007AE7EE267A9FED157AC4ED197A71
:103C2000D5ED017A27EE877A27EE888A84ED427AED
:103C30009FED107A84ED418A67EE877ABDEC028BA6
:103C4000C4ED437A38BDDFED0C7ADFED0C6AA3E7F3
:103C5000295C0F3F9DD92E3A0000FA438196AE3978
:103C6000DB0FC9403EC3AE370080BB44CDCC4C3ED9
:103C70000000B442000034431F852B3FCDCCCC3E26
:103C800070B51446A4B005464618AE4201D124B022
:103C900070BD6A4615F8011B04F1240003F0B2F868
:103CA0000028F2D004F1C000FEF7D6F9D4F8C430F1
:103CB000013B9842E9D0D4F8C8306946D4F8C00036
:103CC0005A1CC4F8C820902202FB030016F049FFDA
:103CD000D4E93123934224BF9B1AC4F8C830D4E7F7
:103CE00070B51446A4B005464618AE4201D124B0C2
:103CF00070BD6A4615F8011B04F1080003F082F854
:103D00000028F2D004F1A400FEF7A6F9D4F8A830F8
:103D1000013B9842E9D0D4F8AC306946D4F8A4000D
:103D20005A1CC4F8AC20902202FB030016F019FFC5
:103D3000D4E92A23934224BF9B1AC4F8AC30D4E7B9
:103D400070B5F025BDF810400B4405FB01050A488D
:103D500064BA9BB200EB4500994200D370BD00EB02
:103D60004206054625F8024BB542FBD1013100F56C
:103D7000F07089B2F0E700BF3C6F36C02DE9F74F15
:103D8000DDF834C0013ABDF830B0019312F8014FAC
:103D900014B903B0BDE8F08FA4F12005DCF804707D
:103DA0009CF80090EDB25F2D9CF8015028BF3F2495
:103DB000203C14FB05F40D4407EB4407ACB200941F
:103DC0000C46009B9C4201D14844DFE74FF0F00EC7
:103DD00037F802AB00260EFB04FEF5B24D4502D3C8
:103DE0000134A4B2EDE70AFA06F5019B15F4004F81
:103DF00000EB0605ADB20CBFD8469846EF2D08D8AB
:103E0000B4F5A07F3FBF98FA98F87544024B23F8A9
:103E100015800136E1E700BF3C6F36C008B50B4A9C
:103E20000B4B0C498B4208D10B4B00210B4A9342A0
:103E300008D116F06FFE00F0CBF852F8040B43F8EF
:103E4000040BEFE743F8041BF1E700BF44D80590EB
:103E50000000002404190024081900241CA80124CF
:103E6000034613F8012B002AFBD1181A01387047BA
:103E700001F0FF01102A2BDB10F0070F08D010F81B
:103E8000013B013A8B422DD010F0070F42B3F6D11F
:103E9000F0B441EA012141EA014122F007047FF038
:103EA00000070023F0E80256083C85EA010586EA8F
:103EB000010685FA47F5A3FA87F586FA47F6A5FACB
:103EC00087F68EB9EED1F0BC01F0FF0102F00702D7
:103ED00032B110F8013B013A83EA010313B1F8D182
:103EE0000020704701387047002D06BF3546033863
:103EF000073815F0010F07D1013015F4807F02BF9C
:103F0000013015F4C03F0130F0BC0138704700BFEC
:103F100053B94AB9002908BF00281CBF4FF0FF3130
:103F20004FF0FF3000F00CB8ADF1080C6DE904CE95
:103F300017F0D6FBDDF804E0DDE9022304B070479A
:103F4000704700BF0348044B834202D0034B03B1C8
:103F500018477047041900240419002400000000C9
:103F60000548064B1B1AD90F01EBA301491002D0DB
:103F7000034B03B1184770470419002404190024A7
:103F80000000000010B5064C237843B9FFF7DAFFB4
:103F9000044B13B10448AFF300800123237010BD1C
:103FA0009C4401240000000008D8059008B5054B8A
:103FB0001BB105490548AFF30080BDE80840FFF795
:103FC000CFBF00BF00000000A044012408D8059026
:103FD000D74D0021002605F1A8002C462DE9804888
:103FE000ADF2CC6D01F0FAFB302105F1A80001F033
:103FF00023FB032105F1A80001F002FB40F6014379
:1040000040F602209FEDCB0AADF8403040F6023377
:10401000ADF8480005F58E701099ADF84430DDE933
:10402000112302F06BFE40F6062240F6063105F53C
:10403000BC70ADF84C20ADF85010DDE91312FEF75E
:104040004FFC40F2014240F2015105F5D270ADF84B
:104050005420ADF85810DDE91512FEF741FC40F68A
:1040600006124FF4007105F5E870ADF85C20ADF86C
:104070006010DDE91712FEF733FC40F6016240F6EE
:10408000017105F5FE70ADF86420ADF86810DDE94A
:104090001912FEF725FC40F602129FEDA60A05F55F
:1040A0000A70ADF86C201B9902F080FF40F6020206
:1040B0009FEDA00A05F51370ADF870201C9902F071
:1040C00075FF40F601029FED9B0A05F51C70ADF8E7
:1040D00074201D9902F06AFF40F601129FED950AC7
:1040E00005F52570ADF878201E9902F05FFF0123D9
:1040F00040F2CF72FEA905F536708DF80434CDF884
:104100000024CDE9FE3606F073FE772105F5367002
:1041100006F0E2FE05F58E72874905F5367006F069
:10412000E1FE05F5367006F0C5FE844B03F144024E
:104130002B606A6003F18C02F433AA60EB6055F8DF
:10414000040B013603689B689847042EF7D17C4B1B
:1041500000257C4E03F198026361A26103F1F8022D
:10416000E26103F50272226203F51B7203F55273DA
:104170006262A36256F8040B013503689B68984796
:10418000062DF7D1704B0025704E03F23442E362E6
:1041900003F66803226363636D4BA36356F8040B55
:1041A000013503689B689847042DF7D140F6024318
:1041B000002501226748ADF834302B460D99009553
:1041C00003F088F90223634E0122ADF838302B4604
:1041D0000E9906F11400009506F13C0703F07AF9F8
:1041E0004FF44073012206F12800ADF83C302B4615
:1041F0000F99009503F06EF90135304617F8011B51
:10420000143603F085FA032DF6D1534EFEAD534F0D
:104210000DF57E7E4FF00009DFF8488107F1140CA0
:10422000C7F8C490C7F8048087F8C890C7F8109002
:1042300087F8C99087F8CA900FCE0FC596E8070097
:1042400085E80700BEE80F00C7E90299ACE80F0057
:1042500095E807008CE8070006F10C0C0DF57E7E52
:104260002836BCE80F00AEE80F009CE807000DF50B
:104270007E7E07F1300C85E80700BEE80F00ACE851
:104280000F0095E807008CE807000FCE0DF57E7C47
:1042900087F86890ACE80F0096E807000DF57E7C83
:1042A00007F14C0685E80700BCE80F000FC695E84B
:1042B000070086E8070007F11401582207F16C0097
:1042C00027AD16F04EFC3B1D207C2EAEE363FCF7C1
:1042D0000DF83878FBF7F2FF97F8FC00FCF71CF8B4
:1042E000284602F07BFD0227CDF80494CDF808742F
:1042F00095E80F001A4D86E80F004BAE85E80F00D9
:1043000086E80F000146104647F61222FF91CDF8CD
:1043100010240122CDF80024CDF80C24B288ADF889
:10432000FA23F288C5E90503ADF8F82303B31BE0CF
:1043300008190024000000002329049070020024C2
:104340009C0300241C1900240407002434190024B1
:10435000C4100024E81B002430BD05900000002498
:10436000F8210024B01900241A46494616F0B4FB7F
:10437000FEA9CA4807F06CFDC94802F011FE05F518
:1043800010434FF44072C74800250126A3F860216E
:10439000D3F8601102F014FFC34802F001FE40F2AE
:1043A00001630122C148ADF87C302B461F9900956E
:1043B00003F090F840F201730122BD48ADF880305F
:1043C0002B462099009503F085F840F6033301222F
:1043D000B848ADF884302B462199009503F07AF85F
:1043E0004FF480730122B448ADF888302B462299EF
:1043F000009503F06FF80121AC4803F089F9012121
:10440000AD4803F085F9AD4BFEA9AD48FE9303F529
:104410000073CDF80054FF930823CDF80454CDF871
:104420000C34CDF80864CDF81064CDF81464CDF8E0
:104430001854CDF81C6406F0D1F931469D4803F0BC
:1044400067F90A2008F04CF829469A4803F060F909
:104450000A2008F045F83146964803F059F97820CB
:1044600008F03EF83046FDF7B9FE962008F038F81F
:104470001120FDF7B3FE4FF4FA7008F031F8552320
:104480003A208DF82C31FDF7A9FE31464BA8FDF7F7
:10449000C5FE0A2008F024F836208DF82C51FDF7CF
:1044A0009DFE31464BA8FDF7B9FE2120FDF796FE93
:1044B0004FF06F432A204B93FDF790FE04214BA849
:1044C000FDF7ACFE7F4B2B204B93FDF787FE0421BD
:1044D0004BA8FDF7A3FE1320FDF780FE0A2007F08E
:1044E000FFFF2920FDF77AFE642007F0F9FF4FF463
:1044F00016322946744816F0EFFAFEAA0235002655
:104500000232B5F5F07F02F8026C02F8016CF5D1C9
:10451000FDF7A2FE2C20FDF761FE4FF4A077314697
:10452000624803F0F5F80121614803F0F1F86423D3
:104530004FF4F072FEA9624806F0EEF9013FF6D1A1
:1045400001215A4803F0E4F84FF4337239464BA87E
:1045500016F0C2FA01255D4B4FF433724BA95C484B
:104560004B93C4F82083C4F8C078ADF8305116F0EE
:10457000F8FA4FF433724BA9564816F0F2FA4FF49A
:10458000FE015548C4F8241304F0C4FB03685A1E06
:10459000AA4240F250844FF433724E49FFA8C4F847
:1045A000C058FE9516F0DDFAD4E9C80104F0B2FB5C
:1045B000054608F03FF920B14FF43471284607F062
:1045C000C9FE4FF43372291D424817F079F870B1D3
:1045D000D4F82413D4F8200301F5347204F0ACFAB3
:1045E000FEAB4FF43472D4E9C80104F09FFAB4F87A
:1045F000FA3500223949C4F8C8380123364884F80E
:10460000C438374BC3F8DC113649C3F8D821C3F896
:10461000EC113549C3F8E821A3F8F021C3E9782269
:1046200000F0EAFF07F05AFF044672B62EAA0023F4
:1046300016462E4DE818013390F8DC12042B49B2CF
:1046400042F8041B4FF0000180F8DC12F1D162B691
:1046500005F58E7002F080FB05F50A7002F0BCFCD7
:1046600005F5137002F0B8FC05F51C7002F0B4FCFF
:1046700005F5257002F0B0FC3368C5F8BC327368EC
:10468000C5F8C032B368C5F8C432F368C5F8C8329B
:1046900095F8203163B3D5F8743129E0082200245D
:1046A0001C2200245CB3002460B300244C190024B5
:1046B00060190024741900248819002400050B00D7
:1046C000481900240000013F3C6F36C0544C554D42
:1046D000301C0024FC1E0024B01900240000F0420D
:1046E000F8100024000080BF290404900819002459
:1046F000C5F8B83295F8403195F82821A3F1FF0E9E
:10470000802B14BF002202F00102DEF1000385F8C5
:10471000CC2243EB0E0395F8442285F8CD3295F870
:104720002C327F2A14BF002303F0010395F868227E
:1047300085F8CE3295F850327F2A14BF002303F05B
:10474000010395F88C2285F8CF3295F874327F2AD0
:1047500014BF002303F0010395F8B02285F8D0328E
:1047600095F89832002B00F07083A2F17F00A2F13F
:10477000800C41424141DCF1000343EB0C03FF2A72
:1047800085F8D23285F8D1120CBF0123002385F8B9
:10479000D33240F05C8307F0A1FE07EE900A95ED5E
:1047A000AD7AF8EE677A77EEC77ADFF80CA4FCEE04
:1047B000E77A4FF000080AF1130B0AF14F09C5ED33
:1047C000B57A1AF8013F43B199F80010584681F0C4
:1047D000010189F8001002F09BFF08F1010809F1BE
:1047E00001090BF1140BB8F1030FEAD195F8CC32A3
:1047F0004BB1D5F8CC38013393FBF8F202EB42020F
:104800009B1AC5F8CC38D5F8B832002B19D0D5F89A
:10481000CC38CCBF01224FF0FF32012B00F01A83BD
:10482000022B00F02A8363B9287C0623104490FBF6
:10483000F3F203FB1200431C08BF0520C0B2FBF7D4
:1048400055FDD5F8CC18002900F02B83BE4AA2F103
:104850001C03012918BF134695F8CDE205F52E7803
:10486000BA49002003EB0E1301EB0E1158F8042F88
:10487000002A40F018830130043304310428F5D1B4
:1048800095F8D1327BB1B24BD3F8D811002900F39F
:104890007D834A1C03EB8101012AC3F8D821C1F8AA
:1048A000C84100F38B8395F8D33263B1D5F8D43285
:1048B000B3F5FA7F07D995F8EC3823B9012085F8CC
:1048C000EC08FBF773FD95F8D23263B1D5F8D4321A
:1048D000B3F5FA7F07D895F8EC3823B1002085F8B6
:1048E000EC08FBF763FD742200213046DFF8CC9220
:1048F00016F0F2F84FF0FF334846F36607F0A4FBDA
:10490000B0B909F11400A9F1100802F049FB914B6C
:1049100014214846C8F82030C8F81C8007F004FD70
:10492000CDF8009048468C4BD8E9051207F004FBFF
:104930008A48FDF791FB002840F07683884802F012
:1049400089FC50B9874802F02BFB854802F086FCB1
:10495000854A8649101D02F06FFC8548FDF77CFBF7
:10496000002840F06F83784B32460DF1D3010720C9
:10497000A3F11C0EA3F1380C11F8018FB8F1000F50
:1049800003D0D2F80080CCF8008091F82480B8F1F0
:10499000000F03D0D2F82480CEF8008091F8488030
:1049A000B8F1000F03D0D2F84880C3F80080013876
:1049B00002F1040203F104030EF1040E0CF1040CE5
:1049C000DAD196F8723023B1012085F8EC08FBF7B4
:1049D000EDFC96F8733023B1002085F8EC08FBF766
:1049E000E5FC96F870205A4B3AB1D3F8E821013231
:1049F000172A00F23583C3F8E82196F871100029D0
:104A000000F04B8300225B4983F8F021C3F8EC11DE
:104A1000C3F8E821C3F8E02193F8F1214AB1D3F8B3
:104A2000E42132B1A21AB2F5FA6F84BF002283F8F2
:104A3000F12193F8F021002A00F04383D3ED7B9A13
:104A4000F5EEC09AF1EE10FA40F34783F7EE007AE4
:104A500087EEA98A484A494EA2F10C00484D337CA2
:104A600095ED720A052B18BF1046FDF720FB45484F
:104A7000B0EE409A95ED730AFDF719FB4248F0EE4F
:104A800040FA95ED740AFDF712FB4048B0EE40FA8B
:104A900095ED750AFDF70BFB3D48F0EE40EA95ED0C
:104AA000760AFDF704FB3B48B0EE40EA95ED770A45
:104AB000FDF7FDFA3848F0EE40DA95ED780AFDF79B
:104AC000F6FAB5EEC08AB0EE40DAF1EE10FA01DD8A
:104AD000B0EE489A314895ED790AFDF7E8FA30488A
:104AE000F0EE408A95ED7A0AFDF7E1FA2D48F0EEF6
:104AF00040CA95ED7B0AFDF7DAFA2B48B0EE40CAC2
:104B000095ED7C0AFDF7D3FA2848F0EE40BA95ED12
:104B10007D0AFDF7CCFA2648B0EE40BA95ED7E0A44
:104B2000FDF7C5FA23488DED060A95ED7F0AFDF7DE
:104B3000BEFAF5EEC09AB0EE408AF1EE10FA3FDD13
:104B4000F0EE698A3CE000BF00020024D821002476
:104B5000F8100024813C04909D1F0490B82200248A
:104B60005CB3002460B3002458B30024E13C0490FB
:104B7000FCB30024000080BF00BD0590081900248C
:104B80000000002484BD059090BD05909CBD05905B
:104B9000A8BD0590B4BD0590C0BD0590CCBD0590E5
:104BA000D8BD0590E4BD0590F0BD0590FCBD059015
:104BB00008BE059014BE0590D51B002408220024D1
:104BC00095F8FC2095ED800A002A00F08982D34BED
:104BD00003F10C00032A08BF1846FDF768FAD04815
:104BE0008DED070A95ED810AFDF761FACD488DED4F
:104BF000080A95ED820AFDF75AFACB48F0EE40AA72
:104C000095ED830AFDF753FAC848B0EE40AA95ED3A
:104C1000840AFDF74CFAC648F0EE409A95ED850AF5
:104C2000FDF745FAC3488DED090A95ED860AFDF7B3
:104C30003EFA96F8EC8896F81CE396F81DC396F8B1
:104C40001E038DED0A0AEFF3108172B6D5F8C42069
:104C50004FF05809B84BC2F10102DDED067A09FBAD
:104C60000233C3ED107ADDED077A83ED049AC3EDCC
:104C7000127ADDED087AC3ED05FAC3ED137ADDEDA6
:104C8000097A83ED06FAC3ED177ADDED0A7AC3EDF2
:104C900007EA83ED08EAC3ED09DA83ED0ADAC3ED2A
:104CA0000B8AC3ED0CCA83ED0DCAC3ED0EBA83EDBA
:104CB0000FBA83ED118AC3ED14AA83ED15AAC3EDD3
:104CC000169AC3ED187A83F8648083F865E083F858
:104CD00066C083F86700012385F8C83001B962B661
:104CE000E31B202B7FF69EAC96F8A43003F0FF0563
:104CF000002B40F06E83914B2946D6F8CC781A7879
:104D000096F810B093F8FC8096F8EC388C4E0B9324
:104D100006EB470304928B484FF41632B3F8EC339A
:104D2000039315F0D9FE06F57B7306F57D760593A2
:104D300005EB8500059BBD424FEA001033F802AB3E
:104D400080B2059300F11A091FFA89F940F0CA816F
:104D5000502214230021CDF800A0FEF7F1FF3268A5
:104D60003AB1794BCDE900A3002305214846FFF76E
:104D700005F801350436032DDAD1002F40F0BC814F
:104D8000BBF1050F00F2CD816D4B03EB8B03D3F824
:104D90000024002A40F0C681002543F250136B4ED8
:104DA0004FF6FF7923AA1821C020ADF88C304FF6BA
:104DB000FF738DF88E50CDE90056FEF7DFFFF0222D
:104DC000012327212846CDF80090FEF7B9FF0123E3
:104DD000FA212846CDF80090FEF7B2FFCDF80090FA
:104DE00001234FF48C7128460DF19C09FEF7A8FFB2
:104DF000002F00F0B581012F40F0EE825448B0EE54
:104E0000680AFDF78FF9534889ED000AB0EE6C0A85
:104E1000FDF788F9504889ED010A89ED02CA9DED38
:104E2000060AC9ED03BA89ED04BAFDF77BF94B4BCD
:104E300089ED050AB4E1011D4FF433724848C4F806
:104E4000C03815F08EFEFFF7D2BB194697E4DFEDB0
:104E5000487AAAE4394B1B7813445A4203F00303FF
:104E600002F0030258BF5342B3F1FF3F18BF984608
:104E70005FFA88F0FBF722FAE3E4304B93F8FC305A
:104E800013445A4203F0030302F0030258BF534293
:104E9000B3F1FF3F18BF98465FFA88F0FBF73CFA82
:104EA000CFE4304BD8E400EB8E0CBCF1070F3FF49D
:104EB000E7AC002AD4BF4FF0FF394FF00109002AB8
:104EC000B8BF5242D1F800C0013ABCF1000F57D030
:104ED000A4EB0C0CDFED247A9FED247ABCF1290FB2
:104EE00028BFF0EE477A07EE109AF8EEC76A93ED06
:104EF000007AA6EEA77AB5EEC07AF1EE10FA42D4A7
:104F0000F7EE007AB4EEE77AF1EE10FA77FE877AE0
:104F1000C3ED007A0C60002AD4D1ACE418BD059032
:104F200020BE05902CBE059038BE059044BE05906D
:104F300050BE05905CBE05900400002400000024D3
:104F40007CBA05903C6F36C05816002460160024C9
:104F5000CCBD0590C0BE0590CCBE05905402002487
:104F6000FC1E0024C8010024CDCC4C3D0AD7233CB4
:104F70000000000000606A4700002042000070430B
:104F80005FED067AAFE75FED067AC1E703EB8102DA
:104F9000D2F8C421A21AB2F5FA6F3BD803297FF7E1
:104FA00078ACD3F8CC21C3F8C821D3F8D021C3F80A
:104FB000CC21D3F8D421C3E974240A46013AD3F8AA
:104FC000C80103EB8201D1F8C811091A07EE901A43
:104FD000B8EE677A07EE902AF8EEE77AC7EE276A0E
:104FE0001FED1C7AC7EE267A1FED1D7AF4EEC77A04
:104FF000F1EE10FA10DB1FED1F7AF4EEC77AF1EE36
:1050000010FA09D8C3ED777A0122C3F8E44183F896
:10501000F12148E400213CE4D3ED777AF5EEC07A43
:10502000F1EE10FAF0DC3EE44BA84349FDF71CF822
:1050300033469DF835219DF834119DF82C01FCF77D
:10504000B3FF75E4FEA83D49FDF70EF833469DF821
:1050500001249DF800149DF8F803FCF7A5FF7CE4FB
:105060000022C3F8E821D3F8E0219AB1A21A40F651
:10507000D861A2F1C80088420CD807EE902A9FEDB3
:10508000307A0122F8EEE77A83F8F02167EE877A2A
:10509000C3ED7B7AC3F8E041AFE493F8F021002A36
:1050A0003FF4BAACD3F8E021002A3FF4B5ACA21A21
:1050B000B2F5FA6F82BF234A83F8F011C3F8EC21EE
:1050C000AAE493F8F12132B1D3ED777A9FED1E7AFD
:1050D000C7EE279AB4E4FFEE009A9FED1C8AB9E46C
:1050E0001B487AE53268002A3FF443AE194B01931E
:1050F00000230093534638E6012F09D1049B032B6C
:105100000FD8049A144B03EB8203D3F8182440E61B
:10511000B8F1030F05D8104B03EB8803D3F828240C
:1051200037E60E4A0B4B1521042001930023009310
:10513000039BFEF723FE2FE6B8220024FCB30024D5
:105140006F12833A000080BF000070420000000030
:105150000CBD0590581600247CBA05906ED70590BA
:10516000BE4DB0EE490AA5F10C00BBF1050F18BF0A
:105170002846FCF7D7FF05F5DA7089ED000AB0EE96
:105180004D0AC9ED01FA89ED02FAC9ED03EA89ED8C
:1051900004EAC9ED05DAFCF7C5FFB0EE408AB04B72
:1051A000A3F1040A322589ED068A5AF8042F52B178
:1051B000AC4B691C04200193002389B200934FF685
:1051C000FF73FEF7DBFDB9EC017A691EB5EEC07A1C
:1051D00089B2F1EE10FA00F12E81F7EE007AB4EE0A
:1051E000E77AF1EE10FA77FE877A039B9C22502033
:1051F0009FED9D7A00930123FEF7A2FD039B05F12D
:105200000C0150200093012389B2FEF799FD039B06
:1052100001222946502000930C23FEF791FD039BA9
:105220002946EB2000930C23FEF78AFD67EE877A70
:10523000FCEEE77A17EE903A9AB2002A40F0FE8030
:10524000C2F19A0102F1510000238AB2294600936B
:1052500080B20C23FEF774FD1E35ADB2B5F5827F2A
:10526000A3D10B9B5BB17F4B40F205117F4A042019
:105270000193002300934FF47843FEF77FFDBBF1C9
:10528000050FDFF82CA2DFF82C924FF0000597BF36
:10529000774B784A03EB8B03D3F8002424AB1A60D6
:1052A000049A032A9BBF724A0499724A02EB810254
:1052B00098BFD2F81824B8F1030F5A6097BF6C4A10
:1052C0006C4A02EB8802D2F828249A6005EB85002C
:1052D00019F8013B0001039304301FFA80FB002BF7
:1052E00000F0B780644B4FF6FF7833F81530AF42CB
:1052F00008BF98465AF8042B42B15A4958460191C2
:105300000021009140F21D11FEF738FD24AB53F847
:1053100025204AB1534B4FF4957158460193002311
:1053200000934346FEF72AFD039B4BB944F2082342
:1053300048224FF49771584600930123FEF700FD71
:105340000135032DC2D100274C4D4FF495714FF01C
:1053500001084FF6FF734A4A4C2001960097FEF76A
:105360000DFD4FF6FF73464A9C20CDE90076FEF70F
:1053700005FD85F8A48005F14006C5E92777FCF70F
:105380006BFF394605F1440002F0C2F9394605F1D8
:10539000580002F0BDF92C23424627A98DF89C3015
:1053A0003046642305F0B8FA414605F1580002F092
:1053B000AFF9344B4FF6FE723349C5F8943030469E
:1053C000324BC5F89830324B019600933B4605F0BE
:1053D000ADFA2746FFF726B9B8F1000F29D02D4BBB
:1053E00003F10C00B8F1030F08BF18469DED070A42
:1053F000FCF798FE284889ED000A9DED080AFCF7A5
:1054000091FE264889ED010AC9ED02AA9DED090A1F
:1054100089ED03AAC9ED049AFCF784FE204889EDC2
:10542000050A9DED0A0AFCF77DFE1E4BB0EE408A90
:10543000B6E61D48DAE7DFED1D7AD6E6039B29467E
:10544000512000930C23FEF77BFC992A3FF604AF12
:10545000F6E644F2082398464CE700BF00BD0590ED
:105460001C0200246016002400001A4370D7059027
:105470007CBA05906ED7059068BE05900819002487
:1054800075D705903A6F37C03C6F36C0025801009F
:105490009121049018BD0590D8BE059050BE05908E
:1054A0005CBE0590380200240CBD05900000000091
:1054B00070BE0590241C0024F8B54B4C6FF0F4131B
:1054C0000021042504F1D000C4F8BC10C4F8C810B1
:1054D000C4E92A13C4E92C33FAF7E7FE04F1E40027
:1054E000FAF7E3FE04F58070FAF7DFFE04F5967034
:1054F000C4F81811FAF7D9FE04F5BC7104F5A470CC
:10550000FAF7D3FE04F5AE70FAF7CFFE0846FAF7C5
:10551000CCFE01F11400FAF7C8FE0023013D01F1B1
:105520002C0101F8043C01F8033C01F8023CEDD1E8
:1055300004F50A71032601F108002431FAF7B5FEDB
:10554000013EF8D129483146294DFAF7AEFE07460B
:1055500020221C3015F0C0FA2846C4F8D862C4F8DE
:10556000DC6201F03BFC05F1D003224940F20F72EE
:105570002E61C5F8C03040F20113C5F8B8104FF4E1
:105580004070A5F8BC20C5F8CC602664C5E931366A
:1055900005F51045C5E97F1205F505720321C5E93A
:1055A0005806A7F51670C5E98123C5E98366FAF7A1
:1055B0007CFEA7F51170FAF778FEA7F50C70FAF7E4
:1055C00074FEA7F50770FAF770FE07F1440084F83F
:1055D000A460C4E92566C4E92766FAF766FE0139C6
:1055E00000F11400F9D1F8BD08190024A41B00240F
:1055F000F82100240080707F143001F04DBB00BF03
:1056000030B5054683B0143001F0F2FA05F114000C
:1056100001F0EAFA05F114008DED010A01F0D2FA69
:10562000D0ED007A9DED010AF8EE677A80EE277AD8
:1056300085ED1B7A03B030BD30B5054683B014301C
:1056400001F0C4FA05F1140001F0CEFA05F11400DE
:105650008DED010A01F0B6FAD0ED007A9DED010A58
:10566000F8EE677A80EE277A85ED1B7A03B030BDBD
:1056700000B540F203308FB000224FF60B7340F2BA
:105680000341ADF80800009209A8ADF81030ADF85C
:1056900024300123ADF80C10029907920C92CDE949
:1056A0000522CDE90A2201F015FF002204A80123FA
:1056B0000399009201F00EFF09A802F01DF810B93D
:1056C00001200FB000BD04A802F016F880F0010020
:1056D000C0B240000FB000BDF0B503239DB001255E
:1056E000002416934FF60B77384B0646ADF85470EE
:1056F0001393A3F19F631294A3F57D431995CDE90C
:1057000017541493FFF7B4FFA8423CD002282AD1C3
:105710002F4B2A460094CDF8523040F60133ADF8B5
:105720003470ADF82030234608991094CDE91A451D
:105730000DAD2846CDE90E4401F0CCFE21462846A9
:1057400001F0E6FF12A906F1700003F0DDFE214B27
:105750000FCB85E80F00326F294606F1140001F0E7
:10576000F7F91DB0F0BD40F60132194B06F15800B3
:105770001B95ADF820200DAD08991A94CDF8523044
:1057800000F0A2F8DEE71022114908900DAD8DF867
:105790003020114ACDF8521008A90A9003900992BE
:1057A0000B940494CDE91A0404A802F029F9082105
:1057B000039B2846079105A9049AADF814308DF88B
:1057C000164006930D9400F0BDF8BBE704020404F4
:1057D0000406040314C105900704010B70B540F2E0
:1057E000011284B0374B0446ADF80C200022029120
:1057F000012599888DF80E201A89E18022819989E6
:105800001A8A18886181A281998A1A8D9B8DE181FB
:10581000A3872285A0802582E562256407F00AF827
:10582000064606F05FFE034610BB0EB302A904F164
:1058300050008DF80E5006F07FFF072E3AD120461B
:10584000FFF74AFF04F1140001F0CEF904F114004F
:105850008DED010A01F0B6F9D0ED007A9DED010A57
:10586000F8EE677A80EE277A84ED1B7A04B070BD7B
:1058700002A904F15000019306F05EFF072E019B80
:1058800002D1002BDBD006E0211D2046019303F05E
:1058900073F8019B9BB104F12801084601F00AFD51
:1058A00004F13C01084601F005FD04F1120000F08E
:1058B00067F9C4E7211D204603F05EF8BFE7002E1C
:1058C000E9D0BCE7FCC0059010B584B000230446C5
:1058D0000122ADF80C100093039901F0FBFD0121AA
:1058E000204601F015FF012006F0FAFD00212046B8
:1058F00001F00EFF012006F0F3FD0121204604B067
:10590000BDE8104001F004BFC2F3002CFA2300B53B
:1059100087B04CEA410C017C8DF8152005AA009354
:1059200002238DF814C002F003F918B101231846C0
:1059300007B000BD03900A2006F0D2FD039B184675
:1059400007B000BD034630B5044685B043F8042BCC
:10595000FA2507C983E80700A1791E23009503AA49
:105960001A31ADF80C3020460223C9B2217402F07E
:10597000DFF810B1012005B030BD0A2006F0B0FDFF
:105980004FF4B85200950223ADF80C20204603AA2C
:10599000217C02F0CDF80028ECD10A2006F0A0FD11
:1059A00041F2027200950223ADF80C20204603AAB2
:1059B000217C02F0BDF80028DCD10A2006F090FD21
:1059C000042200950223ADF80C20204603AA217C76
:1059D00002F0AEF80028CDD10A2006F081FD0622A3
:1059E00000950223ADF80C20204603AA217C02F08A
:1059F0009FF80028BED10A2006F072FD41F208226D
:105A000000950223ADF80C20204603AA217C02F069
:105A10008FF80028AED10A2006F062FD4FF00A028E
:105A200000950223ADF80C20204603AA217C02F049
:105A30007FF800289ED10A2006F052FD23790C221F
:105A40000095002B217C8DF80C20204614BF62238A
:105A500042236A448DF80D30022302F069F80028D1
:105A600088D10A2006F03CFDA36800952046E26834
:105A7000217C1343627943EA4213227982F00102C6
:105A800043EA82130E228DF80D3002238DF80C208C
:105A900003AA02F04DF800287FF46CAF0A2006F04C
:105AA0001FFD102200950223ADF80C20204603AA0A
:105AB000217C02F03DF800287FF45CAF0A2006F05C
:105AC0000FFD122100950223ADF80C1003AA217CD2
:105AD000204602F02DF800287FF44CAF0A2006F093
