:02000004900466
:1000000000000220F3350490A1020490DDBD0490AD
:10001000A1020490A1020490A1020490000000003B
:10002000000000000000000000000000A102049099
:10003000A102049000000000A102049061BD0490A0
:10004000A1020490A1020490A1020490A1020490D4
:10005000A1020490A1020490A1020490A1020490C4
:10006000A1020490A1020490A1020490CD8D0490FD
:10007000D98D0490A1020490E58D0490F18D049037
:10008000F1B504907D730490A1020490A102049044
:10009000A1020490A1020490A1020490A102049084
:1000A000A1020490A1020490A1020490A102049074
:1000B000A1A70490ADA70490B9A70490BD730490C4
:1000C000A1020490C9730490A1020490F99D0490C8
:1000D000059E049001B4049031B4049069B4049076
:1000E000A1020490A102049000000000A10204906B
:1000F000A1020490A1020490A1020490A102049024
:10010000A1020490A1020490C5A70490119E04903E
:10011000A1B40490D9B40490A1020490A102049067
:10012000A1020490A1020490359E0490759E049053
:1001300031B60490A1020490A1020490A10204909F
:1001400000000000000000000000000000000000AF
:10015000A1020490A1020490A102049011B50490A0
:10016000D5730490A102049071BD049095BD0490D4
:10017000A1020490B9BD0490A1020490A1020490D0
:10018000A1020490A102049049B5049081B50490A5
:100190001D9E0490299E0490A1020490A102049047
:1001A000A1020490A1020490A1020490A102049073
:1001B000D1890490A1020490A1020490A1020490AC
:1001C000A1020490A10204904986059055860590ED
:1001D000A102049061860590A1020490A1020490FE
:1001E000A1020490A1020490A1020490A102049033
:1001F000A1020490A1020490A1020490A102049023
:10020000A1020490A1020490A1020490A102049012
:10021000A1020490A1020490A1020490A102049002
:10022000A1020490A1020490A10204900000000029
:10023000A1020490A102049000000000A102049019
:10024000A1020490A1020490A1020490A1020490D2
:10025000A1020490A1020490A1020490A1020490C2
:10026000A1020490A1020490A1020490A1020490B2
:10027000A1020490A1020490B9B50490000000000E
:10028000A1020490A1020490A102049000000000C9
:0802900000000000A10204902F
:1002A000684620F007018D46FEE700234FF60B72EB
:1002B000C0E90233C0E900237047704770B5094EAA
:1002C0000446094D287056F820000368DB689847FB
:1002D00056F82420EFF3108372B6EA6003B962B6D1
:1002E00070BD00BFA81700240000002410B5084C02
:1002F000207404EB800460690368DB6898476169D7
:10030000EFF3108372B6034A916003B962B610BD71
:10031000A81700240000002438B5094C094D04EB4F
:10032000800485F8FC00E06A0368DB689847E26AAD
:10033000EFF3108372B62A6103B962B638BD00BF0D
:10034000A81700240000002470477047DFED137ADF
:10035000B7EE007AB4EEE70AF1EE10FA1BDD30EEEC
:10036000670AFFEE006A9FED0E6AB4EEC60AF1EE70
:1003700010FA01DD37EEC00A20EE006ADFED095AFF
:1003800020EE260ADFED086AE6EE656AA6EEC67A7A
:1003900027EE000A7047F0EE476AE4E7DB0F4940BA
:1003A000DB0FC93F8588083CABAA2A3EEFF31082D9
:1003B00072B6044B012183F8CA0083F8C91002B950
:1003C00062B6704700000024D0ED007AF4EE407A67
:1003D00008B5F1EE10FA20D0DFED127A80ED000AB8
:1003E00020EE275A37EEC50AFFF7B0FF81ED000A6D
:1003F000B0EE450AFFF7AAFF82ED000AD1ED007AC0
:1004000030EE270AF7EE007AB4EEE70AF1EE10FAC2
:1004100004DD87EE807A83ED007A08BDB0EE677A5E
:10042000F9E700BFDB0FC93F754B2DE9F04FDC6BDF
:10043000824688462DED028B87B00192002C60D059
:1004400094F8C43043B1D4F8C03083F00103C4F849
:10045000C030002384F8C43094F8C5304BB1002379
:10046000E06884F8C53020B1036894F8C610DB69F1
:100470009847D4F8C050582304F1D00204F1CC01BD
:100480005D4304F1C80004F1D403661905F11007B7
:1004900096ED060A2744FFF797FF04F1E40304F101
:1004A000E00204F1DC0104F1D80096ED0D0AFFF73B
:1004B0008BFF04F1E80004F1F40304F1F00204F10D
:1004C000EC0196ED140AFFF77FFF606818B103682E
:1004D00039461B69984705F12C06A068264418B1D7
:1004E000036831461B6998474835E068254418B1D0
:1004F000036829461B6998474FF00009019B4B454B
:1005000004D107B0BDEC028BBDE8F08FDAF8002013
:100510004FEA890B606802EB890292ED008A00289D
:100520006AD00268B0EE480AF0EE480A8DED048AFF
:100530008DED058A394652699047D4ED347A8DEDB8
:10054000020A27EE800AD4ED336A67EEA07A94EDB2
:10055000357ACDED030AA8EE260AE8EE267A60EE9B
:10056000078A27EE878AA068D8B10268B0EE680AC9
:1005700031465269904794ED388A8DED020A28EE93
:10058000000A94ED377A28EE208AD4ED397ACDED41
:10059000030AA8EE870AA8EE878A60EE278A28EE6B
:1005A000278AE068D8B10268B0EE680A2946526925
:1005B000904794ED3C8A8DED020A28EE000A94EDF6
:1005C0003B7A28EE208AD4ED3D7ACDED030AA8EEE1
:1005D000870AA8EE878A60EE278A28EE278AD8F84D
:1005E000002009F101095A44C2ED008AD8F804201C
:1005F0005A4482ED008A81E7F0EE488AB3E700BFF3
:10060000A8170024FCEEC07A426817EE903AB8EEC4
:10061000677A012B30EE470A38BF01239A4280EDFA
:10062000040A98BF02F1FF33C36070478368026811
:1006300002EB830282ED000A03B94368013B836049
:100640007047D0E9023290ED047A134442689A422E
:1006500098BF9B1A591C8A4298BF891A026802EBFC
:10066000830302EB810293ED000AD2ED007A77EE6C
:10067000C07AA7EE870A7047FCEEC07A42688168AC
:1006800017EE903AF8EE677A9A4270EE677A98BF62
:1006900002F1FF330B449A4298BF9B1A591C8A42BD
:1006A00098BF891A026802EB830302EB810293ED83
:1006B000000A92ED007A37EE407AA7EE270A7047DB
:1006C00008B5062846D8DFE800F004071E2B32459F
:1006D0003900BDE8084039E69FED207ADFED207A49
:1006E000B4EEC70A60EE277AF1EE10FA06D5B7EE3F
:1006F000007A77EEC77AB0EE670A08BDB0EE087AE6
:1007000077EE677AF7E7DFED157ABFEE007AF4EE61
:10071000C07AF7EE007AF1EE10FA77FE877AEAE710
:10072000FFEE007A9FED0F7AE0EE077AE3E7F7EE4F
:10073000007A9FED0C7AE0EE477ADCE7FFF706FEE1
:10074000B5EEC00A60EE007AF1EE10FAD3DAF1EEFF
:10075000677AD0E7DFED047ACDE700BFDB0F4940D1
:1007600083F9223F83F9A23E00000000024600699F
:10077000052892ED005A08B514D192ED030AD2ED86
:10078000017A75EE277AC2ED007ADFED1A6AF4EE8F
:10079000E67AF1EE10FA0ADAF5EEC07AF1EE10FA26
:1007A00016D408BDB0EE450AFFF78AFFE7E75169A6
:1007B00077EEE67A1048114BC2ED007A00FB013368
:1007C00007EE103A5361BAEEE07A82ED037ADCE785
:1007D000516977EEA67A0848084BC2ED007A00FB13
:1007E000013307EE103A5361BAEEE07A82ED037AF4
:1007F000D2E700BFDB0FC9400D6619005FF36E3C06
:1008000002460069052892ED005A08B518D192ED0C
:10081000030AF0EE457AD2ED016A9FED1D7AE6EE0D
:10082000877AC2ED007ADFED1B6AF4EEE67AF1EE2C
:1008300010FA0ADAF5EEC07AF1EE10FA16D408BD15
:10084000B0EE450AFFF73CFFE3E7516977EEE67A41
:100850001148124BC2ED007A00FB013307EE103A4B
:100860005361BAEEE07A82ED037ADCE7516977EE04
:10087000A67A0948094BC2ED007A00FB013307EE66
:10088000103A5361BAEEE07A82ED037AD2E700BF04
:1008900000004042DB0FC9400D6619005FF36E3C5B
:1008A000D0ED057A90ED017A30EE670AD0ED026A5C
:1008B000E7EE007A90ED060A37EEC07AC0ED057AD1
:1008C000A6EE870A90ED047A80ED060A37EEC00A9C
:1008D00020EE070A90ED037AA7EE870A7047D0ED65
:1008E000007AB6EE006AD0ED014A90ED025A37EE7A
:1008F000A47AD0ED035A77EEE47A75EE076A37EE04
:10090000457A76EEA56A37EE657A66EE866A27EE58
:10091000067AC0ED006A75EE276A77EEC57A80ED3B
:10092000027A76EEE56A77EEA57A66EE866A67EE7B
:10093000867AC0ED016AC0ED037A7047D0ED007A87
:10094000B0EE407A90ED016A70EE677ADFED056AED
:1009500080ED007AE6EE267AB0EE670AC0ED017A05
:10096000704700BF52B87E3F00487047BBC3059038
:10097000B3EE0E7AD1ED067AD1ED006AB0EE406AA0
:10098000B7EE000A67EE877A90ED107A30B567EE21
:10099000877A9FED197A85B004460D46E6EE877A90
:1009A000F4EEC07AF1EE10FA07D49FED140AF4EEDB
:1009B000C07AF1EE10FA30FE270A1148FFF722FE46
:1009C000FFF73FFE04F11C00FFF76AFF95ED017A87
:1009D000F0EE407A0A48A7EE006AB0EE460AFFF74A
:1009E00025FEB0EE670A04F13800FFF7A7FFF0EE2E
:1009F000400A05B030BD00BF00803B47C09F0C4897
:100A0000000100247047D0ED007A20EE270AF7EEAF
:100A1000007AB4EEE70AF1EE10FA07DCFFEE007A96
:100A2000F4EEC07AF1EE10FA77FE807AB0EE080AA2
:100A3000A7EEE70A60EE277A9FED020A27EE800A0A
:100A4000704700BFABAAAA3E00487047C3C30590D9
:100A50009FED2E7AF7EE005AD1ED067AB0EE406A9D
:100A6000D1ED006A67EE877A90ED117A30B567EEC6
:100A7000877A9FED277A85B004460D46E6EE877AA1
:100A8000F4EEE57AF1EE10FA3AD49FED220AF4EE94
:100A9000C07AF1EE10FA30FE270A1F48FFF7B2FDC8
:100AA000FFF7CFFD04F11C00FFF7FAFED5ED047A45
:100AB00004F1380077EEA57A27EE800AFFF7A3FF4E
:100AC000D5ED017AB0EE407AA7EE806AB4EEE56A21
:100AD000F1EE10FA17DCFFEE007AF4EEC67AF1EED2
:100AE00010FA37FE860A0C48FFF7A0FDB0EE470A61
:100AF00004F13C00FFF722FFF0EE400A05B030BDE4
:100B0000B0EE650AC9E7B7EE000AECE7000048421C
:100B100000803B47C09F0C481401002470470148E7
:100B2000704700BFC8C30590B0EE405ADFED367A7B
:100B300091ED000A90ED197A20EE270A91ED066AF0
:100B4000F6EE007A30B5E7EE277A04462F4885B0F6
:100B50000D46F0EE676AF5EE007AE6EEA77AB0EEA3
:100B6000677AF7EE007AE6EE077A9FED297A67EE6C
:100B7000807AF4EEC77AF1EE10FA77FE276AFFF773
:100B800041FD1430B0EE660AFFF73CFD1438FFF764
:100B900058FDF0EE406A1430FFF753FDF0EE405A76
:100BA00004F11C00B0EE660AFFF77AFE04F138008B
:100BB000B0EE406AB0EE650AFFF772FEF0EE405A02
:100BC000B0EE450AD5ED017A1048A7EE860AFFF788
:100BD0002DFDA7EEA55A1430B0EE450AFFF726FD0D
:100BE000B0EE460A04F15400FFF7A8FEB0EE405AFA
:100BF00004F15C00B0EE650AFFF7A0FEF0EE400ADB
:100C0000B0EE450A05B030BD00803B472801002406
:100C1000C09F0C4870470148704700BFCDC3059086
:100C2000D1ED057A9FED2D7ADFED2D4A67EE877ABB
:100C300038B567EEA47A0D4604460430C0ED017A5B
:100C4000FFF7DEFD9FED277AD5ED007AF0EE406AE2
:100C500084ED0B0A67EE877A9FED230A2348F4EEB2
:100C6000C07AF1EE10FA30FE270AFFF7CBFC95EDC3
:100C7000065A9FED1F7A66EE856ADFED1E7A9FEDBC
:100C80001E0AE6EE877AF4EEC07AF1EE10FA07D487
:100C90009FED1A0AF4EEC07AF1EE10FA30FE270A40
:100CA000DFED177A20EE270A20EE240AFFF74EFB2D
:100CB00030EE000ADFED137A9FED137AB4EEE70A07
:100CC000F1EE10FA77FE807AC4ED0C7AF0EE007A3D
:100CD000E5EE477AC4ED0D7A38BD00BFDB0FC940A1
:100CE0003EC3AE3700803B47C09F0C4850010024F4
:100CF0000000FA440000C8430000204200401C46A7
:100D0000DB0F49409A99D93F9A99F93F30B504468B
:100D100085B01E48B0EE406A0D46FFF792FCD4ED58
:100D2000097AD4ED0D5A94ED0A7AA5EEE70AD4EDCE
:100D30000C6A30EE470AE6EE807AA6EEA77AC4ED9A
:100D4000097AF7EE007AB4EEE77A84ED0A7AF1EEEA
:100D500010FA07DCFFEE007AF4EEC77AF1EE10FA33
:100D600077FE877A95ED017A0848A7EE276AB0EEFC
:100D7000460AFFF75BFCB0EE670A04F11C00FFF7C0
:100D8000DDFDF0EE400A05B030BD00BF500100248B
:100D90007047B4EE400AF1EE10FA0DD1DFED127A91
:100DA000B4EEE70AF1EE10FA06DCDFED107AB4EEED
:100DB000E70AF1EE10FA04D59FED0D0A0DE030EED2
:100DC000670ADFED0C7AB4EEE70AF1EE10FAF6DA14
:100DD000B5EEC00AF1EE10FA02D480ED020A7047B7
:100DE00030EE270AF4E700BF00247449002474C9D8
:100DF00000000000DB0FC94000487047D4C30590D5
:100E000030EE200AB6EE004AF0B5856F20EE040AF7
:100E100087B00446ADBBD0ED137AB2EE026ADFEDC7
:100E2000656A30EE670A826E6349644BE0EE267AAB
:100E300001FB02338366B0EE677AC0ED137AD0ED22
:100E4000147A37EE677AE7EE267A07EE103ADFED8E
:100E50005C6ABAEEE07A27EE267ADFED5A6AC0EDD8
:100E6000147AE7EE267AB3EE0B7AF0EE476A27EEB5
:100E7000866AE7EEA76AA7EE867A66EEA76A86EE2E
:100E8000870A5148FFF7D2FB012D51D1261D04F1ED
:100E90006C0504F17807D4ED1F4A3046D4ED203AB2
:100EA000FFF764FCB0EE647AF7EE007AA3EE807A86
:100EB000B4EEE77AF1EE10FA07D4DFED447AB4EE3F
:100EC000E77AF1EE10FA67FE877AE5EC017ABD4227
:100ED00006F11806DFD13C4894ED1B0AFFF7CCFB66
:100EE000F0EE405A94ED1C0AFFF7C6FBF0EE406AA4
:100EF00094ED1D0AFFF7C0FB75EEA66A75EE805AE9
:100F000066EE846A65EE845AB0EE660A04F1580013
:100F1000FFF714FDB0EE405A04F16000B0EE650A30
:100F2000FFF70CFDF0EE400AB0EE450A07B0F0BD49
:100F3000032D0CD194ED1B0AFFF79EFBF0EE406AE7
:100F400094ED1C0AFFF798FBF0EE405ADCE7D4ED75
:100F50001F4A201D94ED204AFFF708FCF0EE647A4A
:100F6000E4EE007AB7EE000AF4EEC07AF1EE10FA81
:100F700007D49FED160AF4EEC07AF1EE10FA20FEC7
:100F8000270A1148FFF778FBF0EE406A7DB9D4EDEF
:100F9000157A9FED087A30EE676AE6EE077A9FEDE4
:100FA0000C7AC4ED157A70EE677AE7EE876AF0EE98
:100FB000665AA9E76666E63E0D6619005FF36E3C69
:100FC0009A99193E6F12033B6401002400E0154515
:100FD0009A99993E70470148704700BFDBC305905E
:100FE000D1ED007A9FED177A67EE877A9FED167A3A
:100FF00067EE877A9FED157AC0ED027AD1ED057A1A
:1010000067EE877AFDEEE77A17EE903A052B10D857
:10101000DFE803F003140B160B164FF07E520C4B57
:1010200043624B68C262836270474FF07E52094B45
:10103000F6E7012B4FF07E52F9DCF0E7064AEEE7C7
:10104000054AF4E7DB0FC9403EC3AE37CFF7BF40D8
:10105000000070430000E643000080BF30B587B059
:10106000044604300D468DED020ACDED030AFFF76C
:101070007DFBF6EE006A94ED0A7A94ED096AF0EED3
:10108000667AE0EE267AB7EE000A27EE877AF0EE6F
:10109000407AE7EE067AF4EEC07AF1EE10FA07D461
:1010A0009FED1A0AF4EEC07AF1EE10FA20FE270A3C
:1010B0001748FFF7A7FAFFF7C4FAD5ED047AB0EEA8
:1010C000406A9FED140A9DED027A67EE807ADDEDAD
:1010D000035A37EE257AF4EEC07AF1EE10FA30FEBC
:1010E000270A20EE060AD4ED0B7A20EE270AA7EE97
:1010F000260AFFF79BFAB0EE460A04F11C00FFF740
:101100001DFCF0EE400A07B030BD00BF0080FF4379
:10111000780100246666663F70470148704700BF4B
:10112000E3C30590D1ED007A9FED1B6ADFED1B6AEA
:1011300027EE867A27EE267A80ED027A80ED087A0D
:101140009FED177A67EE877AB2EE0E7A67EE867AAF
:1011500067EEA67AD1ED046AC0ED0E7AC0ED147A7E
:10116000F7EE007AE6EE877A9FED0E7AC0ED197AF7
:10117000D1ED017A27EE877A80ED1E7A9FED0A7A0B
:1011800027EE877A80ED1F7A9FED087A67EE877ADF
:10119000C0ED207A704700BFDB0FC9403EC3AE37B9
:1011A000295C0F3FCDCCCC3E0000C8420000484334
:1011B00091ED047A30EE800ADFED647AF6EE004AB3
:1011C000B4EEE77A20EE240AF1EE10FA30B50446C8
:1011D00087B00D4602DD6430FFF715FC95ED036A1C
:1011E000201DDFED5B6ADFED5B7A94ED214AE6EED0
:1011F000267A30EE447AA7EE274A84ED214A70EE33
:10120000440AFFF7B3FA04F11C00B0EE402AFFF7DE
:10121000ADFA04F13400B0EE403AFFF7A7FA04F15A
:101220004C00F0EE402AFFF7A1FAF0EE647A94ED5C
:101230001E7AF7EE006A94ED205AF0EE645AE2EE60
:10124000247AF0EE663AE2EEA45AB0EE666AE7EE71
:10125000673AF0EE647AE3EE247AB0EE663AE0EEB6
:10126000244AA7EE673ADFED3C7A67EEC77A9FED36
:101270003B7AA5EEA76AF0EE665AE4EEA75AD4EDE3
:101280001F7AA7EE827ADFED367AE5EE227AB4EEA7
:10129000E67AF1EE10FA52D49FED320AB4EEC07A3B
:1012A000F1EE10FA20FE070AF4EEE67AF1EE10FAFB
:1012B00048D49FED2D5AF4EEC57AF1EE10FA25FED2
:1012C000275A2A48FFF79EF9B0EE600AFFF7AEF9F9
:1012D000FFF7B7F91430F0EE404AB0EE450AFFF7D9
:1012E00091F9B0EE440AFFF7A1F963EEA43AFFF7D3
:1012F000A8F9D5ED057A26EE006A04F1680076EECD
:10130000E76A65EE805A23EE243A26EE266A65EEF9
:10131000A65AA3EEA76AE3EE275AB0EE460AFFF7F5
:101320000DFBB0EE405A04F17000B0EE650AFFF715
:1013300005FBF0EE400AB0EE450A07B030BDB0EE56
:10134000660AB1E7B7EE005ABBE700BF0AD7A33C75
:10135000CDCCCC3ECDCC4C3D3333333F0000F042BE
:101360000000704300007F430080FF438C01002495
:1013700070470148704700BFEAC305900368DB6807
:101380001847002243F239010023C0E90521064A2B
:101390004360C360036182600362836203638363AB
:1013A000C3630364436470471F420939D1ED007A77
:1013B0009FED057A67EE877A9FED047A67EE877A6C
:1013C000C0ED027A704700BFDB0FC9403EC3AE37A5
:1013D00030B58BB0044604300D468DED020ACDEDDC
:1013E000030AFFF7C3F9B5EEC00A60EE007AF1EE2A
:1013F00010FA01DAF1EE677AB5EE007A95ED016A3E
:10140000DFED335ADFED336A26EE077A9FED320ABD
:1014100066EEC66ADFED314A314BE7EE275AB6EE8B
:10142000007A0FCBB0EE475AA7EE875AF7EE007A54
:10143000E5EE267A9DED025AB4EEE70AF1EE10FAD7
:1014400070FE276ADDED037A35EE275AD5ED047A72
:1014500006AD67EEA47AD4ED114A85E80F0067EE79
:10146000A47A2B46224604F12001E5EE077AB0EE7D
:10147000655AB3EC017AA6EE075A9FED1A7AB4EEDC
:10148000C75AF1EE10FA07DC9FED177AB4EEC57A71
:10149000F1EE10FA37FE057A92ED080A083282ED75
:1014A000057AA7EE270AE7EE407AC2ED067A914266
:1014B0000BD126EE800A04F13C00FFF73FFAF0EE74
:1014C000400A84ED110A0BB030BDF0EE407ACEE751
:1014D000333333BF9A99993ECDCCCC3D3333333F30
:1014E000D0A905900AD723BCA4707DBF70470148DE
:1014F000704700BFEFC305900368DB681847002200
:1015000003461C499FED1C0A10B5426043F23904A2
:10151000C26002610020996019629A62C3E9050401
:10152000C3E90B0403F11C00FFF733FC596A03F114
:10153000B400D96103F13401814218D1C3F8B42059
:101540004FF03F41C3F8B820C3F8BC20C3F8C02017
:10155000C3F8C820C3F8CC20C3F8D0200422C3F8B5
:10156000C410C3F8D420002283F8D82010BD4A60EC
:101570000831E1E71F428938DB0FC93FD1ED007A1E
:101580009FED1D7AD1ED036A67EE877A9FED1B7A96
:1015900067EE877A9FED1A7AC0ED027AC0ED087A7D
:1015A000D1ED057A67EE877A9FED167AFDEEE77A40
:1015B00017EE903ADFED147AE6EEC77A052B9FED31
:1015C000137AD4BF00220122062B80F8D820A8BFAE
:1015D00006230F4AF1EE677A23EAE373C0ED317A0E
:1015E00002EB8303D1ED017A1B6967EE877AC0F8BD
:1015F000D430C0ED327A7047DB0FC9403EC3AE37FE
:10160000CFF7DF409A99593F3333733FCDCCCC3E6F
:10161000D0A90590DFED5F7AF0EE402AD1ED044AC3
:101620009FED5D2A64EEA74A10B5044686B00430EB
:10163000FFF79CF894ED313AD4ED321AF0EE403ACF
:10164000F0EE437AE1EE807AF4EEC27AF1EE10FA2F
:1016500076DC9FED524AB4EEE74AF1EE10FA34FE22
:10166000274A94F8D83072EEA00AF6EE002A002B32
:101670006CD004F11C00FFF779F8B0EE437AA1EECC
:10168000807AB4EEC27AF1EE10FA5CDCDFED437AD8
:10169000F4EEC77AF1EE10FA77FE877A94ED330A0A
:1016A000234694ED347A04F1200124EE800A224688
:1016B00064EE875AA0EEA20AE0EEA25AD2ED0E6ABC
:1016C000B0EE407A82ED0D4A0832E0EE046AA4EEF4
:1016D000667AB0EE660A82ED0C7A9142EED1D3EDD5
:1016E000166AB0EE657AC3ED157A0833E5EEA76A9F
:1016F000A7EEE67AF0EE665A83ED147A9942EED1BF
:1017000004F1B400FFF71AF904F1BC00B0EE405A3E
:10171000B0EE650AFFF712F9F7EE007A84ED340AAD
:1017200084ED335A73EEA73A63EEA23A77EEE37A8A
:1017300027EE800AA5EE230AF0EE400A06B010BD9F
:10174000B0EE424A8DE7DFED147AA7E7D4ED337AA5
:1017500004F13402D4F8D41024EEA70AA0EEA20AB1
:10176000994206DC04F1B400FFF7E8F884ED330A8F
:10177000E2E710460832013380ED004A52ED017A6B
:10178000E4EE007AA4EE670A02ED010AB0EE670A01
:10179000E6E700BF3333733F0AD723BCA4707DBF95
:1017A00070470148704700BFF6C305900368DB68C7
:1017B0001847002343F239024360C36003610023EA
:1017C000C0E90532024B83604FF07C53C361704720
:1017D0001F42093AD1ED057A9FED0D7A67EE877ABF
:1017E000FDEEE77A17EE903A13B1012B18BF0623EE
:1017F000D1ED007A9FED077A436167EE877A9FED1E
:10180000067A4B6867EE877AC361C0ED027A70474B
:101810009EEF3F40DB0FC9403EC3AE3710B586B0E8
:1018200004460430CDED030A8DED020AFEF79EFF5B
:10183000F6EE007AD4ED076AB7EE007ADDED030A22
:10184000E0EE277A9DED020AA6EEE77ADFED067A52
:10185000F4EEC77AF1EE10FA77FE877A20EE270AC7
:1018600060EEA70A06B010BD000000007047082314
:1018700070B5C0F8543205460E46002305F1140435
:10188000F2181C440C3307CA602B84E80700F5D11A
:1018900070BDDFED1A0AB0EE406AF0EE606A7FB507
:1018A000D0F8546200F114040025AE4207DCB0EE1B
:1018B000460AFEF7BBFEB0EE660A04B070BD34F80F
:1018C0000C3B013500EE103AB8EE400AFEF7D4FEAC
:1018D00014ED027A54ED017A20EE070AB6EE007A92
:1018E00020EE070AB7EE007A77EE675A77EE877A2E
:1018F000E0EE256AE0EE270AD7E700BF000000000F
:1019000008B5F0EE406AFEF79CFEF0EE407AE0EE9D
:10191000E67AE0EEA76AB0EE660AFEF787FEB0EE62
:10192000670A08BD00487047FFC3059080F814148B
:1019300070470120704770470048704704C4059005
:1019400080F814147047704708B5F0EE406AFEF74F
:1019500078FED0ED077AB0EE407AD0ED065A30EE40
:10196000676AE5EE867A90ED056AE7EE866AC0ED75
:10197000077AB0EE660AFEF759FEB0EE470A08BDD8
:101980000048704709C4059030B50446B0EE405A8F
:1019900085B0043004F15405A8423BD1F7EE004A6B
:1019A000D4ED3D7AB0EE450A74EEE74AFFF7CCFF7E
:1019B00004F17400B0EE403AB0EE450AFFF7C4FF00
:1019C00004F19400F0EE403AB0EE450AFFF7BCFF98
:1019D00020EE244A04F1B400B0EE450AFFF7B4FF4C
:1019E000F6EE005AA3EE244A04F1D40020EE246A55
:1019F00024EE250AFEF754FFA3EEA46AB0EE405A87
:101A000026EE250AFEF74CFFF0EE400AB0EE450A3E
:101A100005B030BDB0EE450AF6EE080AFFF770FFDC
:101A20001430B0EE405AB7E780F8F01059B9D0F84A
:101A3000F430C0F8F4308366C0F88830C0F8A830BD
:101A4000C0F8C83070474FF07E53F2E77047014846
:101A5000704700BF0FC405902DE9F04F044685B0D4
:101A600000F5E6709FED3A7AFEF7CDFFD1ED067AEC
:101A7000B0EE404AF4EEC77AF1EE10FA39D49FED99
:101A8000357AB4EEE77AF1EE10FACCBF02250325E1
:101A90009FED315A04F5B67904F5F87A04F104089B
:101AA000F0EE454A0026F0EE447ADFF8BCB040463E
:101AB00000270137B0EE670AFBEC010AFFF720FFB1
:101AC000062FF0EE407A00F11400F2D14846FFF7FD
:101AD0003BFFB7EE007AFAEC017A77EE677A27EEF1
:101AE000800A46B974EE804ADFED1C7AA0EE275AD0
:101AF00009E00125CCE7012E25D1DFED197A35EE7D
:101B0000005AE0EE274A013609F1200908F1780869
:101B1000B542C8D107EE905A04F5E870F8EEE77ABE
:101B200087EE276A24EE860AFEF7BAFE8DED020ADA
:101B300025EE060AFEF7B4FEF0EE400A9DED020A1D
:101B400005B0BDE8F08FDFED077AE0EE274ACDE77C
:101B5000C3F5A83EC3F5283F000000003333333FF0
:101B60009A99193FCDCC4C3FFCA9059080F8EC1117
:101B700061B9D0F8F031C0F88031D0F8F431C0F854
:101B8000A031D0F8F831C0F8C03170474FF07E5323
:101B9000C0F88031C0F8A031F5E770471BB9136970
:101BA0000BB1D26818477047042807EE902A42D03C
:101BB000082842D003284BD1A1F10E02F8EE677A33
:101BC0009FED247AD0B267EE877A062807D803EB18
:101BD00082011A440123C1ED007A13777047A1F105
:101BE0001502D0B2062808D803EB81011A4401235C
:101BF00041ED0C7A82F840307047A1F11C02D0B25E
:101C0000062808D803EB81011A44012341ED0A7A22
:101C100082F86430704741291AD1B6EE007A012269
:101C2000F4EEC77AF1EE10FA02DD83F87220704705
:101C300083F873207047D9667047F82903D10122D1
:101C400083F870207047FC2904BF012283F87120BB
:101C5000704700BF0402013CD0E902310246581A25
:101C600044BF5368C018704770B5D1E90234A4B0BE
:101C70000646A3420D4606D19022002117F0D6FE5B
:101C8000304624B070BD90220968684602FB0411FA
:101C9000013417F010FF6B68EC6090229C4269469B
:101CA000304624BFE41AEC6017F005FFE8E7D0EDFA
:101CB000020AF0EE407AF5EE400A10B5F1EE10FAA5
:101CC000044626D0F5EEC00AF7EE006AF1EE10FAEF
:101CD0000DDD70EEA60AB0EE007AF4EE470AF1EEE2
:101CE00010FA14D0B0EE670A17F0EEF90CE036EEF9
:101CF000E07AC6EE870AB6EE007AF4EE470AF1EE15
:101D000010FAEFD117F0BAFCF0EE407A01E060EE85
:101D1000007A94ED000A94ED017A37EE407AA7EE4E
:101D2000270A10BDD0ED007A90ED017A30EE670AF7
:101D300037EE677AC0EE077AF5EEC07AF1EE10FA68
:101D40001BD4B7EE000AF4EEC07AF1EE10FA30FEC2
:101D5000270AD0ED027AF5EE407AF1EE10FA14D0AF
:101D6000F5EEC07AB7EE007AF1EE10FA08DD77EE04
:101D7000870AC7EE200A17F0A7B99FED040AE8E723
:101D800077EE677AC7EE270AF3E770470000000096
:101D900037B5856D04468DB14FF6FE72416DAA428E
:101DA00028BF2A468B18AD1A43650B4B85650093F7
:101DB0000023019008F0AAFA03B030BD01210430DD
:101DC00005F096F9E36D84F86450002BF4D0206E92
:101DD00003B0BDE830401847911D049013B50E4C78
:101DE00000218DF8070004F1440005F081F904F1A9
:101DF0005800002105F07CF9642301220DF1070150
:101E000004F1400008F078FA012104F1440005F0E3
:101E10006FF902B010BD00BFA817002470B50D4CBB
:101E200005460E46002104F1440005F061F904F175
:101E30005800012105F05CF92946324604F14000C2
:101E4000642308F059FA04F144000121BDE8704010
:101E500005F04EB9A81700244FF06F4307B52A20AC
:101E60000093FFF7BBFF04216846FFF7D7FF064B3F
:101E70002B200193FFF7B2FF04210DEB0100FFF7C8
:101E8000CDFF03B000BD00BF0000013F10B5044608
:101E9000006820B162680021920017F0C7FD01239D
:101EA0000022C4E902230023236110BD0B68D1ED99
:101EB000117A082BF5EEC07AA8BF0823012BB8BF12
:101EC0000123F1EE10FA2DE9F0410746C0F84C313C
:101ED00001DCDFED217A0C463D4607F1A0064FF00C
:101EE0000008C7ED527A54F8042F2846236AC5E942
:101EF0000023FFF7CBFF216A284614354B1E06EE60
:101F0000903AF8EE666AB0EE660AFEF77BFB07EEE3
:101F1000901AC6ED086A0023F8EE677AD7ED526A88
:101F20000E4A87EEA67A07EE908A08F10108F8EECD
:101F3000E76AA6EC017AF365D7F84C31F26307EE55
:101F4000903A4345B8EEE77AC6EE877AC6ED1F7A37
:101F5000C9DCBDE8F08100BF00803B473333333F2D
:101F600010B504460348FFF791FF0023A363E36322
:101F700010BD00BF0001002410B504460348FFF760
:101F800085FF0023E363236410BD00BF1401002418
:101F900038B504460548FFF779FF0548FFF776FF97
:101FA00000236365A365E365236638BD280100242B
:101FB0003C01002410B50D4B04460D48C0F85031CB
:101FC00000F5A8700B4B4360FFF760FF002243F25F
:101FD00039010023C4E90521074A6360E3602361F6
:101FE000A260E36123626362A36210BD281D08C082
:101FF00000000024803202001F42093910B5044657
:102000000448FFF743FF0023E36123626362A36296
:1020100010BD00BF5001002410B5164B04461648F1
:10202000C0F864314FF4166300F5B2704360FFF7F7
:102030002DFF201D002207EE902A002143F2390CCB
:102040000023B8EEE70ADFED0D7A01328360C3604A
:1020500020EE270AC0E9041C09494160FEF799FEF9
:102060008168032A40F8181BE5D1A365E365236660
:10207000636610BDA8F707C000000024910A06405F
:102080001F42893810B504460E48FFF7FFFE43F2A1
:102090003902E368A26604226360636AA267E361AF
:1020A000E36B094A63630023E267A365E365236684
:1020B0006366E36423656365C4F88030E366236781
:1020C000636710BD640100240000404210B50D4B51
:1020D00004460D48C0F878314FF4007300F5BC7029
:1020E0004360FFF7D3FE002243F239010023C4E925
:1020F0000521064A6360E3602361A260E361236215
:1021000010BD00BF000000C000000024BFB524388F
:1021100010B504460448FFF7B9FEE3686360002386
:10212000E361236210BD00BF7801002438B5254D5E
:102130000446254B05F5C670C5F88C314FF4807305
:10214000C5F89031FFF7A2FE204B05F5D070C5F819
:10215000A0314FF40073C5F8A431FFF797FE0023B8
:10216000002243F239011A489FED1A0AA06020624A
:1021700004F11C006360E3602361A362C4E90521EC
:10218000C4E90B21FEF705FE606A9FED120AE061CB
:1021900011486363A063206504F14C00E36323648A
:1021A000A365C4E91121C4E91721FEF7F2FD626DB0
:1021B000A366E2644FF07E52E3666266236763675C
:1021C00038BD00BF00000024000800C0000C00C0A3
:1021D0009D107739DB0FC93F1F42093938B50446D6
:1021E0000A48FFF753FE0A48FFF750FEE3686360B2
:1021F000636AE361E36B6363636DE3640023A36677
:10220000E36623676367C4F8843038BD8C0100241B
:10221000A00100242DE9F0410D4D0F1F161F0446AB
:1022200005F1100857F8042F204656F8043FC4E97A
:102230000023FFF72BFEB5EC010A20461434B8EE5C
:10224000400AFEF7DFF94545ECD1BDE8F08100BF5B
:1022500014AA059038B5054604F03EFF044605F182
:10226000140004F039FF44EA4000C0B238BD30B574
:1022700085B0002504460123ADF80C100399ADF894
:1022800008202A46009504F015FE01232A460299EB
:1022900004F11400009504F00DFE2046FFF7DAFF6C
:1022A00084F82A5084F8280084F8290005B030BD4D
:1022B00070B5064600F15C0400252046FFF7CAFF12
:1022C00094F82830834206D084F8280001352C3455
:1022D000042DF2D170BD94F829209342F6D084F8F1
:1022E000293043EA8203114A52FA83F394F82A20F0
:1022F00093F8543013445BB2012B09DD00237219AB
:1023000084F82A3092F87C31013382F87C31DDE7A1
:102310005A1C02DB84F82A30D8E70023721984F8AB
:102320002A3092F87C31013BEFE700BFD0A905903D
:10233000D0ED007AF4EE407A10B5F1EE10FA0446D2
:102340002DED048B34D0F6EE007AF7EE008AB3EE72
:10235000048AB4EEE70AF1EE10FA2CD870EE006AA7
:10236000DFED1E7A9FED1E7AA6EEA77ADFED1D7ACD
:10237000F0EE686ADFED1C9A84ED000A27EE290A68
:102380009FED1A9AC4ED036AC4ED047A20EE090A9F
:1023900016F028FE38EEC00A84ED010A28EE290A5C
:1023A00020EE090A16F01EFE78EEC08AC4ED028AFD
:1023B000BDEC048B10BD70EE677ADFED0D6A9FED0A
:1023C0000D7A77EEA77A27EEA76AA7EEA67ADFED59
:1023D0000A6AA6EE268A78EEE76ACBE700C0F345E4
:1023E0000000484300000000DB0FC9C03EC3AE3709
:1023F00000803B460000FA4500403A450023B6EE17
:10240000000A4361836193E7F8B504460430FFF79F
:102410003DFD04F51C7504F5307604F11800FFF756
:1024200035FDAE420DD104F5317604F57177002506
:10243000D4F810349D4209DB04F58360BDE8F84010
:10244000DCE728461435FFF721FDEAE73046013581
:10245000FFF71CFD0023143647F8043BE8E7F8B506
:1024600004460430FFF712FD04F51C7504F53076C0
:1024700004F11800FFF70AFDAE420DD104F53176E4
:1024800004F571770025D4F810349D4209DB04F57A
:102490008360BDE8F840B1E728461435FFF7F6FC45
:1024A000EAE730460135FFF7F1FC0023143647F820
:1024B000043BE8E7F8B54B4D8F23044604304360F6
:1024C0000026056004F17407FFF7E0FC9FED460A63
:1024D000201DFEF797F805F50F7304F11800A361AE
:1024E0006C23E361FFF7D2FC9FED400A04F1180072
:1024F000FEF788F805F57B7304F12C0005F6DC1572
:10250000E3624FF4BE732363FFF7C0FC9FED380A0C
:1025100004F12C00FEF776F84FF48B7304F14000C1
:102520002564636404F15405FFF7B0FC9FED310AA4
:1025300004F14000FEF766F82F4B284663654FF420
:102540009653A365FFF7A2FC9FED2C0A2846266749
:10255000FEF758F82A4B3846636741F28833A36781
:10256000FFF794FC9FED270A3846C4F89060FEF709
:1025700049F8254B04F19407C4F8943041F21853FC
:102580003846C4F89830FFF781FC9FED200A3846A2
:10259000C4F8B060FEF736F81D4B04F1B407C4F878
:1025A000B43041F2AA633846C4F8B830FFF76EFC85
:1025B0009FED180A3846C4F8D060FEF723F804F1FE
:1025C000D4039D4206D12846FFF718FF002384F864
:1025D000F030F8BD104A203545F80C2C0F4A45F86C
:1025E000082CEEE7001400C000000E430000D642A5
:1025F0000080BD4300808A43B01002C000F89545BA
:1026000090C201C000389C45306E01C000B8A8459A
:10261000881301C00048B5459A99193FCDCCCC3EEE
:1026200070B50546061D00F15404A6420AD105F115
:10263000D406B44220460AD1FFF7E0FE002385F815
:10264000F03070BD30461436FFF720FCEDE7FFF7A1
:102650001DFC0023203444F8043CEAE72DE9F04750
:102660006A4DA4B004461EAE0DF178080DF1600964
:102670000FCD0FC605F1080795E80300203586E861
:1026800003000FCF18AE0FC697E80300002786E8B7
:102690000300261D59F82730304658F8042B01371F
:1026A000C6E90023FFF7F2FBB5EC010A3046143609
:1026B000B8EE400AFDF7A6FF062FEBD1544B4FF0C2
:1026C000000804F5B670534DC4F86C3140F6A173A0
:1026D00012AE0DF14809C4F870310DF1300AFFF760
:1026E000D5FB04F5B6709FED4C0AC4F88881FDF760
:1026F00089FF0FCD0FC605F1080795E803002035C7
:1027000086E803000FCF0CAE0FC697E80300002742
:1027100086E8030004F17C065AF82730304659F861
:10272000042B0137C6E90023FFF7B0FBB5EC010A23
:1027300030461436B8EE400AFDF764FF062FEBD1A1
:10274000364B04F5C670364D06AEC4F88C3141F2F6
:10275000B9030DF11809C4F89031FFF797FB04F5A0
:10276000C6709FED300AC4F8A881FDF74BFF0FCD6E
:102770000FC605F1080795E80300203586E8030039
:102780000FCF6E460FC697E80300002786E80300C8
:1027900004F1F4065DF82730304659F8042B013770
:1027A000C6E90023FFF772FBB5EC010A3046143688
:1027B000B8EE400AFDF726FF062FEBD11A4B04F5C1
:1027C000D670C4F8AC3141F2A913C4F8B031FFF7A8
:1027D0005DFB9FED160A04F5D670C4F8C881FDF7BD
:1027E00011FF4FF07E5304F5E870C4F8CC31FFF7C9
:1027F00005FE002384F8EC310D4BC4F8F031C4F829
:10280000F431C4F8F83124B0BDE8F08734AA05905B
:1028100004D500C07CAA059000007A45209200C033
:10282000C4AA059000C085457C4B00C000408D4582
:10283000CDCC4C3F2DE9F041054600F5B67700269A
:102840002C1D4FF00008344408F101082046FFF722
:102850001DFB1434B8F1060FF6D178363846FFF771
:1028600015FB0023B6F5B47F07F1200747F8043CB9
:10287000E6D105F5E870FFF7C1FD002385F8EC31DE
:10288000BDE8F08170B5114B044611480025C0F831
:10289000003100F580700F4B4360FFF7F7FA43F209
:1028A0003902002304F11C006560E5602561C4E97C
:1028B0000532094BA360FFF7A1FDB6EE000A04F153
:1028C0001C00FFF735FDA563E56370BD28452BC0EF
:1028D00000000024803202001F420939D1ED057A40
:1028E0009FED0C7A67EE877A9FED0B7A38B567EE2D
:1028F000877A04460D460430C0ED017AFDF780FF6B
:1029000004F11C0084ED100A95ED030ABDE838407F
:102910000EE500BFDB0FC9403EC3AE3770B5134BA9
:10292000044613480025C0F8143100F58A70114B95
:102930004360FFF7ABFA43F23902002304F11C00B5
:102940006560E5602561C4E905320B4BA360FFF7C4
:1029500055FD9FED0A0A04F11C00FFF7E9FC4FF05A
:102960007E53E563A363256470BD00BF287B22C04E
:1029700000000024803202001F420939CDCCCC3E39
:10298000D1ED057A9FED117A67EE877A9FED107A87
:1029900038B567EE877A04460D460430C0ED017AFB
:1029A000FDF72EFF04F11C0084ED110A95ED030ADA
:1029B000FFF7BEFCB2EE0E7AF7EE007AD5ED046AB0
:1029C000E6EE877AC4ED0E7A38BD00BFDB0FC94052
:1029D0003EC3AE37F8B51B4D04461B4B1B4E05F5E9
:1029E0009470C5F8283104F11C07C5F82C61FFF775
:1029F0004DFA174B05F59E70C5E94F36FFF746FABD
:102A000043F239020023002538466560E560256100
:102A1000C4E905320F4BA360FFF7F0FC04F1380066
:102A2000FFF7ECFCB6EE000A3846FFF781FCB6EE85
:102A3000000A04F13800FFF77BFC6565A565E565D4
:102A40002566F8BD0000002428B119C080320200BC
:102A500028E710C01F420939D1ED057A9FED127A9F
:102A600067EE877A9FED117A38B567EE877A0D4663
:102A7000044604302DED028BC0ED017AFDF7C0FE57
:102A800095ED038A04F11C0084ED190AB0EE480AA2
:102A9000FFF74EFCB0EE480A04F13800BDEC028BA3
:102AA000BDE8384044E400BFDB0FC9403EC3AE3749
:102AB000B5EEC00A70B5F1EE10FA06462DED028BA8
:102AC000B0EE408A01D89FED118A06F1A0050024DE
:102AD000D6F84C31A34202DCBDEC028B70BDB5ECE4
:102AE000010A0134DFED0A7A20EE270A80EE080A97
:102AF00016F078FADFED077AB4EEE70AF1EE10FA95
:102B000077FE807AC5ED0F7AE2E700BF6F12833A55
:102B1000B30CDDC072F97F3F374BF0B5ABB043600B
:102B200045F6C05304460430344D436004AEFFF70D
:102B3000ADF9B7EE000A201DFDF764FD304B04F13E
:102B40001800A3614FF48053E361FFF79FF905F587
:102B50009E7104F11800FEF78AFE05F5CE730FCBC7
:102B600086E80F0005F5D67319AD0FCB8DE80F0081
:102B70006A46314604F51C70FFF74CFB214B40F6CA
:102B800058324FF48251C4F8C0321DA81E4B109326
:102B90001E4B11931E4B12931E4B139340F6A453DE
:102BA000CDE9082341F2CE233022CDE90A130021DA
:102BB00016F03CFF04231893174B299310AB0FCB4F
:102BC00085E80F0008AB21AD0FCB85E80F0018A9F1
:102BD00004F53170FFF76AF904F53170B0EE000AC0
:102BE000FFF766FF04F204430C4A04F583601A60A1
:102BF0002BB0BDE8F04001E4A88006C0D0A9059044
:102C0000A84006C0C2F5E83E481306C0B8DC05C0BF
:102C1000B89B05C0805005C000803B479A99993EFB
:102C20009FED147AB7EE000AD1ED017A67EE877A4C
:102C300038B5B4EEE70A04460D460430F1EE10FA5A
:102C400030FE270AFDF7DEFC04F5317091ED000A35
:102C5000FFF72EFFD5ED067A9FED077A04F5836026
:102C600095ED030A67EE877AC4EDB07ABDE8384087
:102C7000FFF75EBB00803B473333333F354BF0B546
:102C80009BB0436045F6C05304460430324D436068
:102C900004AEFFF7FBF8B7EE000A201DFDF7B2FC0B
:102CA0002E4B04F11800A3614FF4C053E361FFF70A
:102CB000EDF805F5DE7104F11800FEF7D8FD05F515
:102CC00007730FCB86E80F0005F5D6730FCB8DE8A1
:102CD0000F006A46314604F51C70FFF79BFA204B43
:102CE00040F6DB5241F23731C4F8C032042304F518
:102CF000317008931B4B19931B4B09931B4B0A9381
:102D00001B4B0B931B4B0C9341F22503CDE9112375
:102D100041F23963CDE91313002308A90D931593EC
:102D20000E9316930F93179310931893FFF7BEF813
:102D300004F53170B0EE080AFFF7BAFE04F204435E
:102D40004FF07A5204F583601A601BB0BDE8F04082
:102D5000FFF754BB80D903C0D0A90590807903C088
:102D6000C2F5E83E00803B47104203C0780103C033
:102D700098B402C0B05B02C0DFED1F7A91ED010A8A
:102D800038B520EE270A04460D4604302DED028B9F
:102D9000B7EE008AB4EEC08AF1EE10FA38FE000AEF
:102DA000FDF730FC91ED000A04F53170FFF780FE6D
:102DB00095ED030A9FED117A78EE406ADFED107A07
:102DC000E6EE877AF5EEC07AF1EE10FA11D4F4EE61
:102DD000C87AF1EE10FA38FE278A04F2044304F5AB
:102DE000836083ED008ABDEC028BBDE83840FFF7BD
:102DF0009FBA9FED048AF0E700803B473333B33E30
:102E00009A99193E0000000038B590F8F030044659
:102E10000D462DED028BB7EE008A33BBD1ED007A63
:102E20009FED160A80EE270A16F0DCF8DFED147A23
:102E3000F4EEC07AF1EE10FA70FE277A95ED030AEF
:102E4000F6EE006A9FED0F7A04F1540038EE408AE6
:102E5000C4ED3D7AD434A8EE267AA04208D1BDEC68
:102E6000028BBDE83840FFF763BAF0EE487AE5E739
:102E7000C0ED057A203000ED027AEEE71D6B41BF10
:102E8000EC51783F9A99193E91ED007ADFED337A53
:102E9000F4EEC77A2DE9F041F1EE10FA04460D4642
:102EA00000F5F8762E4F00F5FE782DED028B37FEFB
:102EB000878A94F8EC31002B4DD197ED000ADFEDB5
:102EC000297A20EE270A80EE080A16F08BF8A6EC85
:102ED000010AB04507F10407EBD195ED038A9FED98
:102EE000227ADFED227AD4F8F031E8EE077A9FED0E
:102EF000200AB0EE087AC4F88031D4F8F431C4F86E
:102F0000A031D4F8F831C4ED617AC4ED697AC4ED2A
:102F1000717AD5ED057AC4F8C03167EE877A27EE6D
:102F2000800A16F05FF8F7EE007A9FED127A04F54A
:102F3000E87030EE670A20EE070AB2EE0E7AE0EE95
:102F4000077AB0EE480ABDEC028BC4ED737ABDE897
:102F5000F041FFF7EDB9B7EE000AB8E70AD7233C16
:102F6000FCAB0590B30CDDC09A99993E9A99193E35
:102F70001572313F8988883D2DE9F0472DED068B8C
:102F80009AB00446F7EE008A2022002112A8F0EE43
:102F9000409A16F04BFDD4ED527A12AED4F84C5153
:102FA00004F59078C8EEA7AADFF8C4A1B1460027BF
:102FB000BD426CDC04F5807312A900221F469542C5
:102FC00000F39880202200210AA816F02FFD394630
:102FD000AA000AA816F06FFD082D40F099800A9B00
:102FE00002A80AA9002202930B9B03930C9B049353
:102FF0000D9B05930E9B06930F9B0793109B0893C5
:10300000119B099302ABFDF76AFC06A8FDF767FC6C
:10301000F3EC017A0132B0EC016ADFED526A042A66
:1030200037EE867A77EEC67A27EE267A67EEA67AAC
:10303000A1EC017AC1ED037AEAD107EE905A0AA910
:1030400004F1E0070025F8EEE77A88EEA77AD4F8D5
:103050004C21AA4260DC07EE902AB0EE007A12AB57
:103060000021F8EEE77A9FED400AC7EE270A8A4270
:1030700068DC0123DFED3C7A9A426BDC20EE200A0B
:1030800067EEA00A1AB0BDEC068BBDE8F08794EDA0
:1030900051AA18ED189AB5EEC0AA98ED008AF1EE83
:1030A00010FA0DDD9FED310A28EE000A16F098F9AE
:1030B000AAEE009AF4EEC98AF1EE10FA38FE899A67
:1030C0001420B0EE490A00FB0740FDF7D5FAF0EEF8
:1030D000487ABAEC017AA9EC010AE7EE2A7AF4EE12
:1030E000E87AF1EE10FA01DB77EEE87A0137E8ECE6
:1030F000017A5DE7D3ED007A0132B1EC017AD4EDCB
:10310000506A37EE677AE6EE877AE3EC017A56E7A3
:103110000AA8FDF7E4FB90E794F850317BB9D7EDAE
:10312000007AB1EC010A1420043720EE270A00FBD4
:1031300005400135A7EE290AFDF778FA87E7F7EE93
:10314000007AEEE7184602310833D0ED007A30EE0F
:10315000270A8CE796ED017A0836023377EE877AF4
:103160008AE700BFF304353F00000000DB0FC940D1
:1031700008AC059030B5044604302DED028B89B0C3
:1031800004F53075FDF752FAFDF75BFA04F118000B
:10319000FEF77FFBF6EE007AF0EE408A04F51C7035
:1031A00030EE200AB0EE608A20EE270A854223D155
:1031B00004F53170FFF7E0FEDFED125A9FED126A61
:1031C00004F5836020EE250ACDED030AA8EE860AF9
:1031D000FDF766FBB0EE405A9DED030A20EE250A8E
:1031E000A8EE060AFDF75CFBF0EE400AB0EE450AD9
:1031F00009B0BDEC028B30BDD4EDB00AFEF780FB08
:103200001430D3E79A99193FCDCCCC3E30B5044663
:1032100004302DED028B89B004F53075FDF706FA08
:10322000FDF70FFA04F11800FEF733FBF6EE007A13
:10323000F0EE408A04F51C7030EE200AB0EE608A91
:1032400020EE270A854223D104F53170FFF794FE62
:10325000DFED125A9FED126A04F5836020EE250A15
:10326000CDED030AA8EE860AFDF71AFBB0EE405A30
:103270009DED030A20EE250AA8EE060AFDF710FBD5
:10328000F0EE400AB0EE450A09B0BDEC028B30BD4D
:10329000D4EDB00AFEF734FB1430D3E76666263F60
:1032A0003333B33E10B50446442115F097FE204653
:1032B00010BD10B50446482115F090FE204610BD03
:1032C00010B50446682115F089FE204610BD10B5E2
:1032D0000446382115F082FE204610BD10B5044684
:1032E000842115F07BFE204610BD10B50446302128
:1032F00015F074FE204610BD10B50446882115F067
:103300006DFE204610BD10B50446482115F066FE3E
:10331000204610BD10B50446DC2115F05FFE2046A6
:1033200010BD10B50446202115F058FE204610BDF2
:1033300010B5044640F2344115F050FE204610BD51
:1033400010B5044640F2344115F048FE204610BD49
:1033500010B50446F82115F041FE204610BD10B509
:1033600004464FF4FE7115F039FE204610BDD1ED34
:10337000057A021D9FED2B7A67EE877A10B5FDEE78
:10338000E77A00F14C0417EE903AC0ED1E7AA242A3
:1033900039D1D1ED046A032B9FED237ADFED237A37
:1033A000E6EE877A91ED017ADFED216A27EE267A43
:1033B000F7EE006AC0ED1F7A37EEE66A87FE467ABE
:1033C00080ED207A1ED1F0EE675A9FED1A5AB0EECA
:1033D000676AC0ED1D7ADFED187AE7EE455AA7EE71
:1033E000056AF4EEE56A80ED1C6AF1EE10FAB4EEBF
:1033F000E76A76FEA56AC0ED1B6AF1EE10FA01DB02
:10340000C0ED1C7A10BDD1ED007A18329FED0B7A19
:1034100067EE877A9FED0A7A67EE877A42ED057A42
:10342000B5E700BFCFF79F40000064440000404272
:103430000000F0439A99993E00E01545DB0FC94022
:103440003EC3AE3770B51446A4B005464618AE422A
:1034500001D124B070BD6A4615F8011B04F12400A7
:1034600003F0C0F90028F2D004F1C000FEF7F4FB2D
:10347000D4F8C430013B9842E9D0D4F8C83069464A
:10348000D4F8C0005A1CC4F8C820902202FB0300E4
:1034900016F011FBD4E93123934224BF9B1AC4F8E0
:1034A000C830D4E770B51446A4B005464618AE42FD
:1034B00001D124B070BD6A4615F8011B04F1080063
:1034C00003F090F90028F2D004F1A400FEF7C4FB49
:1034D000D4F8A830013B9842E9D0D4F8AC30694622
:1034E000D4F8A4005A1CC4F8AC20902202FB0300BC
:1034F00016F0E1FAD4E92A23934224BF9B1AC4F8B8
:10350000AC30D4E770B5F025BDF810400B4405FB96
:1035100001050A4864BA9BB200EB4500994200D30A
:1035200070BD00EB4206054625F8024BB542FBD1C3
:10353000013100F5F07089B2F0E700BF280F34C008
:103540002DE9F74FDDF834C0013ABDF830B00193F2
:1035500012F8014F14B903B0BDE8F08FA4F12005B3
:10356000DCF804709CF80090EDB25F2D9CF80150DF
:1035700028BF3F24203C14FB05F40D4407EB44070F
:10358000ACB200940C46009B9C4201D14844DFE75A
:103590004FF0F00E37F802AB00260EFB04FEF5B23A
:1035A0004D4502D30134A4B2EDE70AFA06F5019BBA
:1035B00015F4004F00EB0605ADB20CBFD846984697
:1035C000EF2D08D8B4F5A07F3FBF98FA98F875445E
:1035D000024B23F815800136E1E700BF280F34C005
:1035E00010B4BDF8044012B1019410BCA8E710BC9F
:1035F000704708B50A4A0B4B0B498B4208D10B4B5D
:1036000000210B4A934208D116F02EFA00F08CFAF2
:1036100052F8040B43F8040BEFE743F8041BF1E7FF
:10362000ECC4059000000024A4170024A81700246F
:1036300034A60124034613F8012B002AFBD1181AE3
:10364000013870470000000000000000000000008A
:1036500001F0FF01102A2BDB10F0070F08D010F843
:10366000013B013A8B422DD010F0070F42B3F6D147
:10367000F0B441EA012141EA014122F007047FF060
:1036800000070023F0E80256083C85EA010586EAB7
:10369000010685FA47F5A3FA87F586FA47F6A5FAF3
:1036A00087F68EB9EED1F0BC01F0FF0102F00702FF
:1036B00032B110F8013B013A83EA010313B1F8D1AA
:1036C0000020704701387047002D06BF354603388B
:1036D000073815F0010F07D1013015F4807F02BFC4
:1036E000013015F4C03F0130F0BC0138704700BF15
:1036F00081F0004102E000BF83F0004330B54FEAA3
:1037000041044FEA430594EA050F08BF90EA020F0F
:103710001FBF54EA000C55EA020C7FEA645C7FEAA2
:10372000655C00F0E2804FEA5454D4EB5555B8BFC5
:103730006D420CDD2C4480EA020281EA030382EA36
:10374000000083EA010180EA020281EA0303362DC8
:1037500088BF30BD11F0004F4FEA01314FF4801C9B
:103760004CEA113102D0404261EB410113F0004FAD
:103770004FEA03334CEA133302D0524263EB430364
:1037800094EA050F00F0A780A4F10104D5F1200E02
:103790000DDB02FA0EFC22FA05F2801841F100015D
:1037A00003FA0EF2801843FA05F359410EE0A5F131
:1037B00020050EF1200E012A03FA0EFC28BF4CF062
:1037C000020C43FA05F3C01851EBE37101F0004518
:1037D00007D54FF0000EDCF1000C7EEB00006EEB25
:1037E0000101B1F5801F1BD3B1F5001F0CD34908AF
:1037F0005FEA30004FEA3C0C04F101044FEA445206
:1038000012F5800F80F09A80BCF1004F08BF5FEA8C
:10381000500C50F1000041EB045141EA050130BD6C
:103820005FEA4C0C404141EB0101013C28BFB1F57E
:10383000801FE9D291F0000F04BF01460020B1FAC9
:1038400081F308BF2033A3F10B03B3F120020CDA9C
:103850000C3208DD02F1140CC2F10C0201FA0CF07A
:1038600021FA02F10CE002F11402D8BFC2F1200CDF
:1038700001FA02F120FA0CFCDCBF41EA0C01904095
:10388000E41AA2BF01EB0451294330BD6FEA0404DE
:103890001F3C1CDA0C340EDC04F11404C4F12002C9
:1038A00020FA04F001FA02F340EA030021FA04F3DB
:1038B00045EA030130BDC4F10C04C4F1200220FA32
:1038C00002F001FA04F340EA0300294630BD21FA70
:1038D00004F0294630BD94F0000F83F4801306BF36
:1038E00081F480110134013D4EE77FEA645C18BF2A
:1038F0007FEA655C29D094EA050F08BF90EA020FC1
:1039000005D054EA000C04BF1946104630BD91EAB8
:10391000030F1EBF0021002030BD5FEA545C05D1BB
:103920004000494128BF41F0004130BD14F58004FA
:103930003CBF01F5801130BD01F0004545F0FE416E
:1039400041F470014FF0000030BD7FEA645C1ABFA3
:10395000194610467FEA655C1CBF0B46024650EADA
:10396000013406BF52EA033591EA030F41F4002106
:1039700030BD00BF90F0000F04BF0021704730B58C
:103980004FF4806404F132044FF000054FF0000161
:1039900050E700BF90F0000F04BF0021704730B522
:1039A0004FF4806404F1320410F0004548BF4042F7
:1039B0004FF000013EE700BF42004FEAE2014FEA4C
:1039C00031014FEA02701FBF12F07F4393F07F4F27
:1039D00081F06051704732F07F4208BF704793F02A
:1039E0007F4F04BF41F40021704730B54FF460743D
:1039F00001F0004521F000411CE700BF50EA010240
:103A000008BF704730B54FF000050AE050EA0102E8
:103A100008BF704730B511F0004502D5404261EB58
:103A200041014FF4806404F132045FEA915C3FF499
:103A3000D8AE4FF003025FEADC0C18BF03325FEA36
:103A4000DC0C18BF033202EBDC02C2F1200300FAE7
:103A500003FC20FA02F001FA03FE40EA0E0021FA0C
:103A600002F11444BDE600BF53B94AB9002908BFAA
:103A700000281CBF4FF0FF314FF0FF3000F00CB8B2
:103A8000ADF1080C6DE904CE16F0D4FDDDF804E0CC
:103A9000DDE9022304B07047704700BF0348044BC0
:103AA000834202D0034B03B118477047A417002488
:103AB000A4170024000000000548064B1B1AD90F6C
:103AC00001EBA301491002D0034B03B11847704723
:103AD000A4170024A41700240000000010B5064C11
:103AE000237843B9FFF7DAFF044B13B10448AFF36F
:103AF00000800123237010BDB842012400000000A3
:103B0000B0C4059008B5054B1BB105490548AFF396
:103B10000080BDE80840FFF7CFBF00BF00000000F5
:103B2000BC420124B0C40590D64D0021002605F109
:103B3000A8002C462DE98048ADF2AC6D01F040FBA9
:103B4000302105F1A80001F069FA032105F1A80070
:103B500001F048FA40F6014340F602209FEDCA0A00
:103B6000ADF8343040F60233ADF83C0005F58E7008
:103B70000D99ADF83830DDE90E2302F0AFFD40F6C7
:103B8000062240F6063105F5BC70ADF84020ADF8D0
:103B90004410DDE91012FEF76AFB40F2014240F2E8
:103BA000015105F5D270ADF84820ADF84C10DDE9B3
:103BB0001212FEF75CFB40F606124FF4007105F599
:103BC000E870ADF85020ADF85410DDE91412FEF79E
:103BD0004EFB40F6016240F6017105F5FE70ADF84E
:103BE0005820ADF85C10DDE91612FEF740FB40F6F8
:103BF00002129FEDA50A05F50A70ADF8602018992C
:103C000002F0C4FE40F602029FED9F0A05F5137014
:103C1000ADF86420199902F0B9FE012340F2CF7289
:103C2000F6A905F525708DF8E433F892CDE9F6365E
:103C300006F0CEFD772105F5257006F03DFE05F571
:103C40008E72924905F5257006F03CFE05F525704B
:103C500006F020FE8E4B03F144022B606A6003F1F4
:103C60008C02F433AA60EB6055F8040B013603684C
:103C70009B689847042EF7D1864B0025864E03F1AA
:103C800084026361A26103F1B402E26103F59E72F2
:103C9000226203F5C27203F518736262A36256F8DA
:103CA000040B013503689B689847062DF7D17B4BC1
:103CB00000257B4E03F23442E362226303F668027E
:103CC00003F516636263A36356F8040B01350368BA
:103CD0009B689847042DF7D1724EF6ADDFF8F0815E
:103CE0000DF5767E4FF000096F4F08F1140CC8F8FF
:103CF000C490C8F8047088F8C890C8F8109088F884
:103D0000C99088F8CA900FCE0FC596E8070085E8DD
:103D10000700BEE80F00C8E90299ACE80F0095E87B
:103D200007008CE8070006F10C0C0DF5767E2836AE
:103D3000BCE80F00AEE80F009CE807000DF5767EAA
:103D400008F1300C85E80700BEE80F00ACE80F0072
:103D500095E807008CE807000FCE0DF5767C88F813
:103D60006890ACE80F0096E807000DF5767C08F146
:103D70004C0685E80700BCE80F000FC695E8070071
:103D800086E80700582208F1140108F16C001FAE04
:103D900015F091FE08F10403207C26ADE363FCF7E7
:103DA000A5FA98F80000FCF789FA98F8FC00FCF7EF
:103DB000B3FA304602F002FD4FF0020C96E80F0015
:103DC0003A4E85E80F0043AD86E80F0085E80F0006
:103DD0000146104647F61222F791FC920122CDE9E6
:103DE000F829CDE9FAC2AA88ADF8DA23EA88C6E94B
:103DF0000503ADF8D8231BB11A46494615F016FE47
:103E0000F6A92B4807F014FD2A4802F0B9FD06F583
:103E100010434FF44072284800264FF00108A3F8E1
:103E20006021D3F8601102F0BBFE244802F0A8FD27
:103E300040F2016301222248ADF8683033461A99F6
:103E4000009603F037F840F2017301221D48ADF8E7
:103E50006C3033461B99009603F02CF840F6033380
:103E600001221948ADF8703033461C99009603F0D2
:103E700021F84FF4807301221448ADF874303346B2
:103E80001D9927E0A817002400000000B12204902B
:103E90005C02002488030024BC17002408060024C8
:103EA000D417002464AC059050180024142000247A
:103EB000242000243820002478B100247CB1002480
:103EC000EC170024001800241418002428180024DB
:103ED00000000024009602F0EDFF0121D04803F01D
:103EE00007F90121CF4803F003F9CF4BF6A9CF48DA
:103EF000F69303F50073F996CDE9F7360823CDE97B
:103F0000FC88CDE9FA83CDE9FE6806F057F9414611
:103F1000C74803F0EDF80A2007F0D2FF3146C44845
:103F200003F0E6F80A2007F0CBFF4146C04803F053
:103F3000DFF8782007F0C4FF4046FDF74FFF9620DA
:103F400007F0BEFF1120FDF749FF4FF4FA7007F0AC
:103F5000B7FF55233A202B70FDF740FF4146284616
:103F6000FDF75CFF0A2007F0ABFF36202E70FDF74F
:103F700035FF41462846FDF751FF2120FDF72EFF72
:103F80004FF06F432A202B60FDF728FF04212846BD
:103F9000FDF744FFA74B2B202B60FDF71FFF0421EB
:103FA0002846FDF73BFF1320FDF718FF0A2007F016
:103FB00087FF2920FDF712FF642007F081FF4FF4EF
:103FC000163231469C4815F031FDF6AB02364FF003
:103FD00000080233B6F5F07F03F8028C03F8018C79
:103FE000F4D1FDF739FF2C20FDF7F8FE4FF4A07651
:103FF00041468B4803F07CF80121904803F078F8A3
:1040000064234FF4F072F6A9884806F075F9013E72
:10401000F6D10121824803F06BF84FF43372314638
:10402000284615F003FD864BC4F89C7201272B60CF
:104030004FF4337229468348AF80C4F83C6815F0CA
:104040003AFD4FF4337229467F4815F034FD4FF4A2
:10405000FE017E48C4F8A01204F04CFB03685A1E0F
:10406000BA4240F202844FF433727749F7A8C4F899
:104070003C78F69715F01FFDD4E9A70104F03AFB50
:10408000054608F0C7F820B14FF43471284607F010
:1040900051FE4FF43372291D6B4816F0BBFA70B114
:1040A000D4F8A012D4F89C0201F5347204F034FA6A
:1040B000F6AB4FF43472D4E9A70104F027FAB4F850
:1040C000763500226249C4F8443801235F4884F8F9
:1040D0004038604BC3F880105F49DA67C3F890102E
:1040E0005E49C3F88C20A3F89420C3E9212200F094
:1040F00075FF07F0E3FE044672B626AA00231746B2
:10410000574DE818013390F89812042B49B242F841
:10411000041B4FF0000180F89812F1D162B605F54A
:104120008E7002F009FB05F50A7002F045FC05F5FA
:10413000137002F041FC3B68C5F874327B68C5F827
:104140007832BB68C5F87C32FB68C5F8803295F8D8
:1041500020310BB1D5F87431C5F8703295F8403183
:1041600095F82821A3F1FF08802B14BF002202F04C
:104170000102D8F1000385F8842243EB080395F887
:10418000442285F8853295F82C327F2A14BF00230B
:1041900003F0010395F8682285F8863295F85032CD
:1041A000002B00F06B83A2F17F0CA2F1800EDCF1FA
:1041B000000141EB0C01DEF1000343EB0E03FF2A8B
:1041C00085F8883285F887120CBF0123002385F813
:1041D000893240F0558307F071FE07EE900A95EDA5
:1041E0009B7AF8EE677A77EEC77A95F84432FCEE60
:1041F000E77AA3F1FF00C5EDA37A4342434185F876
:10420000903295F884326BB3D5F8483803220133E5
:1042100093FBF2F202EB42029B1AC5F8483821E008
:10422000EC1700242818002400050B00E8170024D0
:10423000141800240000013F280F34C00018002487
:10424000544C554D4C1A0024181D002450180024BD
:104250000000F042F8100024000080BF2904049000
:10426000A8170024D5F87032002B19D0D5F84828AB
:10427000CCBF01234FF0FF33012A00F00483022A50
:1042800000F0128362B9287C1844062390FBF3F2F5
:1042900003FB1200411C08BF0520C0B2FCF726F842
:1042A000D5F84818002900F01183C44AA2F11C0374
:1042B000012918BF1346DFF858E3002095F88582DE
:1042C0000EF2DC5103EB081301EB08115EF8042F2A
:1042D000002A40F0FD820130043304310428F5D176
:1042E00095F8873263B1B64BD96F002900F3648328
:1042F0004A1C03EB8101012ADA67CC6600F36E8366
:1043000095F8893263B1D5F88C32B3F5FA7F07D9C5
:1043100095F8683823B9012085F86808FCF746F855
:1043200095F8883263B1D5F88C32B3F5FA7F07D8A7
:1043300095F8683823B1002085F86808FCF736F84E
:10434000742200213846DFF8CC8215F06FFB4FF065
:10435000FF334046FB6607F067FBB0B908F1140075
:10436000A8F1100902F00CFB964B14214046C9F845
:104370002030C9F81C9007F0C7FCCDF800804046FB
:10438000914BD9E9051207F0C7FA9048FDF764FC94
:10439000002840F057838E4802F04CFC50B98D48FD
:1043A00002F0EEFA8A4802F049FC8B4A8B49101D54
:1043B00002F032FC8A48FDF74FFC002840F05083A1
:1043C0007E4B3A460DF1B301A3F11C0EA3F1380C5C
:1043D00011F8018FB8F1000F03D0D2F80080CCF8AB
:1043E000008091F82480B8F1000F03D0D2F8248027
:1043F000CEF8008091F84880B8F1000F03D0D2F8D1
:104400004880C3F800800130043204330EF1040EFA
:1044100007280CF1040CDBD197F8723023B101208E
:1044200085F86808FBF7C2FF97F8733023B10020C6
:1044300085F86808FBF7BAFF97F87020604B3AB12F
:10444000D3F88C200132172A00F21883C3F88C208D
:1044500097F87110002900F02E830022614983F83B
:104460009420C3F89010C3F88C20C3F8842093F8EC
:1044700095204AB1D3F8882032B1A21AB2F5FA6F6A
:1044800084BF002283F8952093F89420002A00F03E
:104490002683D3ED249AF5EEC09AF1EE10FA40F39C
:1044A0002A83F7EE007A87EEA98A2B7C4E4D4F4F78
:1044B000A5F10C0097ED6D0A052B18BF2846FDF7F6
:1044C000F6FB05F18400B0EE409A97ED6E0AFDF719
:1044D000EEFB05F19000F0EE40FA97ED6F0AFDF764
:1044E000E6FB05F19C00B0EE40FA97ED700AFDF78F
:1044F000DEFB05F1A800F0EE40EA97ED710AFDF74A
:10450000D6FB05F1B400B0EE40EA97ED720AFDF774
:10451000CEFB05F1C000F0EE40DA97ED730AFDF72F
:10452000C6FBB5EEC08AB0EE40DAF1EE10FA01DD5E
:10453000B0EE489A2E4897ED740AFDF7B8FB2D4867
:10454000F0EE408A97ED750AFDF7B1FB2A48F0EED0
:1045500040CA97ED760AFDF7AAFB2848B0EE40CA9C
:1045600097ED770AFDF7A3FB2548F0EE40BA97EDEB
:10457000780AFDF79CFB2348B0EE40BA97ED790A24
:10458000FDF795FB20488DED060A97ED7A0AFDF7B9
:104590008EFBF5EEC09AB0EE408AF1EE10FA01DD26
:1045A000F0EE698A97F8FC2097ED7B0A002A00F06C
:1045B000A582164B03F10C002EE000BFEC01002495
:1045C000F8100024453404909D1B0490D42000244E
:1045D00078B100247CB1002474B10024A534049087
:1045E00018B20024000080BF34AC05900000002405
:1045F00000AD05900CAD059018AD059024AD05906B
:1046000030AD05903CAD059048AD05904CAC0590A3
:10461000181A002424200024032A08BF1846FDF796
:1046200046FBCC488DED070A97ED7C0AFDF73FFB72
:10463000C9488DED080A97ED7D0AFDF738FBC7489C
:10464000F0EE40AA97ED7E0AFDF731FBC448B0EECC
:1046500040AA97ED7F0AFDF72AFBC248F0EE409A88
:1046600097ED800AFDF723FBBF488DED090A97ED12
:10467000810AFDF71CFBBD498DED0A0A91F86858C7
:10468000EFF3108072B6D7F8C4204FF0580CB84B37
:10469000C2F10102DDED067A0CFB0233C3ED107AA4
:1046A000DDED077A83ED049AC3ED127ADDED087A29
:1046B000C3ED05FAC3ED137ADDED097A83ED06FA51
:1046C000C3ED177ADDED0A7AC3ED07EA83ED08EA58
:1046D000C3ED09DA83ED0ADAC3ED0B8AC3ED0CCA28
:1046E00083ED0DCAC3ED0EBA83ED0FBA83ED118AC7
:1046F000C3ED14AA83ED15AAC3ED169AC3ED187A7B
:1047000083F86450012387F8C83000B962B6A31B50
:10471000202B7FF6EEAC91F8A43003F0FF06002BBF
:1047200040F060833B784FF41632D1F8485897F840
:10473000FCB003938F4F91F8683891F810A0314680
:104740000B9307EB45038C48B3F8CC33029315F079
:104750006DF907F5737307F57577059306EB86001A
:10476000B542DFF844924FEA001080B200F11A0817
:104770001FFA88F30493059B33F8028B059340F0EE
:10478000BF81142350220021CDF80080FEF7BAFE2D
:104790000023CDE9008901363A6805210498FEF727
:1047A0001FFF032E07F10407D8D1002D40F0AE8182
:1047B000BAF1050F00F2BF816E4B03EB8A03D3F809
:1047C000E0230026029B15210420CDF804904FF62B
:1047D000FF7700960DF17C09FEF702FF43F25013BC
:1047E0001EAA1821ADF87830C020644B8DF87A608D
:1047F000CDE900634FF6FF73FEF7A2FEF02201231E
:10480000272130460097FEF77DFE0123FA2130462E
:104810000097FEF777FE01234FF48C713046009726
:10482000FEF770FE002D00F09B81012D40F0DD822F
:104830005348B0EE680AFDF775FA524889ED000A50
:10484000B0EE6C0AFDF76EFA4F4889ED010A89ED6A
:1048500002CA9DED060AC9ED03BA89ED04BAFDF757
:1048600061FA4A4B89ED050A9AE1011D4FF4337252
:104870004748C4F83C3815F01EF920E419469EE478
:10488000DFED447AB1E4444A10781844434200F022
:10489000030003F0030358BF5842421C08BF032023
:1048A000C0B2FBF70BFDFBE43B4A92F8FC00184456
:1048B000434200F0030003F0030358BF5842431C77
:1048C00008BF0320C0B2FBF727FDE9E4334BF2E455
:1048D00000EB880CBCF1070F3FF402AD002AD4BFF7
:1048E0004FF0FF394FF00109002AB8BF5242D1F80A
:1048F00000C0013ABCF1000F25D0A4EB0C0CDFED99
:10490000287A9FED287ABCF1290F28BFF0EE477A6C
:1049100007EE109AF8EEC76A93ED007AA6EEA77A32
:10492000B5EEC07AF1EE10FA10D4F7EE007AB4EEDC
:10493000E77AF1EE10FA77FE877AC3ED007A0C6021
:10494000002AD4D1C7E4DFED177AE1E7DFED117A71
:10495000F3E700BF54AD059060AD05906CAD0590D8
:1049600078AD059084AD059090AD0590A817002412
:1049700004000024D0A90590280F34C0001500249D
:1049800000AD0590F4AD059000AE05904002002406
:10499000181D00240000000000000024B4010024C1
:1049A000CDCC4C3D0AD7233CF814002400606A4764
:1049B000000020420000704303EB8102926EA21AB5
:1049C000B2F5FA6F34D803297FF792AC1A6FDA6622
:1049D0005A6F1A679A6FC3E91D240A46013AD86EC6
:1049E00003EB8201C96E091A07EE901AB8EE677AD6
:1049F00007EE902AF8EEE77AC7EE276A1FED157AE0
:104A0000C7EE267A1FED167AF4EEC77AF1EE10FAA9
:104A100010DB1FED187AF4EEC77AF1EE10FA09D820
:104A2000C3ED207A0122C3F8884083F8952067E41B
:104A300000215DE4D3ED207AF5EEC07AF1EE10FAB4
:104A4000F0DC5DE443A83D49FDF70EF93B469DF8D7
:104A500015219DF814119DF80C01FDF7A5F894E4BB
:104A6000F6A83749FDF700F93B469DF8E1239DF88C
:104A7000E0139DF8D803FDF797F89BE40022C3F8F4
:104A80008C20D3F884209AB1A21A40F6D861A2F102
:104A9000C80088420CD807EE902A9FED2A7A01229E
:104AA000F8EEE77A83F8942067EE877AC3ED247AEC
:104AB000C3F88440CCE493F89420002A3FF4D7ACA8
:104AC000D3F88420002A3FF4D2ACA21AB2F5FA6FD0
:104AD00082BF1D4A83F89410C3F89020C7E493F86E
:104AE000952032B1D3ED207A9FED187AC7EE279A40
:104AF000D1E4FFEE009A9FED168AD6E415488EE5C4
:104B00000023CDF804900093434644E6012D09D1DB
:104B1000039B032B0FD8039A0F4B03EB8203D3F8AD
:104B2000F8234EE6BBF1030F05D80B4B03EB8B03C9
:104B3000D3F8082445E6094A43E600BFD420002400
:104B400018B200246F12833A000080BF0000704248
:104B50000000000040AC0590D0A9059016C4059057
:104B6000C04EB0EE490AA6F10C00BAF1050F18BF0D
:104B70003046FDF7D7F806F5DA7089ED000AB0EE99
:104B80004D0AC9ED01FA89ED02FAC9ED03EA89ED92
:104B900004EAC9ED05DAFDF7C5F8B0EE408AB24B7C
:104BA000A3F10408332689ED068AB04B3146042070
:104BB0000193002300934FF6FF7358F8042FFEF77C
:104BC0000FFDB9EC017AB11EB5EEC07A89B2F1EEF3
:104BD00010FA00F13981F7EE007AB4EEE77AF1EEDF
:104BE00010FA77FE877A029B9C225020771E009352
:104BF0000123FEF787FC029B06F10B015020009376
:104C0000012389B29FED9A7AFEF77CFC029BBFB22A
:104C100001225020009339460C23FEF773FC029BBF
:104C20003946EB2000930C23FEF76CFC67EE877A85
:104C3000FCEEE77A17EE903A9AB2002A40F007812C
:104C4000C2F19A0102F1510000238AB23946009361
:104C500080B20C23FEF756FC1E3640F20513B6B2A6
:104C60009E42A2D10B9B814F4BB10023814A31461A
:104C7000042000934FF478430197FEF761FC002372
:104C80007D4A40F21D11042001970026009340F256
:104C9000FF73FEF755FCBAF1050F4FF6FF714FF0A9
:104CA000040096BF754B764A03EB8A030197009682
:104CB00098BFD3F8E02340F2FF73B54218BF0B460C
:104CC0004FF49571FEF78CFC4FF6FF736D4A4C2044
:104CD000CDE90067FEF734FC6B4A4FF6205340F2F3
:104CE0001D115420CDE90067FEF72AFC039B002626
:104CF0004FF6FF71032B4FF0540001979BBF5F4BA2
:104D0000039A5F4A03EB8203009698BFD3F8F82317
:104D10004FF62053012D18BF0B464FF49571FEF747
:104D20005FFC4FF6FF73574A9C20CDE90067FEF702
:104D300007FC564A1F2340F21D11A420CDE900674D
:104D4000FEF7FEFBBBF1030F4FF000064FF001072B
:104D500098BF4A4B4FF4957188BF494A4FF0A40061
:104D600098BF03EB8B03009698BFD3F80824022D5D
:104D70003E4B474D01934FF6FF7308BF1F2305F1CC
:104D80004008FEF72DFC85F8A470C5E92766FDF7FD
:104D900063F8314605F1440002F0AAF9314605F105
:104DA000580002F0A5F92C233A461FA98DF87C3053
:104DB0004046642305F0A0FA394605F1580002F098
:104DC00097F9344B4FF6FE723349C5F8943040469C
:104DD000324BC5F89830324BCDF8048000933346FF
:104DE00005F094FA2646FFF784B9BBF1000F29D0ED
:104DF0002C4B03F10C00BBF1030F08BF18469DEDCF
:104E0000070AFCF78FFF284889ED000A9DED080A84
:104E1000FCF788FF254889ED010AC9ED02AA9DED3E
:104E2000090A89ED03AAC9ED049AFCF77BFF204823
:104E300089ED050A9DED0A0AFCF774FF1D4BB0EEE3
:104E4000408AADE61C48DAE7DFED1C7ACBE6029B30
:104E50003946512000930C23FEF754FB992A3FF664
:104E6000FBAEEDE634AC05900802002400150024EA
:104E700000001A4318C405901DC40590D0A90590E0
:104E800016C4059021C4059083C4059023C40590E1
:104E9000A8170024260F35C0280F34C0025801007F
:104EA000911D04904CAC05900CAE059084AD05901E
:104EB00090AD05902402002440AC05900000000055
:104EC00070B5414C6FF0F4130021042604F1D000BA
:104ED000C4F8BC10C4F8C810C4E92A13C4E92C33C0
:104EE000FBF7E3F904F1E400FBF7DFF904F5807068
:104EF000FBF7DBF904F59670C4F81811FBF7D5F948
:104F000004F5BC7104F5A470FBF7CFF904F5AE709D
:104F1000FBF7CBF90846FBF7C8F901F11400FBF7E2
:104F2000C4F90023013E01F12C0101F8043C01F811
:104F3000033C01F8023CEDD124483146FBF7B5F9BA
:104F4000234D2430FBF7B1F924221C3014F06EFD00
:104F50002846C4F89462C4F8986201F02FFC05F169
:104F6000D00340F20F721B494FF44070C5F8C030B7
:104F700040F20113A5F8BC202E61C5F8B810C5F8A1
:104F8000CC602664C5E9313605F51045C5E95806FB
:104F9000C5E97F12104805F50572C5E98366C5E9C4
:104FA0008123FBF782F91430FBF77FF91430FBF70C
:104FB0007CF91430FBF779F984F8A460C4E925661C
:104FC000C4E9276670BD00BFA8170024D8190024C3
:104FD000142000240080707FEC170024143001F0AE
:104FE0004BBB00BF30B5054683B0143001F0F0FA7A
:104FF00005F1140001F0E8FA05F114008DED010A45
:1050000001F0D0FAD0ED007A9DED010AF8EE677A52
:1050100080EE277A85ED1B7A03B030BD30B50546AA
:1050200083B0143001F0C2FA05F1140001F0CCFA9B
:1050300005F114008DED010A01F0B4FAD0ED007A0B
:105040009DED010AF8EE677A80EE277A85ED1B7AEE
:1050500003B030BD00B540F203308FB000224FF6F0
:105060000B7340F20341ADF80800009209A8ADF8B7
:105070001030ADF824300123ADF80C1002990792DE
:105080000C92CDE90522CDE90A2201F013FF00229E
:1050900004A801230399009201F00CFF09A802F073
:1050A0001BF810B901200FB000BD04A802F014F8DD
:1050B00080F00100C0B240000FB000BDF0B5032386
:1050C0009DB00125002416934FF60B77384B06460A
:1050D000ADF854701393A3F19F631294A3F57D432D
:1050E0001995CDE917541493FFF7B4FFA8423CD0AB
:1050F00002282AD12F4B2A460094CDF8523040F690
:105100000133ADF83470ADF820302346089910947F
:10511000CDE91A450DAD2846CDE90E4401F0CAFE91
:105120002146284601F0E4FF12A906F1700003F0C1
:10513000DBFE214B0FCB85E80F00326F294606F1CD
:10514000140001F0F5F91DB0F0BD40F60132194B25
:1051500006F158001B95ADF820200DAD08991A9462
:10516000CDF8523000F0A2F8DEE710221149089085
:105170000DAD8DF83020114ACDF8521008A90A90D3
:10518000039009920B940494CDE91A0404A802F048
:1051900027F90821039B2846079105A9049AADF831
:1051A00014308DF8164006930D9400F0BDF8BBE75F
:1051B000040204040406040348B005900704010B2C
:1051C00070B540F2011284B0374B0446ADF80C20A4
:1051D00000220291012599888DF80E201A89E1801C
:1051E000228199891A8A18886181A281998A1A8DE7
:1051F0009B8DE181A3872285A0802582E5622564BD
:1052000007F008F8064606F05DFE034610BB0EB335
:1052100002A904F150008DF80E5006F07DFF072E14
:105220003AD12046FFF74AFF04F1140001F0CCF90F
:1052300004F114008DED010A01F0B4F9D0ED007A0B
:105240009DED010AF8EE677A80EE277A84ED1B7AED
:1052500004B070BD02A904F15000019306F05CFF98
:10526000072E019B02D1002BDBD006E0211D20463A
:10527000019303F071F8019B9BB104F128010846EA
:1052800001F008FD04F13C01084601F003FD04F1C2
:10529000120000F065F9C4E7211D204603F05CF818
:1052A000BFE7002EE9D0BCE730B0059010B584B060
:1052B000002304460122ADF80C100093039901F07D
:1052C000F9FD0121204601F013FF012006F0F8FD51
:1052D0000021204601F00CFF012006F0F1FD012124
:1052E000204604B0BDE8104001F002BFC2F3002C1C
:1052F000FA2300B587B04CEA410C017C8DF81520EB
:1053000005AA009302238DF814C002F001F918B128
:105310000123184607B000BD03900A2006F0D0FD17
:10532000039B184607B000BD034630B5044685B060
:1053300043F8042BFA2507C983E80700A1791E2347
:10534000009503AA1A31ADF80C3020460223C9B2E9
:10535000217402F0DDF810B1012005B030BD0A2043
:1053600006F0AEFD4FF4B85200950223ADF80C20C4
:10537000204603AA217C02F0CBF80028ECD10A20B9
:1053800006F09EFD41F2027200950223ADF80C205A
:10539000204603AA217C02F0BBF80028DCD10A20B9
:1053A00006F08EFD042200950223ADF80C20204665
:1053B00003AA217C02F0ACF80028CDD10A2006F027
:1053C0007FFD062200950223ADF80C20204603AA9B
:1053D000217C02F09DF80028BED10A2006F070FD65
:1053E00041F2082200950223ADF80C20204603AAC2
:1053F000217C02F08DF80028AED10A2006F060FD75
:105400004FF00A0200950223ADF80C20204603AAB3
:10541000217C02F07DF800289ED10A2006F050FD84
:1054200023790C220095002B217C8DF80C2020463E
:1054300014BF622342236A448DF80D30022302F028
:1054400067F8002888D10A2006F03AFDA368009585
:105450002046E268217C1343627943EA42132279B1
:1054600082F0010243EA82130E228DF80D300223EE
:105470008DF80C2003AA02F04BF800287FF46CAFE3
:105480000A2006F01DFD102200950223ADF80C2025
:10549000204603AA217C02F03BF800287FF45CAF91
:1054A0000A2006F00DFD122100950223ADF80C1024
:1054B00003AA217C204602F02BF800287FF44CAF91
:1054C0000A2006F0FDFC01220921204605B0BDE8B6
:1054D0003040FFF70BBF00BF70B586B00024012538
:1054E000102602A94FF480521C480194CDE90256BF
:1054F000CDE904540EF016FF642007F04FF90223A3
:1055000002A94FF48052154802930594CDE9036532
:105510000EF008FF042302A94FF480520F480396AF
:10552000CDE90434032302930EF0FCFE40F2322353
:10553000042202A90948019310230495CDE902230E
:10554000019B4FF4805205930EF0ECFE40F60601ED
:1055500002480EF009FF204606B070BDDC4201246F
:1055600030B51F4B89B00822DFF878C000214FF416
:1055700000641A614FF0020E03920A22C3F804C0BD
:105580004FF0200C069240220546996003201962D4
:1055900010215C620124C3E905C24FF4C072DC60D3
:1055A000DA6107229FED0C7BCDE900E20422CDE910
:1055B00004016946181D029283ED0A7B0EF088FEF5
:1055C00028B9284609B0BDE83040FFF785BF20461E
:1055D00009B030BDAFF300800010000000000000F3
:1055E000D8420124404100525E4A0023F0B51468BD
:1055F0008FB00A93002C40F0B2805B4B0121032650
:105600000C2511600227D3F8D420584842F4805268
:10561000C3F8D420D3F8D42002F480520092009A28
:10562000D3F8E02042F01002C3F8E020D3F8E020E5
:1056300002F010020192019AD3F8E02042F04002F9
:10564000C3F8E020D3F8E02002F040020292029A70
:10565000D3F8E02042F00802C3F8E020D3F8E020BD
:1056600002F008020392039AD3F8E02042F4807219
:10567000C3F8E020D3F8E02002F480720492049A88
:10568000D3F8E02042F08002C3F8E020D3F8E02015
:1056900002F080020592059AD3F8E02042F0200241
:1056A000C3F8E020D3F8E02002F020020692069A28
:1056B000D3F8E02042F00402C3F8E0204FF68372F2
:1056C000D3F8E0300B9603F004030C950793022304
:1056D000079908A9CDE9082308F0F2FD48F237132D
:1056E00008A9234808930C950997CDE90A4608F0C4
:1056F000E7FD4CF2037308A91E480893CDE909742D
:10570000CDE90B6508F0DCFD40F2FF6308A91A48FB
:105710000893CDE90974CDE90B6508F0D1FD4FF68A
:105720000C7308A915480893CDE90974CDE90B65F8
:1057300008F0C6FD4FF63F0308A911480893CDE9CC
:105740000974CDE90B6508F0BBFD202308A90B48BF
:1057500009970C950893CDE90A4608F0B1FD0FB002
:10576000F0BD00BFD442012400440258001002588A
:1057700000180258000C025800200258001C025861
:10578000001402582DE9F04F8BB08346C8480D46EF
:1057900000AF144603F0A6FCC64BD3E90621002A4D
:1057A00000F00A82002940F09280D3F8048008219A
:1057B0004FF002094269B8F1000F00F09280A10099
:1057C000EA46012A01F1070121F00701ADEB010DC5
:1057D0006846ADEB010D694600F0F581022A00F044
:1057E0007382002A40F0E581002C00F0E281D3EDC5
:1057F0000C6A86469FEDB07A0BF1040C5E4636F9D2
:1058000022900EF1080E07EE909A3CF92290023297
:10581000F8EEE77A944267EE877A67EEA67A4EED65
:10582000027A07EE909AF8EEE77A67EE877A67EEEB
:10583000A67A4EED017AE2D822467962C0479D4BA6
:105840000022796A93ED0D6A281DDFED9C6A9C4E5B
:105850009FED9C7ADFED9C5AD1ED007A334666EEDF
:10586000277AF4EEE67AF1EE10FA0CD9F4EEC77A64
:10587000F1EE10FA67FE277A67EEA57AFDEEE77A79
:1058800017EE903A1BB2D1ED017A45F8223066EE60
:10589000277AF4EEE67AF1EE10FA40F20682F4EEA0
:1058A000C77A0831F1EE10FA67FE277A67EEA57A1B
:1058B000FDEEE77A17EE903A1BB240F82230023242
:1058C0009442C9D8D5462C37BD46BDE8F08FD3F8F1
:1058D000048010214FF004094269B8F1000F7FF4F1
:1058E0006EAF1868F8610028EDD07848C7F818D076
:1058F000C7E9081203F064FCB9F1020F6D4BF860C0
:10590000D7E9081200F069826846C4F35D0C012AE9
:10591000A0EBC40085464FEA5400EE46B860AEEBFB
:10592000C40085460EEB8C006E46ADEB010DC7E959
:1059300000E006EB8C003E616E46ADEB010D786138
:105940000EEB8C003146C6F800E0706000EB8C0670
:10595000796278698E60396900EB8C0A06EB8C00FD
:10596000C7F820D0009179693861CDE9011A0AEBB6
:105970008C010391796AC86000F03484022A00F037
:105980002F83002A40F01382002C00F09984B9F193
:10599000020F00F09B84601EFE683A610BF1040C5C
:1059A0004008DFED456A01304FEA800A586A00EB93
:1059B00086007E6AB268F6687A61021DD7F81480A4
:1059C000C7F81490B1465E46AB46D7E900E17A606D
:1059D0003A693C616446D7F804C036F9125093ED39
:1059E0000C6A07EE905A34F91250F8EEE77A67EE37
:1059F000A67A67EE867AEEEC017A07EE905A30F9D5
:105A00001250F8EEE77A07EE105A3CF9125067EEA2
:105A1000A67AB8EEC77A67EE867A27EE267AE1ECA8
:105A2000017A07EE905A27EE067A08EB0205F8EEA7
:105A3000E77A85ED007A09EB020567EEA67A93ED29
:105A40000C7A043267EE877A5245C5ED007AC4D1EC
:105A5000D7F814905D463C69BA68FB69D7E908102D
:105A60009847144B3A6AB9F1020F93ED0D7AD2E9D7
:105A7000006100F0798404F1FF3CDB6AFA68344687
:105A80004FEA5C0CDFED0D6A03EB82093B6A0CF117
:105A9000010C9FED0C6ADFED0C5A09F1040E4FEA80
:105AA0008C0C0022281D064ED3E902839A4675E02D
:105AB00028430124104301240000003804FF7FBF65
:105AC0000280FFFF04FF7F3F00FEFF462C430124BE
:105AD00000000034F4EEC67AF1EE10FA66FE277A82
